{
  "_format": "hh-sol-artifact-1",
  "contractName": "FraktalSwapper",
  "sourceName": "contracts/FraktalSwapper.sol",
  "abi": [
    {
      "inputs": [
        {
          "internalType": "address",
          "name": "_weth",
          "type": "address"
        }
      ],
      "stateMutability": "payable",
      "type": "constructor"
    },
    {
      "anonymous": false,
      "inputs": [
        {
          "indexed": false,
          "internalType": "string",
          "name": "content",
          "type": "string"
        }
      ],
      "name": "Log",
      "type": "event"
    },
    {
      "anonymous": false,
      "inputs": [
        {
          "indexed": false,
          "internalType": "string",
          "name": "label",
          "type": "string"
        },
        {
          "indexed": false,
          "internalType": "string",
          "name": "content",
          "type": "string"
        }
      ],
      "name": "Log",
      "type": "event"
    },
    {
      "anonymous": false,
      "inputs": [
        {
          "indexed": false,
          "internalType": "string",
          "name": "label",
          "type": "string"
        },
        {
          "indexed": false,
          "internalType": "bytes",
          "name": "_bytes",
          "type": "bytes"
        }
      ],
      "name": "LogBytes",
      "type": "event"
    },
    {
      "anonymous": false,
      "inputs": [
        {
          "indexed": false,
          "internalType": "string",
          "name": "label",
          "type": "string"
        },
        {
          "indexed": false,
          "internalType": "uint256",
          "name": "num",
          "type": "uint256"
        }
      ],
      "name": "LogInt",
      "type": "event"
    },
    {
      "inputs": [
        {
          "internalType": "address",
          "name": "_flashSwapRouter",
          "type": "address"
        },
        {
          "internalType": "address",
          "name": "_pairAddress",
          "type": "address"
        },
        {
          "internalType": "address",
          "name": "_tokenBorrow",
          "type": "address"
        },
        {
          "internalType": "address",
          "name": "_tokenPay",
          "type": "address"
        },
        {
          "internalType": "uint256",
          "name": "_amount",
          "type": "uint256"
        },
        {
          "internalType": "bytes",
          "name": "_flashData",
          "type": "bytes"
        }
      ],
      "name": "startFlashSwap",
      "outputs": [],
      "stateMutability": "payable",
      "type": "function"
    },
    {
      "inputs": [
        {
          "internalType": "address",
          "name": "_sender",
          "type": "address"
        },
        {
          "internalType": "uint256",
          "name": "_amount0",
          "type": "uint256"
        },
        {
          "internalType": "uint256",
          "name": "_amount1",
          "type": "uint256"
        },
        {
          "internalType": "bytes",
          "name": "_data",
          "type": "bytes"
        }
      ],
      "name": "uniswapV2Call",
      "outputs": [],
      "stateMutability": "nonpayable",
      "type": "function"
    },
    {
      "stateMutability": "payable",
      "type": "receive"
    }
  ],
  "bytecode": "0x608060405260405161242c38038061242c83398101604081905261002291610050565b600280546001600160a01b039092166001600160a01b0319928316179055600580549091163317905561007e565b600060208284031215610061578081fd5b81516001600160a01b0381168114610077578182fd5b9392505050565b61239f8061008d6000396000f3fe60806040526004361061002d5760003560e01c806310d1e85c14610039578063943f5e391461005b57600080fd5b3661003457005b600080fd5b34801561004557600080fd5b50610059610054366004611ddc565b61006e565b005b610059610069366004611d46565b610d25565b6100a060405180604001604052806011815260200170554e49535741502056322043414c4c454560781b815250610ddc565b60008080806100b185870187611c98565b93509350935093506000336001600160a01b0316630dfe16816040518163ffffffff1660e01b815260040160206040518083038186803b1580156100f457600080fd5b505afa158015610108573d6000803e3d6000fd5b505050506040513d601f19601f8201168201806040525081019061012c9190611bc0565b90506000336001600160a01b031663d21220a76040518163ffffffff1660e01b815260040160206040518083038186803b15801561016957600080fd5b505afa15801561017d573d6000803e3d6000fd5b505050506040513d601f19601f820116820180604052508101906101a19190611bc0565b90506000806000876001600160a01b0316896001600160a01b031614156101cb57600191506101d0565b600091505b816001141561020f576103e56101e78860036121f3565b6101f191906121d3565b6101fc9060016121bb565b90506102088782610e22565b925061037c565b604080516002808252606082018352600092602083019080368337019050509050856001600160a01b03168a6001600160a01b031614156102505784610252565b855b8160008151811061027357634e487b7160e01b600052603260045260246000fd5b6001600160a01b0392831660209182029290920101528a81169087161461029a578461029c565b855b816001815181106102bd57634e487b7160e01b600052603260045260246000fd5b6001600160a01b0392831660209182029290920101526000546040516307c0329d60e21b8152911690631f00ca74906102fc908b9085906004016120f0565b60006040518083038186803b15801561031457600080fd5b505afa158015610328573d6000803e3d6000fd5b505050506040513d6000823e601f3d908101601f191682016040526103509190810190611e44565b60008151811061037057634e487b7160e01b600052603260045260246000fd5b60200260200101519350505b6103ac6040518060400160405280600e81526020016d32bc32b1baba34b7b72a3cb8329d60911b81525083610e35565b604080518082018252600f81526e3a37b5b2b718103130b630b731b29d60891b602082015290516370a0823160e01b815230600482015261045291906001600160a01b038816906370a082319060240160206040518083038186803b15801561041457600080fd5b505afa158015610428573d6000803e3d6000fd5b505050506040513d601f19601f8201168201806040525081019061044c9190611f10565b87610e7e565b604080518082018252600f81526e3a37b5b2b718903130b630b731b29d60891b602082015290516370a0823160e01b81523060048201526104f891906001600160a01b038716906370a08231906024015b60206040518083038186803b1580156104bb57600080fd5b505afa1580156104cf573d6000803e3d6000fd5b505050506040513d601f19601f820116820180604052508101906104f39190611f10565b610e35565b6105266040518060400160405280600c81526020016b3a37b5b2b72137b93937bb9d60a11b8152508a610eca565b6105536040518060400160405280600b81526020016a3a37b5b2b72932b830bc9d60a91b81525089610eca565b6105826040518060400160405280600d81526020016c3137b93937bba0b6b7bab73a1d60991b81525088610e35565b6105a8604051806040016040528060048152602001633332b29d60e11b81525082610e35565b6105d86040518060400160405280600e81526020016d30b6b7bab73a2a37a932b830bc9d60911b81525084610e35565b60015460405163e6a4390560e01b81526001600160a01b03878116600483015286811660248301529091169063e6a439059060440160206040518083038186803b15801561062557600080fd5b505afa158015610639573d6000803e3d6000fd5b505050506040513d601f19601f8201168201806040525081019061065d9190611bc0565b600380546001600160a01b0319166001600160a01b0392909216918217905533146106be5760405162461bcd60e51b815260206004820152600c60248201526b155b985d5d1a1bdc9a5e995960a21b60448201526064015b60405180910390fd5b600082876040516020016106d3929190612111565b60405160208183030381529060405290506106ed81610f0f565b5060408051808201825260138152723a37b5b2b72932b830bc903130b630b731b29d60691b602082015290516370a0823160e01b815230600482015261074791906001600160a01b038c16906370a08231906024016104a3565b60035460405163a9059cbb60e01b81526001600160a01b03918216600482015260248101869052908a169063a9059cbb90604401602060405180830381600087803b15801561079557600080fd5b505af11580156107a9573d6000803e3d6000fd5b505050506040513d601f19601f820116820180604052508101906107cd9190611ef0565b506002546040516370a0823160e01b81523060048201526000916001600160a01b0316906370a082319060240160206040518083038186803b15801561081257600080fd5b505afa158015610826573d6000803e3d6000fd5b505050506040513d601f19601f8201168201806040525081019061084a9190611f10565b1115610a12576002546040516370a0823160e01b81523060048201526001600160a01b0390911690632e1a7d4d9082906370a082319060240160206040518083038186803b15801561089b57600080fd5b505afa1580156108af573d6000803e3d6000fd5b505050506040513d601f19601f820116820180604052508101906108d39190611f10565b6040518263ffffffff1660e01b81526004016108f191815260200190565b600060405180830381600087803b15801561090b57600080fd5b505af115801561091f573d6000803e3d6000fd5b505050508e6001600160a01b0316600260009054906101000a90046001600160a01b03166001600160a01b03166370a08231306040518263ffffffff1660e01b815260040161097d91906001600160a01b0391909116815260200190565b60206040518083038186803b15801561099557600080fd5b505afa1580156109a9573d6000803e3d6000fd5b505050506040513d601f19601f820116820180604052508101906109cd9190611f10565b604051600081818185875af1925050503d8060008114610a09576040519150601f19603f3d011682016040523d82523d6000602084013e610a0e565b606091505b5050505b6040516370a0823160e01b81523060048201526000906001600160a01b038b16906370a082319060240160206040518083038186803b158015610a5457600080fd5b505afa158015610a68573d6000803e3d6000fd5b505050506040513d601f19601f82011682018060405250810190610a8c9190611f10565b1115610b93576040516370a0823160e01b81523060048201526001600160a01b038a169063a9059cbb90339083906370a082319060240160206040518083038186803b158015610adb57600080fd5b505afa158015610aef573d6000803e3d6000fd5b505050506040513d601f19601f82011682018060405250810190610b139190611f10565b6040516001600160e01b031960e085901b1681526001600160a01b0390921660048301526024820152604401602060405180830381600087803b158015610b5957600080fd5b505af1158015610b6d573d6000803e3d6000fd5b505050506040513d601f19601f82011682018060405250810190610b919190611ef0565b505b6040516370a0823160e01b81523060048201526000906001600160a01b038c16906370a082319060240160206040518083038186803b158015610bd557600080fd5b505afa158015610be9573d6000803e3d6000fd5b505050506040513d601f19601f82011682018060405250810190610c0d9190611f10565b1115610d14576040516370a0823160e01b81523060048201526001600160a01b038b169063a9059cbb90339083906370a082319060240160206040518083038186803b158015610c5c57600080fd5b505afa158015610c70573d6000803e3d6000fd5b505050506040513d601f19601f82011682018060405250810190610c949190611f10565b6040516001600160e01b031960e085901b1681526001600160a01b0390921660048301526024820152604401602060405180830381600087803b158015610cda57600080fd5b505af1158015610cee573d6000803e3d6000fd5b505050506040513d601f19601f82011682018060405250810190610d129190611ef0565b505b505050505050505050505050505050565b600260009054906101000a90046001600160a01b03166001600160a01b031663d0e30db0346040518263ffffffff1660e01b81526004016000604051808303818588803b158015610d7557600080fd5b505af1158015610d89573d6000803e3d6000fd5b5050505050610dd2878787878787878080601f016020809104026020016040519081016040528093929190818152602001838380828437600092019190915250610f6192505050565b5050505050505050565b610e1f81604051602401610df0919061205e565b60408051601f198184030181529190526020810180516001600160e01b031663104c13eb60e21b1790526113d4565b50565b6000610e2e82846121bb565b9392505050565b610e7a8282604051602401610e4b92919061209b565b60408051601f198184030181529190526020810180516001600160e01b03166309710a9d60e41b1790526113d4565b5050565b610ec5838383604051602401610e96939291906120bd565b60408051601f198184030181529190526020810180516001600160e01b031663e3849f7960e01b1790526113d4565b505050565b610e7a8282604051602401610ee0929190612071565b60408051601f198184030181529190526020810180516001600160e01b031663319af33360e01b1790526113d4565b600080600083806020019051810190610f289190611f28565b915091508160001415610f4557610f3e816113f5565b9250610f5a565b8160011415610f5a57610f57816118ac565b92505b5050919050565b600254600090600160a01b900460ff1615610fb25760405162461bcd60e51b815260206004820152601160248201527020a62922a0a22c902627a1a5a2a217171760791b60448201526064016106b5565b506002805460ff60a01b1916600160a01b179055600080546001600160a01b0388166001600160a01b0319909116811782556040805163c45a015560e01b8152905189929163c45a0155916004808301926020929190829003018186803b15801561101c57600080fd5b505afa158015611030573d6000803e3d6000fd5b505050506040513d601f19601f820116820180604052508101906110549190611bc0565b600180546001600160a01b039283166001600160a01b03199182161790915560038054928a16929091168217905560408051630dfe168160e01b8152905160009291630dfe1681916004808301926020929190829003018186803b1580156110bb57600080fd5b505afa1580156110cf573d6000803e3d6000fd5b505050506040513d601f19601f820116820180604052508101906110f39190611bc0565b90506000886001600160a01b031663d21220a76040518163ffffffff1660e01b815260040160206040518083038186803b15801561113057600080fd5b505afa158015611144573d6000803e3d6000fd5b505050506040513d601f19601f820116820180604052508101906111689190611bc0565b90506000826001600160a01b0316896001600160a01b03161461118b578261118d565b815b60015460405163e6a4390560e01b81526001600160a01b038c8116600483015280841660248301529293506000929091169063e6a439059060440160206040518083038186803b1580156111e057600080fd5b505afa1580156111f4573d6000803e3d6000fd5b505050506040513d601f19601f820116820180604052508101906112189190611bc0565b90506001600160a01b0381166112585760405162461bcd60e51b815260206004820152600560248201526410b830b4b960d91b60448201526064016106b5565b6000846001600160a01b03168b6001600160a01b03161461127a57600061127c565b885b90506000846001600160a01b03168c6001600160a01b0316146112a05760006112a2565b895b905060008c8c8c8c6040516020016112bd9493929190612021565b60408051808303601f190181529082905263095ea7b360e01b82526001600160a01b038681166004840152602483018e90529092508e169063095ea7b390604401602060405180830381600087803b15801561131857600080fd5b505af115801561132c573d6000803e3d6000fd5b505050506040513d601f19601f820116820180604052508101906113509190611ef0565b5060405163022c0d9f60e01b81526001600160a01b0385169063022c0d9f9061138390869086903090879060040161212a565b600060405180830381600087803b15801561139d57600080fd5b505af11580156113b1573d6000803e3d6000fd5b5050505050505050505050506002805460ff60a01b191690559695505050505050565b80516a636f6e736f6c652e6c6f67602083016000808483855afa5050505050565b6000806000806000858060200190518101906114119190611c46565b9350935093509350816001600160a01b0316836001600160a01b031614156114875760405162461bcd60e51b8152602060048201526024808201527f43616e206e6f742067657420706169722077697468206f6e6c79206f6e65207460448201526337b5b2b760e11b60648201526084016106b5565b60408051600280825260608201835260009260208301908036833701905050905083816000815181106114ca57634e487b7160e01b600052603260045260246000fd5b60200260200101906001600160a01b031690816001600160a01b031681525050828160018151811061150c57634e487b7160e01b600052603260045260246000fd5b6001600160a01b039092166020928302919091019091015260006115314260786121bb565b90506000866001600160a01b031663d06ca61f85856040518363ffffffff1660e01b81526004016115639291906120f0565b60006040518083038186803b15801561157b57600080fd5b505afa15801561158f573d6000803e3d6000fd5b505050506040513d6000823e601f3d908101601f191682016040526115b79190810190611e44565b6040516370a0823160e01b815230600482015290915084906001600160a01b038816906370a082319060240160206040518083038186803b1580156115fb57600080fd5b505afa15801561160f573d6000803e3d6000fd5b505050506040513d601f19601f820116820180604052508101906116339190611f10565b11156116b3576040516370a0823160e01b81523060048201526001600160a01b038716906370a082319060240160206040518083038186803b15801561167857600080fd5b505afa15801561168c573d6000803e3d6000fd5b505050506040513d601f19601f820116820180604052508101906116b09190611f10565b93505b600060c8826001815181106116d857634e487b7160e01b600052603260045260246000fd5b60200260200101516116ea91906121d3565b8260018151811061170b57634e487b7160e01b600052603260045260246000fd5b602002602001015161171d9190612212565b60405163095ea7b360e01b81526001600160a01b038a81166004830152602482018890529192509088169063095ea7b390604401602060405180830381600087803b15801561176b57600080fd5b505af115801561177f573d6000803e3d6000fd5b505050506040513d601f19601f820116820180604052508101906117a39190611ef0565b506040516338ed173960e01b81526001600160a01b038916906338ed1739906117d89088908590899030908a90600401612157565b600060405180830381600087803b1580156117f257600080fd5b505af192505050801561182757506040513d6000823e601f3d908101601f191682016040526118249190810190611e44565b60015b611899576118336122b2565b806308c379a0141561185d57506118486122ca565b80611853575061185f565b600099505061189f565b505b3d808015611889576040519150601f19603f3d011682016040523d82523d6000602084013e61188e565b606091505b50600099505061189f565b50600198505b5050505050505050919050565b600080600080600080868060200190518101906118c99190611bdc565b94509450945094509450600160009054906101000a90046001600160a01b03166001600160a01b0316856001600160a01b031663c45a01556040518163ffffffff1660e01b815260040160206040518083038186803b15801561192b57600080fd5b505afa15801561193f573d6000803e3d6000fd5b505050506040513d601f19601f820116820180604052508101906119639190611bc0565b6001600160a01b031614156119ca5760405162461bcd60e51b815260206004820152602760248201527f43616e206e6f742073776170206f6e2074686520466c61736820537761702045604482015266786368616e676560c81b60648201526084016106b5565b604080516001600160a01b038781166020830152858116828401528416606082015260808082018490528251808303909101815260a0909101909152611a0f816113f5565b611a5b5760405162461bcd60e51b815260206004820152601760248201527f4669727374207377617020756e7375636365737366756c00000000000000000060448201526064016106b5565b6040516370a0823160e01b81523060048201526000906001600160a01b038516906370a082319060240160206040518083038186803b158015611a9d57600080fd5b505afa158015611ab1573d6000803e3d6000fd5b505050506040513d601f19601f82011682018060405250810190611ad59190611f10565b604080516001600160a01b038981166020830152878116828401528816606082015260808082018490528251808303909101815260a0909101909152909150611b1d816113f5565b611b695760405162461bcd60e51b815260206004820152601860248201527f5365636f6e64207377617020756e7375636365737366756c000000000000000060448201526064016106b5565b5060019998505050505050505050565b60008083601f840112611b8a578182fd5b50813567ffffffffffffffff811115611ba1578182fd5b602083019150836020828501011115611bb957600080fd5b9250929050565b600060208284031215611bd1578081fd5b8151610e2e81612354565b600080600080600060a08688031215611bf3578081fd5b8551611bfe81612354565b6020870151909550611c0f81612354565b6040870151909450611c2081612354565b6060870151909350611c3181612354565b80925050608086015190509295509295909350565b60008060008060808587031215611c5b578384fd5b8451611c6681612354565b6020860151909450611c7781612354565b6040860151909350611c8881612354565b6060959095015193969295505050565b60008060008060808587031215611cad578384fd5b8435611cb881612354565b93506020850135611cc881612354565b925060408501359150606085013567ffffffffffffffff811115611cea578182fd5b8501601f81018713611cfa578182fd5b8035611d0581612193565b604051611d128282612259565b828152896020848601011115611d26578485fd5b826020850160208301379182016020019390935294979396509194505050565b600080600080600080600060c0888a031215611d60578182fd5b8735611d6b81612354565b96506020880135611d7b81612354565b95506040880135611d8b81612354565b94506060880135611d9b81612354565b93506080880135925060a088013567ffffffffffffffff811115611dbd578283fd5b611dc98a828b01611b79565b989b979a50959850939692959293505050565b600080600080600060808688031215611df3578081fd5b8535611dfe81612354565b94506020860135935060408601359250606086013567ffffffffffffffff811115611e27578182fd5b611e3388828901611b79565b969995985093965092949392505050565b60006020808385031215611e56578182fd5b825167ffffffffffffffff80821115611e6d578384fd5b818501915085601f830112611e80578384fd5b815181811115611e9257611e9261229c565b8060051b9150604051611ea785840182612259565b81815284810184860184860187018a1015611ec0578788fd5b8795505b83861015611ee2578051825260019590950194908601908601611ec4565b509098975050505050505050565b600060208284031215611f01578081fd5b81518015158114610e2e578182fd5b600060208284031215611f21578081fd5b5051919050565b60008060408385031215611f3a578182fd5b82519150602083015167ffffffffffffffff811115611f57578182fd5b8301601f81018513611f67578182fd5b8051611f7281612193565b604051611f7f8282612259565b828152876020848601011115611f93578485fd5b611fa4836020830160208701612229565b809450505050509250929050565b6000815180845260208085019450808401835b83811015611fea5781516001600160a01b031687529582019590820190600101611fc5565b509495945050505050565b6000815180845261200d816020860160208601612229565b601f01601f19169290920160200192915050565b6001600160a01b038581168252841660208201526040810183905260806060820181905260009061205490830184611ff5565b9695505050505050565b602081526000610e2e6020830184611ff5565b6040815260006120846040830185611ff5565b905060018060a01b03831660208301529392505050565b6040815260006120ae6040830185611ff5565b90508260208301529392505050565b6060815260006120d06060830186611ff5565b6020830194909452506001600160a01b0391909116604090910152919050565b8281526040602082015260006121096040830184611fb2565b949350505050565b8281526040602082015260006121096040830184611ff5565b84815283602082015260018060a01b03831660408201526080606082015260006120546080830184611ff5565b85815284602082015260a06040820152600061217660a0830186611fb2565b6001600160a01b0394909416606083015250608001529392505050565b600067ffffffffffffffff8211156121ad576121ad61229c565b50601f01601f191660200190565b600082198211156121ce576121ce612286565b500190565b6000826121ee57634e487b7160e01b81526012600452602481fd5b500490565b600081600019048311821515161561220d5761220d612286565b500290565b60008282101561222457612224612286565b500390565b60005b8381101561224457818101518382015260200161222c565b83811115612253576000848401525b50505050565b601f8201601f1916810167ffffffffffffffff8111828210171561227f5761227f61229c565b6040525050565b634e487b7160e01b600052601160045260246000fd5b634e487b7160e01b600052604160045260246000fd5b600060033d11156122c757600481823e5160e01c5b90565b600060443d10156122d85790565b6040516003193d81016004833e81513d67ffffffffffffffff816024840111818411171561230857505050505090565b82850191508151818111156123205750505050505090565b843d870101602082850101111561233a5750505050505090565b61234960208286010187612259565b509095945050505050565b6001600160a01b0381168114610e1f57600080fdfea2646970667358221220162ecfce15d6087dc7d0a7185f472b6ba5dc31e020a9c8515b3b4d42dca21c5264736f6c63430008040033",
  "linkReferences": {},
  "deployedLinkReferences": {}
}