{
  "_format": "hh-sol-artifact-1",
  "contractName": "TestFraktalSwapper",
  "sourceName": "contracts/TestFraktalSwapper.sol",
  "abi": [
    {
      "inputs": [
        {
          "internalType": "address",
          "name": "_weth",
          "type": "address"
        }
      ],
      "stateMutability": "payable",
      "type": "constructor"
    },
    {
      "anonymous": false,
      "inputs": [
        {
          "indexed": false,
          "internalType": "string",
          "name": "content",
          "type": "string"
        }
      ],
      "name": "Log",
      "type": "event"
    },
    {
      "anonymous": false,
      "inputs": [
        {
          "indexed": false,
          "internalType": "string",
          "name": "label",
          "type": "string"
        },
        {
          "indexed": false,
          "internalType": "string",
          "name": "content",
          "type": "string"
        }
      ],
      "name": "Log",
      "type": "event"
    },
    {
      "anonymous": false,
      "inputs": [
        {
          "indexed": false,
          "internalType": "string",
          "name": "label",
          "type": "string"
        },
        {
          "indexed": false,
          "internalType": "bytes",
          "name": "_bytes",
          "type": "bytes"
        }
      ],
      "name": "LogBytes",
      "type": "event"
    },
    {
      "anonymous": false,
      "inputs": [
        {
          "indexed": false,
          "internalType": "string",
          "name": "label",
          "type": "string"
        },
        {
          "indexed": false,
          "internalType": "uint256",
          "name": "num",
          "type": "uint256"
        }
      ],
      "name": "LogInt",
      "type": "event"
    },
    {
      "inputs": [
        {
          "internalType": "address",
          "name": "_flashSwapRouter",
          "type": "address"
        },
        {
          "internalType": "address",
          "name": "_pairAddress",
          "type": "address"
        },
        {
          "internalType": "address",
          "name": "_tokenBorrow",
          "type": "address"
        },
        {
          "internalType": "address",
          "name": "_tokenPay",
          "type": "address"
        },
        {
          "internalType": "uint256",
          "name": "_amount",
          "type": "uint256"
        },
        {
          "internalType": "bytes",
          "name": "_flashData",
          "type": "bytes"
        }
      ],
      "name": "startFlashSwap",
      "outputs": [],
      "stateMutability": "payable",
      "type": "function"
    },
    {
      "inputs": [
        {
          "internalType": "address",
          "name": "_sender",
          "type": "address"
        },
        {
          "internalType": "uint256",
          "name": "_amount0",
          "type": "uint256"
        },
        {
          "internalType": "uint256",
          "name": "_amount1",
          "type": "uint256"
        },
        {
          "internalType": "bytes",
          "name": "_data",
          "type": "bytes"
        }
      ],
      "name": "uniswapV2Call",
      "outputs": [],
      "stateMutability": "nonpayable",
      "type": "function"
    },
    {
      "stateMutability": "payable",
      "type": "receive"
    }
  ],
  "bytecode": "0x608060405260405162002dcb38038062002dcb833981016040819052620000269162000055565b600280546001600160a01b039092166001600160a01b0319928316179055600580549091163317905562000085565b60006020828403121562000067578081fd5b81516001600160a01b03811681146200007e578182fd5b9392505050565b612d3680620000956000396000f3fe60806040526004361061002d5760003560e01c806310d1e85c14610039578063943f5e391461005b57600080fd5b3661003457005b600080fd5b34801561004557600080fd5b506100596100543660046126fb565b61006e565b005b610059610069366004612665565b610d25565b6100a060405180604001604052806011815260200170554e49535741502056322043414c4c454560781b815250610f3c565b60008080806100b1858701876125b7565b93509350935093506000336001600160a01b0316630dfe16816040518163ffffffff1660e01b815260040160206040518083038186803b1580156100f457600080fd5b505afa158015610108573d6000803e3d6000fd5b505050506040513d601f19601f8201168201806040525081019061012c91906124df565b90506000336001600160a01b031663d21220a76040518163ffffffff1660e01b815260040160206040518083038186803b15801561016957600080fd5b505afa15801561017d573d6000803e3d6000fd5b505050506040513d601f19601f820116820180604052508101906101a191906124df565b90506000806000876001600160a01b0316896001600160a01b031614156101cb57600191506101d0565b600091505b816001141561020f576103e56101e7886003612b40565b6101f19190612b20565b6101fc906001612b08565b90506102088782610f82565b925061037c565b604080516002808252606082018352600092602083019080368337019050509050856001600160a01b03168a6001600160a01b031614156102505784610252565b855b8160008151811061027357634e487b7160e01b600052603260045260246000fd5b6001600160a01b0392831660209182029290920101528a81169087161461029a578461029c565b855b816001815181106102bd57634e487b7160e01b600052603260045260246000fd5b6001600160a01b0392831660209182029290920101526000546040516307c0329d60e21b8152911690631f00ca74906102fc908b908590600401612a3d565b60006040518083038186803b15801561031457600080fd5b505afa158015610328573d6000803e3d6000fd5b505050506040513d6000823e601f3d908101601f191682016040526103509190810190612763565b60008151811061037057634e487b7160e01b600052603260045260246000fd5b60200260200101519350505b6103ac6040518060400160405280600e81526020016d32bc32b1baba34b7b72a3cb8329d60911b81525083610f95565b604080518082018252600f81526e3a37b5b2b718103130b630b731b29d60891b602082015290516370a0823160e01b815230600482015261045291906001600160a01b038816906370a082319060240160206040518083038186803b15801561041457600080fd5b505afa158015610428573d6000803e3d6000fd5b505050506040513d601f19601f8201168201806040525081019061044c919061282f565b87610fde565b604080518082018252600f81526e3a37b5b2b718903130b630b731b29d60891b602082015290516370a0823160e01b81523060048201526104f891906001600160a01b038716906370a08231906024015b60206040518083038186803b1580156104bb57600080fd5b505afa1580156104cf573d6000803e3d6000fd5b505050506040513d601f19601f820116820180604052508101906104f3919061282f565b610f95565b6105266040518060400160405280600c81526020016b3a37b5b2b72137b93937bb9d60a11b8152508a61102a565b6105536040518060400160405280600b81526020016a3a37b5b2b72932b830bc9d60a91b8152508961102a565b6105826040518060400160405280600d81526020016c3137b93937bba0b6b7bab73a1d60991b81525088610f95565b6105a8604051806040016040528060048152602001633332b29d60e11b81525082610f95565b6105d86040518060400160405280600e81526020016d30b6b7bab73a2a37a932b830bc9d60911b81525084610f95565b60015460405163e6a4390560e01b81526001600160a01b03878116600483015286811660248301529091169063e6a439059060440160206040518083038186803b15801561062557600080fd5b505afa158015610639573d6000803e3d6000fd5b505050506040513d601f19601f8201168201806040525081019061065d91906124df565b600380546001600160a01b0319166001600160a01b0392909216918217905533146106be5760405162461bcd60e51b815260206004820152600c60248201526b155b985d5d1a1bdc9a5e995960a21b60448201526064015b60405180910390fd5b600082876040516020016106d3929190612a5e565b60405160208183030381529060405290506106ed8161106f565b5060408051808201825260138152723a37b5b2b72932b830bc903130b630b731b29d60691b602082015290516370a0823160e01b815230600482015261074791906001600160a01b038c16906370a08231906024016104a3565b60035460405163a9059cbb60e01b81526001600160a01b03918216600482015260248101869052908a169063a9059cbb90604401602060405180830381600087803b15801561079557600080fd5b505af11580156107a9573d6000803e3d6000fd5b505050506040513d601f19601f820116820180604052508101906107cd919061280f565b506002546040516370a0823160e01b81523060048201526000916001600160a01b0316906370a082319060240160206040518083038186803b15801561081257600080fd5b505afa158015610826573d6000803e3d6000fd5b505050506040513d601f19601f8201168201806040525081019061084a919061282f565b1115610a12576002546040516370a0823160e01b81523060048201526001600160a01b0390911690632e1a7d4d9082906370a082319060240160206040518083038186803b15801561089b57600080fd5b505afa1580156108af573d6000803e3d6000fd5b505050506040513d601f19601f820116820180604052508101906108d3919061282f565b6040518263ffffffff1660e01b81526004016108f191815260200190565b600060405180830381600087803b15801561090b57600080fd5b505af115801561091f573d6000803e3d6000fd5b505050508e6001600160a01b0316600260009054906101000a90046001600160a01b03166001600160a01b03166370a08231306040518263ffffffff1660e01b815260040161097d91906001600160a01b0391909116815260200190565b60206040518083038186803b15801561099557600080fd5b505afa1580156109a9573d6000803e3d6000fd5b505050506040513d601f19601f820116820180604052508101906109cd919061282f565b604051600081818185875af1925050503d8060008114610a09576040519150601f19603f3d011682016040523d82523d6000602084013e610a0e565b606091505b5050505b6040516370a0823160e01b81523060048201526000906001600160a01b038b16906370a082319060240160206040518083038186803b158015610a5457600080fd5b505afa158015610a68573d6000803e3d6000fd5b505050506040513d601f19601f82011682018060405250810190610a8c919061282f565b1115610b93576040516370a0823160e01b81523060048201526001600160a01b038a169063a9059cbb90339083906370a082319060240160206040518083038186803b158015610adb57600080fd5b505afa158015610aef573d6000803e3d6000fd5b505050506040513d601f19601f82011682018060405250810190610b13919061282f565b6040516001600160e01b031960e085901b1681526001600160a01b0390921660048301526024820152604401602060405180830381600087803b158015610b5957600080fd5b505af1158015610b6d573d6000803e3d6000fd5b505050506040513d601f19601f82011682018060405250810190610b91919061280f565b505b6040516370a0823160e01b81523060048201526000906001600160a01b038c16906370a082319060240160206040518083038186803b158015610bd557600080fd5b505afa158015610be9573d6000803e3d6000fd5b505050506040513d601f19601f82011682018060405250810190610c0d919061282f565b1115610d14576040516370a0823160e01b81523060048201526001600160a01b038b169063a9059cbb90339083906370a082319060240160206040518083038186803b158015610c5c57600080fd5b505afa158015610c70573d6000803e3d6000fd5b505050506040513d601f19601f82011682018060405250810190610c94919061282f565b6040516001600160e01b031960e085901b1681526001600160a01b0390921660048301526024820152604401602060405180830381600087803b158015610cda57600080fd5b505af1158015610cee573d6000803e3d6000fd5b505050506040513d601f19601f82011682018060405250810190610d12919061280f565b505b505050505050505050505050505050565b600260009054906101000a90046001600160a01b03166001600160a01b031663d0e30db0346040518263ffffffff1660e01b81526004016000604051808303818588803b158015610d7557600080fd5b505af1158015610d89573d6000803e3d6000fd5b5050505050610dcd6040518060400160405280601d81526020017f47415320544f4b454e2042414c414e43452028434f4e5452414354293a00000081525047610f95565b60408051808201909152601b81527f47415320544f4b454e2042414c414e4345202853454e444552293a00000000006020820152610e0c903331610f95565b604080518082018252601881527f574554482042414c414e43452028434f4e5452414354293a0000000000000000602082015260025491516370a0823160e01b8152306004820152610e70926001600160a01b0316906370a08231906024016104a3565b60408051808201825260168152752ba2aa24102120a620a721a2901429a2a72222a9149d60511b602082015260025491516370a0823160e01b8152336004820152610ecd926001600160a01b0316906370a08231906024016104a3565b610eee604051806060016040528060228152602001612cdf60229139610f3c565b610f32878787878787878080601f01602080910402602001604051908101604052809392919081815260200183838082843760009201919091525061112b92505050565b5050505050505050565b610f7f81604051602401610f50919061297d565b60408051601f198184030181529190526020810180516001600160e01b031663104c13eb60e21b17905261159e565b50565b6000610f8e8284612b08565b9392505050565b610fda8282604051602401610fab9291906129e8565b60408051601f198184030181529190526020810180516001600160e01b03166309710a9d60e41b17905261159e565b5050565b611025838383604051602401610ff693929190612a0a565b60408051601f198184030181529190526020810180516001600160e01b031663e3849f7960e01b17905261159e565b505050565b610fda8282604051602401611040929190612990565b60408051601f198184030181529190526020810180516001600160e01b031663319af33360e01b17905261159e565b60006110af6040518060400160405280601981526020017f6d6574686f643a2065786563757465205b737461727465645d00000000000000815250610f3c565b600080838060200190518101906110c69190612847565b915091506110fa6040518060400160405280600e81526020016d32bc32b1baba34b7b72a3cb8329d60911b81525083610f95565b8161110f57611108816115bf565b9250611124565b81600114156111245761112181612164565b92505b5050919050565b600254600090600160a01b900460ff161561117c5760405162461bcd60e51b815260206004820152601160248201527020a62922a0a22c902627a1a5a2a217171760791b60448201526064016106b5565b506002805460ff60a01b1916600160a01b179055600080546001600160a01b0388166001600160a01b0319909116811782556040805163c45a015560e01b8152905189929163c45a0155916004808301926020929190829003018186803b1580156111e657600080fd5b505afa1580156111fa573d6000803e3d6000fd5b505050506040513d601f19601f8201168201806040525081019061121e91906124df565b600180546001600160a01b039283166001600160a01b03199182161790915560038054928a16929091168217905560408051630dfe168160e01b8152905160009291630dfe1681916004808301926020929190829003018186803b15801561128557600080fd5b505afa158015611299573d6000803e3d6000fd5b505050506040513d601f19601f820116820180604052508101906112bd91906124df565b90506000886001600160a01b031663d21220a76040518163ffffffff1660e01b815260040160206040518083038186803b1580156112fa57600080fd5b505afa15801561130e573d6000803e3d6000fd5b505050506040513d601f19601f8201168201806040525081019061133291906124df565b90506000826001600160a01b0316896001600160a01b0316146113555782611357565b815b60015460405163e6a4390560e01b81526001600160a01b038c8116600483015280841660248301529293506000929091169063e6a439059060440160206040518083038186803b1580156113aa57600080fd5b505afa1580156113be573d6000803e3d6000fd5b505050506040513d601f19601f820116820180604052508101906113e291906124df565b90506001600160a01b0381166114225760405162461bcd60e51b815260206004820152600560248201526410b830b4b960d91b60448201526064016106b5565b6000846001600160a01b03168b6001600160a01b031614611444576000611446565b885b90506000846001600160a01b03168c6001600160a01b03161461146a57600061146c565b895b905060008c8c8c8c6040516020016114879493929190612940565b60408051808303601f190181529082905263095ea7b360e01b82526001600160a01b038681166004840152602483018e90529092508e169063095ea7b390604401602060405180830381600087803b1580156114e257600080fd5b505af11580156114f6573d6000803e3d6000fd5b505050506040513d601f19601f8201168201806040525081019061151a919061280f565b5060405163022c0d9f60e01b81526001600160a01b0385169063022c0d9f9061154d908690869030908790600401612a77565b600060405180830381600087803b15801561156757600080fd5b505af115801561157b573d6000803e3d6000fd5b5050505050505050505050506002805460ff60a01b191690559695505050505050565b80516a636f6e736f6c652e6c6f67602083016000808483855afa5050505050565b60006115ff6040518060400160405280601f81526020017f6d6574686f643a206578656375746553776170205b2073746172746564205d00815250610f3c565b600080600080858060200190518101906116199190612565565b935093509350935061164f6040518060400160405280600c81526020016b3d3d20524f55544552203d3d60a01b8152508561102a565b61167f6040518060400160405280600e81526020016d3d3d20544f4b454e20494e203d3d60901b8152508461102a565b6116b06040518060400160405280600f81526020016e3d3d20544f4b454e204f5554203d3d60881b8152508361102a565b6116dd6040518060400160405280600b81526020016a3d3d20414d4f5554203d3d60a81b81525082610f95565b816001600160a01b0316836001600160a01b0316141561174b5760405162461bcd60e51b8152602060048201526024808201527f43616e206e6f742067657420706169722077697468206f6e6c79206f6e65207460448201526337b5b2b760e11b60648201526084016106b5565b604080516002808252606082018352600092602083019080368337019050509050838160008151811061178e57634e487b7160e01b600052603260045260246000fd5b60200260200101906001600160a01b031690816001600160a01b03168152505082816001815181106117d057634e487b7160e01b600052603260045260246000fd5b6001600160a01b039092166020928302919091019091015260006117f5426078612b08565b9050611820604051806040016040528060078152602001662fb937baba32b960c91b8152508761102a565b61184a604051806040016040528060088152602001672fba37b5b2b724b760c11b8152508661102a565b6118756040518060400160405280600981526020016817dd1bdad95b93dd5d60ba1b8152508561102a565b60405163d06ca61f60e01b81526000906001600160a01b0388169063d06ca61f906118a69087908790600401612a3d565b60006040518083038186803b1580156118be57600080fd5b505afa1580156118d2573d6000803e3d6000fd5b505050506040513d6000823e601f3d908101601f191682016040526118fa9190810190612763565b6040516370a0823160e01b815230600482015290915084906001600160a01b038816906370a082319060240160206040518083038186803b15801561193e57600080fd5b505afa158015611952573d6000803e3d6000fd5b505050506040513d601f19601f82011682018060405250810190611976919061282f565b11156119f6576040516370a0823160e01b81523060048201526001600160a01b038716906370a082319060240160206040518083038186803b1580156119bb57600080fd5b505afa1580156119cf573d6000803e3d6000fd5b505050506040513d601f19601f820116820180604052508101906119f3919061282f565b93505b600060c882600181518110611a1b57634e487b7160e01b600052603260045260246000fd5b6020026020010151611a2d9190612b20565b82600181518110611a4e57634e487b7160e01b600052603260045260246000fd5b6020026020010151611a609190612b5f565b60405163095ea7b360e01b81526001600160a01b038a81166004830152602482018890529192509088169063095ea7b390604401602060405180830381600087803b158015611aae57600080fd5b505af1158015611ac2573d6000803e3d6000fd5b505050506040513d601f19601f82011682018060405250810190611ae6919061280f565b506040516338ed173960e01b81526001600160a01b038916906338ed173990611b1b9088908590899030908a90600401612aa4565b600060405180830381600087803b158015611b3557600080fd5b505af1925050508015611b6a57506040513d6000823e601f3d908101601f19168201604052611b679190810190612763565b60015b611ed057611b76612bff565b806308c379a01415611e715750611b8b612c17565b80611b965750611e73565b60009950611bc3604051806040016040528060078152602001662922a0a9a7a71d60c91b81525082612453565b611bfd604051806040016040528060198152602001782b2b2b2b2b2b2b2b2b2b2b2b2b2b2b2b2b2b2b2b2b2b2b2b2b60381b815250610f3c565b60408051808201825260208082527f544f4b454e20424f52524f572042414c414e43452028434f4e5452414354293a9082015290516370a0823160e01b8152306004820152611cb291906001600160a01b038b16906370a08231906024015b60206040518083038186803b158015611c7457600080fd5b505afa158015611c88573d6000803e3d6000fd5b505050506040513d601f19601f82011682018060405250810190611cac919061282f565b8a610fde565b604080518082018252601e81527f544f4b454e20424f52524f572042414c414e4345202853454e444552293a0000602082015290516370a0823160e01b8152306004820152611d1591906001600160a01b038b16906370a0823190602401611c5c565b604080518082018252601c81527f544f4b454e205041592042414c414e43452028434f4e54524143543a00000000602082015290516370a0823160e01b8152336004820152611dca91906001600160a01b038a16906370a08231906024015b60206040518083038186803b158015611d8c57600080fd5b505afa158015611da0573d6000803e3d6000fd5b505050506040513d601f19601f82011682018060405250810190611dc4919061282f565b89610fde565b604080518082018252601b81527f544f4b454e205041592042414c414e4345202853454e444552293a0000000000602082015290516370a0823160e01b8152336004820152611e2d91906001600160a01b038a16906370a0823190602401611d74565b611e6b6040518060400160405280601a81526020017f2b2b2b2b2b2b2b2b2b2b2b2b2b2b2b2b2b2b2b2b2b2b2b2b2b0a000000000000815250610f3c565b50612157565b505b3d808015611e9d576040519150601f19603f3d011682016040523d82523d6000602084013e611ea2565b606091505b5060009950611bc3604051806040016040528060078152602001662922a0a9a7a71d60c91b81525082612453565b5060019850611f0f604051806040016040528060198152602001782b2b2b2b2b2b2b2b2b2b2b2b2b2b2b2b2b2b2b2b2b2b2b2b2b60381b815250610f3c565b611f3f6040518060400160405280600f81526020016e14d5d0540814d550d0d154d4d19553608a1b815250610f3c565b60408051808201825260208082527f544f4b454e20424f52524f572042414c414e43452028434f4e5452414354293a9082015290516370a0823160e01b8152306004820152611fa291906001600160a01b038a16906370a0823190602401611d74565b604080518082018252601e81527f544f4b454e20424f52524f572042414c414e4345202853454e444552293a0000602082015290516370a0823160e01b815230600482015261200591906001600160a01b038a16906370a0823190602401611d74565b604080518082018252601c81527f544f4b454e205041592042414c414e43452028434f4e54524143543a00000000602082015290516370a0823160e01b81523360048201526120ba91906001600160a01b038916906370a08231906024015b60206040518083038186803b15801561207c57600080fd5b505afa158015612090573d6000803e3d6000fd5b505050506040513d601f19601f820116820180604052508101906120b4919061282f565b88610fde565b604080518082018252601b81527f544f4b454e205041592042414c414e4345202853454e444552293a0000000000602082015290516370a0823160e01b815233600482015261211d91906001600160a01b038916906370a0823190602401612064565b612157604051806040016040528060198152602001782b2b2b2b2b2b2b2b2b2b2b2b2b2b2b2b2b2b2b2b2b2b2b2b2b60381b815250610f3c565b5050505050505050919050565b6000612187604051806060016040528060288152602001612cb760289139610f3c565b6000806000806000868060200190518101906121a391906124fb565b94509450945094509450600160009054906101000a90046001600160a01b03166001600160a01b0316856001600160a01b031663c45a01556040518163ffffffff1660e01b815260040160206040518083038186803b15801561220557600080fd5b505afa158015612219573d6000803e3d6000fd5b505050506040513d601f19601f8201168201806040525081019061223d91906124df565b6001600160a01b031614156122a45760405162461bcd60e51b815260206004820152602760248201527f43616e206e6f742073776170206f6e2074686520466c61736820537761702045604482015266786368616e676560c81b60648201526084016106b5565b604080516001600160a01b038781166020830152858116828401528416606082015260808082018490528251808303909101815260a09091019091526122e9816115bf565b6123355760405162461bcd60e51b815260206004820152601760248201527f4669727374207377617020756e7375636365737366756c00000000000000000060448201526064016106b5565b6040516370a0823160e01b81523060048201526000906001600160a01b038516906370a082319060240160206040518083038186803b15801561237757600080fd5b505afa15801561238b573d6000803e3d6000fd5b505050506040513d601f19601f820116820180604052508101906123af919061282f565b604080516001600160a01b038981166020830152878116828401528816606082015260808082018490528251808303909101815260a09091019091529091506123f7816115bf565b6124435760405162461bcd60e51b815260206004820152601860248201527f5365636f6e64207377617020756e7375636365737366756c000000000000000060448201526064016106b5565b5060019998505050505050505050565b610fda82826040516024016124699291906129ba565b60408051601f198184030181529190526020810180516001600160e01b0316634b5c427760e01b17905261159e565b60008083601f8401126124a9578182fd5b50813567ffffffffffffffff8111156124c0578182fd5b6020830191508360208285010111156124d857600080fd5b9250929050565b6000602082840312156124f0578081fd5b8151610f8e81612ca1565b600080600080600060a08688031215612512578081fd5b855161251d81612ca1565b602087015190955061252e81612ca1565b604087015190945061253f81612ca1565b606087015190935061255081612ca1565b80925050608086015190509295509295909350565b6000806000806080858703121561257a578384fd5b845161258581612ca1565b602086015190945061259681612ca1565b60408601519093506125a781612ca1565b6060959095015193969295505050565b600080600080608085870312156125cc578384fd5b84356125d781612ca1565b935060208501356125e781612ca1565b925060408501359150606085013567ffffffffffffffff811115612609578182fd5b8501601f81018713612619578182fd5b803561262481612ae0565b6040516126318282612ba6565b828152896020848601011115612645578485fd5b826020850160208301379182016020019390935294979396509194505050565b600080600080600080600060c0888a03121561267f578182fd5b873561268a81612ca1565b9650602088013561269a81612ca1565b955060408801356126aa81612ca1565b945060608801356126ba81612ca1565b93506080880135925060a088013567ffffffffffffffff8111156126dc578283fd5b6126e88a828b01612498565b989b979a50959850939692959293505050565b600080600080600060808688031215612712578081fd5b853561271d81612ca1565b94506020860135935060408601359250606086013567ffffffffffffffff811115612746578182fd5b61275288828901612498565b969995985093965092949392505050565b60006020808385031215612775578182fd5b825167ffffffffffffffff8082111561278c578384fd5b818501915085601f83011261279f578384fd5b8151818111156127b1576127b1612be9565b8060051b91506040516127c685840182612ba6565b81815284810184860184860187018a10156127df578788fd5b8795505b838610156128015780518252600195909501949086019086016127e3565b509098975050505050505050565b600060208284031215612820578081fd5b81518015158114610f8e578182fd5b600060208284031215612840578081fd5b5051919050565b60008060408385031215612859578182fd5b82519150602083015167ffffffffffffffff811115612876578182fd5b8301601f81018513612886578182fd5b805161289181612ae0565b60405161289e8282612ba6565b8281528760208486010111156128b2578485fd5b6128c3836020830160208701612b76565b809450505050509250929050565b6000815180845260208085019450808401835b838110156129095781516001600160a01b0316875295820195908201906001016128e4565b509495945050505050565b6000815180845261292c816020860160208601612b76565b601f01601f19169290920160200192915050565b6001600160a01b038581168252841660208201526040810183905260806060820181905260009061297390830184612914565b9695505050505050565b602081526000610f8e6020830184612914565b6040815260006129a36040830185612914565b905060018060a01b03831660208301529392505050565b6040815260006129cd6040830185612914565b82810360208401526129df8185612914565b95945050505050565b6040815260006129fb6040830185612914565b90508260208301529392505050565b606081526000612a1d6060830186612914565b6020830194909452506001600160a01b0391909116604090910152919050565b828152604060208201526000612a5660408301846128d1565b949350505050565b828152604060208201526000612a566040830184612914565b84815283602082015260018060a01b03831660408201526080606082015260006129736080830184612914565b85815284602082015260a060408201526000612ac360a08301866128d1565b6001600160a01b0394909416606083015250608001529392505050565b600067ffffffffffffffff821115612afa57612afa612be9565b50601f01601f191660200190565b60008219821115612b1b57612b1b612bd3565b500190565b600082612b3b57634e487b7160e01b81526012600452602481fd5b500490565b6000816000190483118215151615612b5a57612b5a612bd3565b500290565b600082821015612b7157612b71612bd3565b500390565b60005b83811015612b91578181015183820152602001612b79565b83811115612ba0576000848401525b50505050565b601f8201601f1916810167ffffffffffffffff81118282101715612bcc57612bcc612be9565b6040525050565b634e487b7160e01b600052601160045260246000fd5b634e487b7160e01b600052604160045260246000fd5b600060033d1115612c1457600481823e5160e01c5b90565b600060443d1015612c255790565b6040516003193d81016004833e81513d67ffffffffffffffff8160248401118184111715612c5557505050505090565b8285019150815181811115612c6d5750505050505090565b843d8701016020828501011115612c875750505050505090565b612c9660208286010187612ba6565b509095945050505050565b6001600160a01b0381168114610f7f57600080fdfe6d6574686f643a206578656375746541726269747261676553776170205b2073746172746564205d6d6574686f643a207374617274466c61736853776170205b2073746172746564205da2646970667358221220451a2b0dec67415a6891162ddd104bf276ec0f19847427e97d29f3a76d8ef78e64736f6c63430008040033",
  "linkReferences": {},
  "deployedLinkReferences": {}
}