{
  "_format": "hh-sol-artifact-1",
  "contractName": "DataStore",
  "sourceName": "contracts/DataStore.sol",
  "abi": [
    {
      "anonymous": false,
      "inputs": [
        {
          "indexed": true,
          "internalType": "uint256",
          "name": "_id",
          "type": "uint256"
        },
        {
          "indexed": false,
          "internalType": "string",
          "name": "_category",
          "type": "string"
        }
      ],
      "name": "AddedCategory",
      "type": "event"
    },
    {
      "anonymous": false,
      "inputs": [
        {
          "indexed": true,
          "internalType": "string",
          "name": "_name",
          "type": "string"
        },
        {
          "indexed": true,
          "internalType": "address",
          "name": "_address",
          "type": "address"
        },
        {
          "indexed": true,
          "internalType": "uint256",
          "name": "_networkId",
          "type": "uint256"
        },
        {
          "indexed": false,
          "internalType": "uint256",
          "name": "category",
          "type": "uint256"
        }
      ],
      "name": "AddedContract",
      "type": "event"
    },
    {
      "anonymous": false,
      "inputs": [
        {
          "indexed": true,
          "internalType": "string",
          "name": "symbol",
          "type": "string"
        },
        {
          "indexed": true,
          "internalType": "address",
          "name": "_address",
          "type": "address"
        },
        {
          "indexed": false,
          "internalType": "uint256",
          "name": "decimals",
          "type": "uint256"
        }
      ],
      "name": "AddedToken",
      "type": "event"
    },
    {
      "inputs": [
        {
          "internalType": "string",
          "name": "category",
          "type": "string"
        }
      ],
      "name": "addCategory",
      "outputs": [
        {
          "internalType": "bool",
          "name": "success",
          "type": "bool"
        }
      ],
      "stateMutability": "nonpayable",
      "type": "function"
    },
    {
      "inputs": [
        {
          "internalType": "string",
          "name": "_name",
          "type": "string"
        },
        {
          "internalType": "address",
          "name": "_address",
          "type": "address"
        },
        {
          "internalType": "uint256",
          "name": "_networkId",
          "type": "uint256"
        },
        {
          "internalType": "uint256",
          "name": "categoryId",
          "type": "uint256"
        }
      ],
      "name": "addContract",
      "outputs": [],
      "stateMutability": "nonpayable",
      "type": "function"
    },
    {
      "inputs": [
        {
          "internalType": "contract ERC20[]",
          "name": "_token",
          "type": "address[]"
        }
      ],
      "name": "addTokens",
      "outputs": [],
      "stateMutability": "nonpayable",
      "type": "function"
    },
    {
      "inputs": [
        {
          "internalType": "uint256",
          "name": "",
          "type": "uint256"
        }
      ],
      "name": "categories",
      "outputs": [
        {
          "internalType": "string",
          "name": "",
          "type": "string"
        }
      ],
      "stateMutability": "view",
      "type": "function"
    },
    {
      "inputs": [
        {
          "internalType": "uint256",
          "name": "",
          "type": "uint256"
        }
      ],
      "name": "contracts",
      "outputs": [
        {
          "internalType": "string",
          "name": "_name",
          "type": "string"
        },
        {
          "internalType": "address",
          "name": "_address",
          "type": "address"
        },
        {
          "internalType": "uint256",
          "name": "_networkId",
          "type": "uint256"
        },
        {
          "internalType": "uint256",
          "name": "categoryId",
          "type": "uint256"
        }
      ],
      "stateMutability": "view",
      "type": "function"
    },
    {
      "inputs": [
        {
          "internalType": "uint256",
          "name": "categoryId",
          "type": "uint256"
        }
      ],
      "name": "findContractsByCategoryId",
      "outputs": [
        {
          "components": [
            {
              "internalType": "string",
              "name": "_name",
              "type": "string"
            },
            {
              "internalType": "address",
              "name": "_address",
              "type": "address"
            },
            {
              "internalType": "uint256",
              "name": "_networkId",
              "type": "uint256"
            },
            {
              "internalType": "uint256",
              "name": "categoryId",
              "type": "uint256"
            }
          ],
          "internalType": "struct DataStore.Contract[]",
          "name": "_contracts",
          "type": "tuple[]"
        }
      ],
      "stateMutability": "view",
      "type": "function"
    }
  ],
  "bytecode": "0x608060405234801561001057600080fd5b50611515806100206000396000f3fe608060405234801561001057600080fd5b50600436106100625760003560e01c80632e0dcbf714610067578063474da79a1461008f5780634ae05c7d146100b2578063bdb2f12d146100c7578063c6cdbe5e146100e7578063e8f13a5914610107575b600080fd5b61007a610075366004611114565b61011a565b60405190151581526020015b60405180910390f35b6100a261009d36600461121f565b6101b7565b6040516100869493929190611365565b6100c56100c0366004611060565b61028b565b005b6100da6100d536600461121f565b61047d565b60405161008691906112bf565b6100fa6100f536600461121f565b610716565b6040516100869190611352565b6100c56101153660046111c2565b6107c2565b6000610125826108ca565b1561013257506000919050565b6001805480820182556000919091528251610175907fb10e2d527612073b26eecdfd717e6a320cf44b4afac2b0732d9fcbe2b7fa0cf68301906020860190610f76565b50807fe888c460f3063d7dd8477cdbcf5d850737457c8159765c83171f8f11fefcb456846040516101a69190611352565b60405180910390a250600192915050565b600281815481106101c757600080fd5b90600052602060002090600402016000915090508060000180546101ea9061144b565b80601f01602080910402602001604051908101604052809291908181526020018280546102169061144b565b80156102635780601f1061023857610100808354040283529160200191610263565b820191906000526020600020905b81548152906001019060200180831161024657829003601f168201915b505050506001830154600284015460039094015492936001600160a01b039091169290915084565b6000610296826109d5565b905060005b8151811015610478576102d48382815181106102c757634e487b7160e01b600052603260045260246000fd5b6020026020010151610cdf565b6104665760008282815181106102fa57634e487b7160e01b600052603260045260246000fd5b60209081029190910181015182546001810184556000938452928290208151805192946005029091019261033392849290910190610f76565b50602082810151805161034c9260018501920190610f76565b5060408201516002820180546001600160a01b0319166001600160a01b039092169190911790556060820151600382015560809091015160049091015581518290829081106103ab57634e487b7160e01b600052603260045260246000fd5b6020026020010151604001516001600160a01b03168282815181106103e057634e487b7160e01b600052603260045260246000fd5b6020026020010151602001516040516103f991906112a3565b60405180910390207fc387e0a12b4aabaa4538d4b70c480bf5db9c501d01c97829299f623e4830fdd284848151811061044257634e487b7160e01b600052603260045260246000fd5b60200260200101516060015160405161045d91815260200190565b60405180910390a35b8061047081611480565b91505061029b565b505050565b606060008060005b6002548110156104e957600281815481106104b057634e487b7160e01b600052603260045260246000fd5b9060005260206000209060040201600301548514156104d757826104d381611480565b9350505b806104e181611480565b915050610485565b50816104f6575050919050565b8167ffffffffffffffff81111561051d57634e487b7160e01b600052604160045260246000fd5b60405190808252806020026020018201604052801561058257816020015b61056f60405180608001604052806060815260200160006001600160a01b0316815260200160008152602001600081525090565b81526020019060019003908161053b5790505b50925060005b60025481101561070e57600281815481106105b357634e487b7160e01b600052603260045260246000fd5b9060005260206000209060040201600301548514156106fc57600281815481106105ed57634e487b7160e01b600052603260045260246000fd5b90600052602060002090600402016040518060800160405290816000820180546106169061144b565b80601f01602080910402602001604051908101604052809291908181526020018280546106429061144b565b801561068f5780601f106106645761010080835404028352916020019161068f565b820191906000526020600020905b81548152906001019060200180831161067257829003601f168201915b505050918352505060018201546001600160a01b031660208201526002820154604082015260039091015460609091015284518590849081106106e257634e487b7160e01b600052603260045260246000fd5b602002602001018190525081806106f890611480565b9250505b8061070681611480565b915050610588565b505050919050565b6001818154811061072657600080fd5b9060005260206000200160009150905080546107419061144b565b80601f016020809104026020016040519081016040528092919081815260200182805461076d9061144b565b80156107ba5780601f1061078f576101008083540402835291602001916107ba565b820191906000526020600020905b81548152906001019060200180831161079d57829003601f168201915b505050505081565b604080516080810182528581526001600160a01b038516602080830191909152918101849052606081018390526002805460018101825560009190915281518051929360049092027f405787fa12a823e0f2b7631cc41b3ba8828b3321ca811111fa75cd3aa3bb5ace019261083a9284920190610f76565b5060208201516001820180546001600160a01b0319166001600160a01b0392831617905560408084015160028401556060909301516003909201919091559051839185169061088a9087906112a3565b604051908190038120848252907f25212c4e838324e226aa26b4036d148dd22edb65df722feba897cf9e31dc618a9060200160405180910390a450505050565b6001546000906108d957919050565b60005b6001548110156109cf576109b36109a56001838154811061090d57634e487b7160e01b600052603260045260246000fd5b9060005260206000200180546109229061144b565b80601f016020809104026020016040519081016040528092919081815260200182805461094e9061144b565b801561099b5780601f106109705761010080835404028352916020019161099b565b820191906000526020600020905b81548152906001019060200180831161097e57829003601f168201915b5050505050610d58565b6109ae85610d58565b610f1d565b156109bd57600191505b806109c781611480565b9150506108dc565b50919050565b80516060908067ffffffffffffffff811115610a0157634e487b7160e01b600052604160045260246000fd5b604051908082528060200260200182016040528015610a6d57816020015b610a5a6040518060a00160405280606081526020016060815260200160006001600160a01b0316815260200160008152602001600081525090565b815260200190600190039081610a1f5790505b5091506000805b8281101561070e57848181518110610a9c57634e487b7160e01b600052603260045260246000fd5b602002602001015191506040518060a00160405280836001600160a01b03166306fdde036040518163ffffffff1660e01b815260040160006040518083038186803b158015610aea57600080fd5b505afa158015610afe573d6000803e3d6000fd5b505050506040513d6000823e601f3d908101601f19168201604052610b26919081019061114f565b8152602001836001600160a01b03166395d89b416040518163ffffffff1660e01b815260040160006040518083038186803b158015610b6457600080fd5b505afa158015610b78573d6000803e3d6000fd5b505050506040513d6000823e601f3d908101601f19168201604052610ba0919081019061114f565b8152602001836001600160a01b03168152602001836001600160a01b031663313ce5676040518163ffffffff1660e01b815260040160206040518083038186803b158015610bed57600080fd5b505afa158015610c01573d6000803e3d6000fd5b505050506040513d601f19601f82011682018060405250810190610c25919061124f565b60ff168152602001836001600160a01b03166318160ddd6040518163ffffffff1660e01b815260040160206040518083038186803b158015610c6657600080fd5b505afa158015610c7a573d6000803e3d6000fd5b505050506040513d601f19601f82011682018060405250810190610c9e9190611237565b815250848281518110610cc157634e487b7160e01b600052603260045260246000fd5b60200260200101819052508080610cd790611480565b915050610a74565b60008054815b81811015610d515760008181548110610d0e57634e487b7160e01b600052603260045260246000fd5b60009182526020909120600260059092020101546001600160a01b0385811691161415610d3f575060019392505050565b80610d4981611480565b915050610ce5565b5050919050565b606060008290506000815167ffffffffffffffff811115610d8957634e487b7160e01b600052604160045260246000fd5b6040519080825280601f01601f191660200182016040528015610db3576020820181803683370190505b50905060005b8251811015610f15576041838281518110610de457634e487b7160e01b600052603260045260246000fd5b016020015160f81c10801590610e225750605a838281518110610e1757634e487b7160e01b600052603260045260246000fd5b016020015160f81c11155b15610ea057828181518110610e4757634e487b7160e01b600052603260045260246000fd5b602001015160f81c60f81b60f81c6020610e6191906113f6565b60f81b828281518110610e8457634e487b7160e01b600052603260045260246000fd5b60200101906001600160f81b031916908160001a905350610f03565b828181518110610ec057634e487b7160e01b600052603260045260246000fd5b602001015160f81c60f81b828281518110610eeb57634e487b7160e01b600052603260045260246000fd5b60200101906001600160f81b031916908160001a9053505b80610f0d81611480565b915050610db9565b509392505050565b600081604051602001610f3091906112a3565b6040516020818303038152906040528051906020012083604051602001610f5791906112a3565b6040516020818303038152906040528051906020012014905092915050565b828054610f829061144b565b90600052602060002090601f016020900481019282610fa45760008555610fea565b82601f10610fbd57805160ff1916838001178555610fea565b82800160010185558215610fea579182015b82811115610fea578251825591602001919060010190610fcf565b50610ff6929150610ffa565b5090565b5b80821115610ff65760008155600101610ffb565b600082601f83011261101f578081fd5b813561103261102d826113ce565b61139d565b818152846020838601011115611046578283fd5b816020850160208301379081016020019190915292915050565b60006020808385031215611072578182fd5b823567ffffffffffffffff80821115611089578384fd5b818501915085601f83011261109c578384fd5b8135818111156110ae576110ae6114b1565b8060051b91506110bf84830161139d565b8181528481019084860184860187018a10156110d9578788fd5b8795505b8386101561110757803594506110f2856114c7565b848352600195909501949186019186016110dd565b5098975050505050505050565b600060208284031215611125578081fd5b813567ffffffffffffffff81111561113b578182fd5b6111478482850161100f565b949350505050565b600060208284031215611160578081fd5b815167ffffffffffffffff811115611176578182fd5b8201601f81018413611186578182fd5b805161119461102d826113ce565b8181528560208385010111156111a8578384fd5b6111b982602083016020860161141b565b95945050505050565b600080600080608085870312156111d7578283fd5b843567ffffffffffffffff8111156111ed578384fd5b6111f98782880161100f565b945050602085013561120a816114c7565b93969395505050506040820135916060013590565b600060208284031215611230578081fd5b5035919050565b600060208284031215611248578081fd5b5051919050565b600060208284031215611260578081fd5b815160ff81168114611270578182fd5b9392505050565b6000815180845261128f81602086016020860161141b565b601f01601f19169290920160200192915050565b600082516112b581846020870161141b565b9190910192915050565b60006020808301818452808551808352604092508286019150828160051b870101848801865b8381101561134457603f1989840301855281516080815181865261130b82870182611277565b838b01516001600160a01b0316878c0152898401518a8801526060938401519390960192909252505093860193908601906001016112e5565b509098975050505050505050565b6020815260006112706020830184611277565b6080815260006113786080830187611277565b6001600160a01b03959095166020830152506040810192909252606090910152919050565b604051601f8201601f1916810167ffffffffffffffff811182821017156113c6576113c66114b1565b604052919050565b600067ffffffffffffffff8211156113e8576113e86114b1565b50601f01601f191660200190565b600060ff821660ff84168060ff038211156114135761141361149b565b019392505050565b60005b8381101561143657818101518382015260200161141e565b83811115611445576000848401525b50505050565b600181811c9082168061145f57607f821691505b602082108114156109cf57634e487b7160e01b600052602260045260246000fd5b60006000198214156114945761149461149b565b5060010190565b634e487b7160e01b600052601160045260246000fd5b634e487b7160e01b600052604160045260246000fd5b6001600160a01b03811681146114dc57600080fd5b5056fea2646970667358221220607318f507509b7def2db4a9922f879afe7953fa2b7a9ae70994e2e9ca4dfc6c64736f6c63430008040033",
  "linkReferences": {},
  "deployedLinkReferences": {}
}