{
  "_format": "hh-sol-artifact-1",
  "contractName": "FraktalSwapper",
  "sourceName": "contracts/FraktalSwapper.sol",
  "abi": [
    {
      "inputs": [
        {
          "internalType": "address",
          "name": "_weth",
          "type": "address"
        }
      ],
      "stateMutability": "nonpayable",
      "type": "constructor"
    },
    {
      "anonymous": false,
      "inputs": [
        {
          "indexed": false,
          "internalType": "string",
          "name": "content",
          "type": "string"
        }
      ],
      "name": "Log",
      "type": "event"
    },
    {
      "anonymous": false,
      "inputs": [
        {
          "indexed": false,
          "internalType": "string",
          "name": "label",
          "type": "string"
        },
        {
          "indexed": false,
          "internalType": "string",
          "name": "content",
          "type": "string"
        }
      ],
      "name": "Log",
      "type": "event"
    },
    {
      "anonymous": false,
      "inputs": [
        {
          "indexed": false,
          "internalType": "string",
          "name": "label",
          "type": "string"
        },
        {
          "indexed": false,
          "internalType": "bytes",
          "name": "_bytes",
          "type": "bytes"
        }
      ],
      "name": "LogBytes",
      "type": "event"
    },
    {
      "anonymous": false,
      "inputs": [
        {
          "indexed": false,
          "internalType": "string",
          "name": "label",
          "type": "string"
        },
        {
          "indexed": false,
          "internalType": "uint256",
          "name": "num",
          "type": "uint256"
        }
      ],
      "name": "LogInt",
      "type": "event"
    },
    {
      "inputs": [
        {
          "internalType": "address",
          "name": "_flashSwapRouter",
          "type": "address"
        },
        {
          "internalType": "address",
          "name": "pairAddress",
          "type": "address"
        },
        {
          "internalType": "address",
          "name": "_tokenBorrow",
          "type": "address"
        },
        {
          "internalType": "address",
          "name": "_tokenPay",
          "type": "address"
        },
        {
          "internalType": "uint256",
          "name": "_amount",
          "type": "uint256"
        },
        {
          "internalType": "bytes[]",
          "name": "_flashData",
          "type": "bytes[]"
        }
      ],
      "name": "startFlashSwap",
      "outputs": [],
      "stateMutability": "nonpayable",
      "type": "function"
    },
    {
      "inputs": [
        {
          "internalType": "address",
          "name": "_sender",
          "type": "address"
        },
        {
          "internalType": "uint256",
          "name": "_amount0",
          "type": "uint256"
        },
        {
          "internalType": "uint256",
          "name": "_amount1",
          "type": "uint256"
        },
        {
          "internalType": "bytes",
          "name": "_data",
          "type": "bytes"
        }
      ],
      "name": "uniswapV2Call",
      "outputs": [],
      "stateMutability": "nonpayable",
      "type": "function"
    }
  ],
  "bytecode": "0x608060405234801561001057600080fd5b50604051611d82380380611d8283398101604081905261002f91610054565b600280546001600160a01b0319166001600160a01b0392909216919091179055610082565b600060208284031215610065578081fd5b81516001600160a01b038116811461007b578182fd5b9392505050565b611cf1806100916000396000f3fe608060405234801561001057600080fd5b50600436106100365760003560e01c806310d1e85c1461003b5780633ca84bb214610050575b600080fd5b61004e6100493660046115e8565b610063565b005b61004e61005e366004611523565b6107d0565b61009560405180604001604052806011815260200170554e49535741502056322043414c4c454560781b8152506107f1565b60008080806100a6858701876114b9565b93509350935093506000336001600160a01b0316630dfe16816040518163ffffffff1660e01b815260040160206040518083038186803b1580156100e957600080fd5b505afa1580156100fd573d6000803e3d6000fd5b505050506040513d601f19601f8201168201806040525081019061012191906113e1565b90506000336001600160a01b031663d21220a76040518163ffffffff1660e01b815260040160206040518083038186803b15801561015e57600080fd5b505afa158015610172573d6000803e3d6000fd5b505050506040513d601f19601f8201168201806040525081019061019691906113e1565b90506000806000876001600160a01b0316896001600160a01b031614156101c057600191506101c5565b600091505b81610200576103e56101d8886003611ac5565b6101e29190611aa5565b6101ed906001611a8d565b90506101f98782610837565b925061036d565b604080516002808252606082018352600092602083019080368337019050509050856001600160a01b03168a6001600160a01b031614156102415784610243565b855b8160008151811061026457634e487b7160e01b600052603260045260246000fd5b6001600160a01b0392831660209182029290920101528a81169087161461028b578461028d565b855b816001815181106102ae57634e487b7160e01b600052603260045260246000fd5b6001600160a01b0392831660209182029290920101526000546040516307c0329d60e21b8152911690631f00ca74906102ed908b908590600401611994565b60006040518083038186803b15801561030557600080fd5b505afa158015610319573d6000803e3d6000fd5b505050506040513d6000823e601f3d908101601f191682016040526103419190810190611679565b60008151811061036157634e487b7160e01b600052603260045260246000fd5b60200260200101519350505b61039d6040518060400160405280600e81526020016d32bc32b1baba34b7b72a3cb8329d60911b8152508361084a565b604080518082018252600f81526e3a37b5b2b718103130b630b731b29d60891b602082015290516370a0823160e01b815230600482015261044391906001600160a01b038816906370a082319060240160206040518083038186803b15801561040557600080fd5b505afa158015610419573d6000803e3d6000fd5b505050506040513d601f19601f8201168201806040525081019061043d9190611736565b87610893565b604080518082018252600f81526e3a37b5b2b718903130b630b731b29d60891b602082015290516370a0823160e01b81523060048201526104e991906001600160a01b038716906370a08231906024015b60206040518083038186803b1580156104ac57600080fd5b505afa1580156104c0573d6000803e3d6000fd5b505050506040513d601f19601f820116820180604052508101906104e49190611736565b61084a565b6105176040518060400160405280600c81526020016b3a37b5b2b72137b93937bb9d60a11b8152508a6108df565b6105446040518060400160405280600b81526020016a3a37b5b2b72932b830bc9d60a91b815250896108df565b6105736040518060400160405280600d81526020016c3137b93937bba0b6b7bab73a1d60991b8152508861084a565b610599604051806040016040528060048152602001633332b29d60e11b8152508261084a565b6105c96040518060400160405280600e81526020016d30b6b7bab73a2a37a932b830bc9d60911b8152508461084a565b60015460405163e6a4390560e01b81526001600160a01b03878116600483015286811660248301529091169063e6a439059060440160206040518083038186803b15801561061657600080fd5b505afa15801561062a573d6000803e3d6000fd5b505050506040513d601f19601f8201168201806040525081019061064e91906113e1565b600380546001600160a01b0319166001600160a01b0392909216918217905533146106af5760405162461bcd60e51b815260206004820152600c60248201526b155b985d5d1a1bdc9a5e995960a21b60448201526064015b60405180910390fd5b600082876040516020016106c49291906119b5565b60405160208183030381529060405290506106de81610924565b5060408051808201825260138152723a37b5b2b72932b830bc903130b630b731b29d60691b602082015290516370a0823160e01b815230600482015261073891906001600160a01b038c16906370a0823190602401610494565b60035460405163a9059cbb60e01b81526001600160a01b03918216600482015260248101869052908a169063a9059cbb90604401602060405180830381600087803b15801561078657600080fd5b505af115801561079a573d6000803e3d6000fd5b505050506040513d601f19601f820116820180604052508101906107be9190611716565b50505050505050505050505050505050565b6107e787878787876107e28789611afb565b610976565b5050505050505050565b6108348160405160240161080591906118cb565b60408051601f198184030181529190526020810180516001600160e01b031663104c13eb60e21b179052610de9565b50565b60006108438284611a8d565b9392505050565b61088f8282604051602401610860929190611908565b60408051601f198184030181529190526020810180516001600160e01b03166309710a9d60e41b179052610de9565b5050565b6108da8383836040516024016108ab9392919061192a565b60408051601f198184030181529190526020810180516001600160e01b031663e3849f7960e01b179052610de9565b505050565b61088f82826040516024016108f59291906118de565b60408051601f198184030181529190526020810180516001600160e01b031663319af33360e01b179052610de9565b60008060008380602001905181019061093d919061174e565b91509150816000141561095a5761095381610e0a565b925061096f565b816001141561096f5761096c81611164565b92505b5050919050565b600254600090600160a01b900460ff16156109c75760405162461bcd60e51b815260206004820152601160248201527020a62922a0a22c902627a1a5a2a217171760791b60448201526064016106a6565b506002805460ff60a01b1916600160a01b179055600080546001600160a01b0388166001600160a01b0319909116811782556040805163c45a015560e01b8152905189929163c45a0155916004808301926020929190829003018186803b158015610a3157600080fd5b505afa158015610a45573d6000803e3d6000fd5b505050506040513d601f19601f82011682018060405250810190610a6991906113e1565b600180546001600160a01b039283166001600160a01b03199182161790915560038054928a16929091168217905560408051630dfe168160e01b8152905160009291630dfe1681916004808301926020929190829003018186803b158015610ad057600080fd5b505afa158015610ae4573d6000803e3d6000fd5b505050506040513d601f19601f82011682018060405250810190610b0891906113e1565b90506000886001600160a01b031663d21220a76040518163ffffffff1660e01b815260040160206040518083038186803b158015610b4557600080fd5b505afa158015610b59573d6000803e3d6000fd5b505050506040513d601f19601f82011682018060405250810190610b7d91906113e1565b90506000826001600160a01b0316896001600160a01b031614610ba05782610ba2565b815b60015460405163e6a4390560e01b81526001600160a01b038c8116600483015280841660248301529293506000929091169063e6a439059060440160206040518083038186803b158015610bf557600080fd5b505afa158015610c09573d6000803e3d6000fd5b505050506040513d601f19601f82011682018060405250810190610c2d91906113e1565b90506001600160a01b038116610c6d5760405162461bcd60e51b815260206004820152600560248201526410b830b4b960d91b60448201526064016106a6565b6000846001600160a01b03168b6001600160a01b031614610c8f576000610c91565b885b90506000846001600160a01b03168c6001600160a01b031614610cb5576000610cb7565b895b905060008c8c8c8c604051602001610cd29493929190611847565b60408051808303601f190181529082905263095ea7b360e01b82526001600160a01b038681166004840152602483018e90529092508e169063095ea7b390604401602060405180830381600087803b158015610d2d57600080fd5b505af1158015610d41573d6000803e3d6000fd5b505050506040513d601f19601f82011682018060405250810190610d659190611716565b5060405163022c0d9f60e01b81526001600160a01b0385169063022c0d9f90610d989086908690309087906004016119ce565b600060405180830381600087803b158015610db257600080fd5b505af1158015610dc6573d6000803e3d6000fd5b5050505050505050505050506002805460ff60a01b191690559695505050505050565b80516a636f6e736f6c652e6c6f67602083016000808483855afa5050505050565b600080600080600085806020019051810190610e269190611467565b6040805160028082526060820183529599509397509195509350600092906020830190803683370190505090508381600081518110610e7557634e487b7160e01b600052603260045260246000fd5b60200260200101906001600160a01b031690816001600160a01b0316815250508281600181518110610eb757634e487b7160e01b600052603260045260246000fd5b6001600160a01b03909216602092830291909101909101526000610edc426078611a8d565b90506000866001600160a01b031663d06ca61f85856040518363ffffffff1660e01b8152600401610f0e929190611994565b60006040518083038186803b158015610f2657600080fd5b505afa158015610f3a573d6000803e3d6000fd5b505050506040513d6000823e601f3d908101601f19168201604052610f629190810190611679565b9050600060c882600181518110610f8957634e487b7160e01b600052603260045260246000fd5b6020026020010151610f9b9190611aa5565b82600181518110610fbc57634e487b7160e01b600052603260045260246000fd5b6020026020010151610fce9190611ae4565b60405163095ea7b360e01b81526001600160a01b038a81166004830152602482018890529192509088169063095ea7b390604401602060405180830381600087803b15801561101c57600080fd5b505af1158015611030573d6000803e3d6000fd5b505050506040513d601f19601f820116820180604052508101906110549190611716565b506040516338ed173960e01b81526001600160a01b038916906338ed1739906110899088908590899030908a90600401611a05565b600060405180830381600087803b1580156110a357600080fd5b505af19250505080156110d857506040513d6000823e601f3d908101601f191682016040526110d59190810190611679565b60015b611151576110e4611c04565b806308c379a0141561114557506110f9611c1c565b806111045750611147565b600099507f821f337ab34a905a52ea2a22aa6b9ef872196a034e37c2bc08d88e21d8cece0981604051611137919061195d565b60405180910390a150611157565b505b3d6000803e3d6000fd5b50600198505b5050505050505050919050565b6000806000806000808680602001905181019061118191906113fd565b94509450945094509450600160009054906101000a90046001600160a01b03166001600160a01b0316856001600160a01b031663c45a01556040518163ffffffff1660e01b815260040160206040518083038186803b1580156111e357600080fd5b505afa1580156111f7573d6000803e3d6000fd5b505050506040513d601f19601f8201168201806040525081019061121b91906113e1565b6001600160a01b031614156112825760405162461bcd60e51b815260206004820152602760248201527f43616e206e6f742073776170206f6e2074686520466c61736820537761702045604482015266786368616e676560c81b60648201526084016106a6565b604080516001600160a01b038781166020830152858116828401528416606082015260808082018490528251808303909101815260a09091019091526112c781610e0a565b506040516370a0823160e01b81523060048201526000906001600160a01b038516906370a082319060240160206040518083038186803b15801561130a57600080fd5b505afa15801561131e573d6000803e3d6000fd5b505050506040513d601f19601f820116820180604052508101906113429190611736565b604080516001600160a01b038981166020830152878116828401528816606082015260808082018490528251808303909101815260a090910190915290915061115181610e0a565b600082601f83011261139a578081fd5b81356113a581611a65565b6040516113b28282611bab565b8281528560208487010111156113c6578384fd5b82602086016020830137918201602001929092529392505050565b6000602082840312156113f2578081fd5b815161084381611ca6565b600080600080600060a08688031215611414578081fd5b855161141f81611ca6565b602087015190955061143081611ca6565b604087015190945061144181611ca6565b606087015190935061145281611ca6565b80925050608086015190509295509295909350565b6000806000806080858703121561147c578384fd5b845161148781611ca6565b602086015190945061149881611ca6565b60408601519093506114a981611ca6565b6060959095015193969295505050565b600080600080608085870312156114ce578384fd5b84356114d981611ca6565b935060208501356114e981611ca6565b925060408501359150606085013567ffffffffffffffff81111561150b578182fd5b6115178782880161138a565b91505092959194509250565b600080600080600080600060c0888a03121561153d578182fd5b873561154881611ca6565b9650602088013561155881611ca6565b9550604088013561156881611ca6565b9450606088013561157881611ca6565b93506080880135925060a088013567ffffffffffffffff8082111561159b578384fd5b818a0191508a601f8301126115ae578384fd5b8135818111156115bc578485fd5b8b60208260051b85010111156115d0578485fd5b60208301945080935050505092959891949750929550565b6000806000806000608086880312156115ff578283fd5b853561160a81611ca6565b94506020860135935060408601359250606086013567ffffffffffffffff80821115611634578283fd5b818801915088601f830112611647578283fd5b813581811115611655578384fd5b896020828501011115611666578384fd5b9699959850939650602001949392505050565b6000602080838503121561168b578182fd5b825167ffffffffffffffff8111156116a1578283fd5b8301601f810185136116b1578283fd5b80516116bc81611a41565b6040516116c98282611bab565b8281528481019150838501600584901b850186018910156116e8578687fd5b8694505b8385101561170a5780518352600194909401939185019185016116ec565b50979650505050505050565b600060208284031215611727578081fd5b81518015158114610843578182fd5b600060208284031215611747578081fd5b5051919050565b60008060408385031215611760578182fd5b82519150602083015167ffffffffffffffff81111561177d578182fd5b8301601f8101851361178d578182fd5b805161179881611a65565b6040516117a58282611bab565b8281528760208486010111156117b9578485fd5b6117ca836020830160208701611b7b565b809450505050509250929050565b6000815180845260208085019450808401835b838110156118105781516001600160a01b0316875295820195908201906001016117eb565b509495945050505050565b60008151808452611833816020860160208601611b7b565b601f01601f19169290920160200192915050565b60006080820160018060a01b03808816845260208188168186015286604086015260806060860152829150855180845260a08601925060a08160051b8701019350818701855b828110156118bb57609f198887030185526118a986835161181b565b9550938301939083019060010161188d565b50939a9950505050505050505050565b602081526000610843602083018461181b565b6040815260006118f1604083018561181b565b905060018060a01b03831660208301529392505050565b60408152600061191b604083018561181b565b90508260208301529392505050565b60608152600061193d606083018661181b565b6020830194909452506001600160a01b0391909116604090910152919050565b60408152600d60408201526c22a92927a9102922a0a9a7a71d60991b6060820152608060208201526000610843608083018461181b565b8281526040602082015260006119ad60408301846117d8565b949350505050565b8281526040602082015260006119ad604083018461181b565b84815283602082015260018060a01b03831660408201526080606082015260006119fb608083018461181b565b9695505050505050565b85815284602082015260a060408201526000611a2460a08301866117d8565b6001600160a01b0394909416606083015250608001529392505050565b600067ffffffffffffffff821115611a5b57611a5b611bee565b5060051b60200190565b600067ffffffffffffffff821115611a7f57611a7f611bee565b50601f01601f191660200190565b60008219821115611aa057611aa0611bd8565b500190565b600082611ac057634e487b7160e01b81526012600452602481fd5b500490565b6000816000190483118215151615611adf57611adf611bd8565b500290565b600082821015611af657611af6611bd8565b500390565b6000611b0683611a41565b604051611b138282611bab565b848152602080820192508436600588901b82011115611b30578485fd5b845b87811015611b6f57813567ffffffffffffffff811115611b50578687fd5b611b5c36828a0161138a565b8652509382019390820190600101611b32565b50919695505050505050565b60005b83811015611b96578181015183820152602001611b7e565b83811115611ba5576000848401525b50505050565b601f8201601f1916810167ffffffffffffffff81118282101715611bd157611bd1611bee565b6040525050565b634e487b7160e01b600052601160045260246000fd5b634e487b7160e01b600052604160045260246000fd5b600060033d1115611c1957600481823e5160e01c5b90565b600060443d1015611c2a5790565b6040516003193d81016004833e81513d67ffffffffffffffff8160248401118184111715611c5a57505050505090565b8285019150815181811115611c725750505050505090565b843d8701016020828501011115611c8c5750505050505090565b611c9b60208286010187611bab565b509095945050505050565b6001600160a01b038116811461083457600080fdfea2646970667358221220630d418659fdcc897157a49be8218b4596270bef8a218902948b911f931972aa64736f6c63430008040033",
  "linkReferences": {},
  "deployedLinkReferences": {}
}