{
  "_format": "hh-sol-artifact-1",
  "contractName": "FraktalFlashSwapper",
  "sourceName": "contracts/FraktalFlashSwapper.sol",
  "abi": [
    {
      "inputs": [
        {
          "internalType": "address",
          "name": "_uniHelper",
          "type": "address"
        },
        {
          "internalType": "address",
          "name": "_weth",
          "type": "address"
        },
        {
          "internalType": "address",
          "name": "_flashLoanRouter",
          "type": "address"
        }
      ],
      "stateMutability": "nonpayable",
      "type": "constructor"
    },
    {
      "anonymous": false,
      "inputs": [
        {
          "indexed": true,
          "internalType": "address",
          "name": "_tokenBorrow",
          "type": "address"
        },
        {
          "indexed": true,
          "internalType": "address",
          "name": "pairAddress",
          "type": "address"
        },
        {
          "indexed": true,
          "internalType": "address",
          "name": "_amount",
          "type": "address"
        },
        {
          "indexed": false,
          "internalType": "bytes",
          "name": "_flashData",
          "type": "bytes"
        }
      ],
      "name": "FailedFlashLoan",
      "type": "event"
    },
    {
      "anonymous": false,
      "inputs": [
        {
          "indexed": false,
          "internalType": "string",
          "name": "message",
          "type": "string"
        }
      ],
      "name": "Log",
      "type": "event"
    },
    {
      "anonymous": false,
      "inputs": [
        {
          "indexed": false,
          "internalType": "string",
          "name": "message",
          "type": "string"
        },
        {
          "indexed": false,
          "internalType": "uint256",
          "name": "val",
          "type": "uint256"
        }
      ],
      "name": "Log",
      "type": "event"
    },
    {
      "anonymous": false,
      "inputs": [
        {
          "indexed": true,
          "internalType": "address",
          "name": "_tokenBorrow",
          "type": "address"
        },
        {
          "indexed": true,
          "internalType": "address",
          "name": "pairAddress",
          "type": "address"
        },
        {
          "indexed": true,
          "internalType": "address",
          "name": "_amount",
          "type": "address"
        },
        {
          "indexed": false,
          "internalType": "bytes",
          "name": "_flashData",
          "type": "bytes"
        }
      ],
      "name": "StartedFlashLoan",
      "type": "event"
    },
    {
      "anonymous": false,
      "inputs": [
        {
          "indexed": true,
          "internalType": "address",
          "name": "_tokenBorrow",
          "type": "address"
        },
        {
          "indexed": true,
          "internalType": "address",
          "name": "pairAddress",
          "type": "address"
        },
        {
          "indexed": true,
          "internalType": "address",
          "name": "_amount",
          "type": "address"
        },
        {
          "indexed": false,
          "internalType": "bytes",
          "name": "_flashData",
          "type": "bytes"
        }
      ],
      "name": "SuccessfulFlashLoan",
      "type": "event"
    },
    {
      "anonymous": false,
      "inputs": [
        {
          "indexed": false,
          "internalType": "address",
          "name": "oldRouter",
          "type": "address"
        },
        {
          "indexed": false,
          "internalType": "address",
          "name": "oldFactory",
          "type": "address"
        },
        {
          "indexed": false,
          "internalType": "address",
          "name": "newRouter",
          "type": "address"
        },
        {
          "indexed": false,
          "internalType": "address",
          "name": "newFactory",
          "type": "address"
        }
      ],
      "name": "UpdatedLoanRouter",
      "type": "event"
    },
    {
      "inputs": [],
      "name": "LOAN_FACTORY",
      "outputs": [
        {
          "internalType": "contract UniswapV2Factory",
          "name": "",
          "type": "address"
        }
      ],
      "stateMutability": "view",
      "type": "function"
    },
    {
      "inputs": [],
      "name": "LOAN_ROUTER",
      "outputs": [
        {
          "internalType": "contract IUniswapV2Router02",
          "name": "",
          "type": "address"
        }
      ],
      "stateMutability": "view",
      "type": "function"
    },
    {
      "inputs": [
        {
          "internalType": "address",
          "name": "_router0",
          "type": "address"
        },
        {
          "internalType": "address",
          "name": "_router1",
          "type": "address"
        },
        {
          "internalType": "address",
          "name": "_tokenIn",
          "type": "address"
        },
        {
          "internalType": "address",
          "name": "_tokenOut",
          "type": "address"
        },
        {
          "internalType": "uint256",
          "name": "_amountIn",
          "type": "uint256"
        },
        {
          "internalType": "address",
          "name": "_to",
          "type": "address"
        }
      ],
      "name": "arbitrageSwap",
      "outputs": [
        {
          "internalType": "bool",
          "name": "",
          "type": "bool"
        },
        {
          "internalType": "uint256",
          "name": "",
          "type": "uint256"
        }
      ],
      "stateMutability": "nonpayable",
      "type": "function"
    },
    {
      "inputs": [
        {
          "internalType": "address",
          "name": "_router",
          "type": "address"
        },
        {
          "internalType": "address",
          "name": "_tokenIn",
          "type": "address"
        },
        {
          "internalType": "address",
          "name": "_tokenOut",
          "type": "address"
        },
        {
          "internalType": "uint256",
          "name": "_amountIn",
          "type": "uint256"
        }
      ],
      "name": "getAmountOutMin",
      "outputs": [
        {
          "internalType": "uint256",
          "name": "",
          "type": "uint256"
        }
      ],
      "stateMutability": "view",
      "type": "function"
    },
    {
      "inputs": [
        {
          "internalType": "bytes",
          "name": "_data",
          "type": "bytes"
        }
      ],
      "name": "multiFlashSwap",
      "outputs": [
        {
          "internalType": "bool[]",
          "name": "success",
          "type": "bool[]"
        }
      ],
      "stateMutability": "nonpayable",
      "type": "function"
    },
    {
      "inputs": [
        {
          "internalType": "bytes",
          "name": "_data",
          "type": "bytes"
        }
      ],
      "name": "simpleArbitrage",
      "outputs": [
        {
          "internalType": "bool",
          "name": "success",
          "type": "bool"
        },
        {
          "internalType": "uint256",
          "name": "amount",
          "type": "uint256"
        }
      ],
      "stateMutability": "nonpayable",
      "type": "function"
    },
    {
      "inputs": [
        {
          "internalType": "bytes",
          "name": "_data",
          "type": "bytes"
        }
      ],
      "name": "simpleSwap",
      "outputs": [
        {
          "internalType": "bool",
          "name": "",
          "type": "bool"
        },
        {
          "internalType": "uint256",
          "name": "",
          "type": "uint256"
        }
      ],
      "stateMutability": "nonpayable",
      "type": "function"
    },
    {
      "inputs": [
        {
          "internalType": "address",
          "name": "_tokenBorrow",
          "type": "address"
        },
        {
          "internalType": "address",
          "name": "pairAddress",
          "type": "address"
        },
        {
          "internalType": "uint256",
          "name": "_amount",
          "type": "uint256"
        },
        {
          "internalType": "bytes",
          "name": "_flashData",
          "type": "bytes"
        }
      ],
      "name": "startFlashSwap",
      "outputs": [
        {
          "internalType": "bool",
          "name": "success",
          "type": "bool"
        }
      ],
      "stateMutability": "nonpayable",
      "type": "function"
    },
    {
      "inputs": [
        {
          "internalType": "address",
          "name": "_tokenBorrow",
          "type": "address"
        },
        {
          "internalType": "address",
          "name": "pairAddress",
          "type": "address"
        },
        {
          "internalType": "uint256",
          "name": "_amount",
          "type": "uint256"
        },
        {
          "internalType": "bytes",
          "name": "_flashData",
          "type": "bytes"
        }
      ],
      "name": "startSwap",
      "outputs": [
        {
          "internalType": "bool",
          "name": "success",
          "type": "bool"
        }
      ],
      "stateMutability": "nonpayable",
      "type": "function"
    },
    {
      "inputs": [
        {
          "internalType": "address",
          "name": "_router",
          "type": "address"
        },
        {
          "internalType": "address",
          "name": "_tokenIn",
          "type": "address"
        },
        {
          "internalType": "address",
          "name": "_tokenOut",
          "type": "address"
        },
        {
          "internalType": "uint256",
          "name": "_amountIn",
          "type": "uint256"
        },
        {
          "internalType": "uint256",
          "name": "_amountOutMin",
          "type": "uint256"
        },
        {
          "internalType": "address",
          "name": "_to",
          "type": "address"
        }
      ],
      "name": "swap",
      "outputs": [
        {
          "internalType": "bool",
          "name": "success",
          "type": "bool"
        },
        {
          "internalType": "uint256",
          "name": "amountOut",
          "type": "uint256"
        }
      ],
      "stateMutability": "nonpayable",
      "type": "function"
    },
    {
      "inputs": [
        {
          "internalType": "address",
          "name": "_sender",
          "type": "address"
        },
        {
          "internalType": "uint256",
          "name": "_amount0",
          "type": "uint256"
        },
        {
          "internalType": "uint256",
          "name": "_amount1",
          "type": "uint256"
        },
        {
          "internalType": "bytes",
          "name": "_data",
          "type": "bytes"
        }
      ],
      "name": "uniswapV2Call",
      "outputs": [],
      "stateMutability": "nonpayable",
      "type": "function"
    },
    {
      "inputs": [
        {
          "internalType": "address",
          "name": "_router",
          "type": "address"
        }
      ],
      "name": "updateLoanRouter",
      "outputs": [],
      "stateMutability": "nonpayable",
      "type": "function"
    }
  ],
  "bytecode": "0x60806040523480156200001157600080fd5b5060405162002ac438038062002ac48339810160408190526200003491620002bb565b600080546001600160a01b038086166001600160a01b031992831617909255600180549285169282169290921790915560048054909116331790558282826200007d8162000089565b50505050505062000304565b6004546001600160a01b03163314620000e85760405162461bcd60e51b815260206004820152601360248201527f556e617574686f72697a656420416374696f6e00000000000000000000000000604482015260640160405180910390fd5b600380546002546001600160a01b038481166001600160a01b0319841681179094556040805163c45a015560e01b8152905193821694929091169263c45a015591600480820192602092909190829003018186803b1580156200014a57600080fd5b505afa1580156200015f573d6000803e3d6000fd5b505050506040513d601f19601f8201168201806040525081019062000185919062000297565b600280546001600160a01b0319166001600160a01b039283161790556003546040805163c45a015560e01b815290517fb9f5018683d304b9f17dd1337dcffecd3c7e92b7e4a2be99976db4a1fbc2708793869386938993919092169163c45a0155916004808301926020929190829003018186803b1580156200020757600080fd5b505afa1580156200021c573d6000803e3d6000fd5b505050506040513d601f19601f8201168201806040525081019062000242919062000297565b604080516001600160a01b039586168152938516602085015291841683830152909216606082015290519081900360800190a1505050565b80516001600160a01b03811681146200029257600080fd5b919050565b600060208284031215620002a9578081fd5b620002b4826200027a565b9392505050565b600080600060608486031215620002d0578182fd5b620002db846200027a565b9250620002eb602085016200027a565b9150620002fb604085016200027a565b90509250925092565b6127b080620003146000396000f3fe608060405234801561001057600080fd5b50600436106100b45760003560e01c80636b64a7be116100715780636b64a7be146101675780637c6c84af1461019257806391340a69146101a5578063cb4a1637146101c5578063cda85bd0146101d8578063e4df71b0146101eb57600080fd5b806307fa8627146100b957806310d1e85c146100e15780631275ec59146100f657806343cf6f2414610109578063605b46781461012a57806367159d2c1461013d575b600080fd5b6100cc6100c73660046121af565b6101fe565b60405190151581526020015b60405180910390f35b6100f46100ef3660046121c4565b61028e565b005b6100f4610104366004611e30565b610820565b61011c61011736600461208d565b6109fa565b6040519081526020016100d8565b6100cc61013836600461213e565b610c86565b61015061014b366004612398565b610fde565b6040805192151583526020830191909152016100d8565b60035461017a906001600160a01b031681565b6040516001600160a01b0390911681526020016100d8565b6101506101a03660046120dd565b6110bd565b6101b86101b3366004612398565b611504565b6040516100d891906124c7565b6101506101d3366004612398565b6117e1565b6101506101e6366004612015565b6118fe565b60025461017a906001600160a01b031681565b604051630c0b68cf60e31b8152600090309063605b46789061022a90889088908890889060040161248a565b602060405180830381600087803b15801561024457600080fd5b505af1925050508015610274575060408051601f3d908101601f1916820190925261027191810190612353565b60015b61028057506000610286565b50600190505b949350505050565b600080600080336001600160a01b0316630dfe16816040518163ffffffff1660e01b815260040160206040518083038186803b1580156102cd57600080fd5b505afa1580156102e1573d6000803e3d6000fd5b505050506040513d601f19601f820116820180604052508101906103059190611e53565b90506000336001600160a01b031663d21220a76040518163ffffffff1660e01b815260040160206040518083038186803b15801561034257600080fd5b505afa158015610356573d6000803e3d6000fd5b505050506040513d601f19601f8201168201806040525081019061037a9190611e53565b60025460405163e6a4390560e01b81526001600160a01b03858116600483015280841660248301529293506000929091169063e6a439059060440160206040518083038186803b1580156103cd57600080fd5b505afa1580156103e1573d6000803e3d6000fd5b505050506040513d601f19601f820116820180604052508101906104059190611e53565b9050336001600160a01b0382161461044c5760405162461bcd60e51b815260206004820152600560248201526410b830b4b960d91b60448201526064015b60405180910390fd5b6001600160a01b038b16301461048e5760405162461bcd60e51b815260206004820152600760248201526610b9b2b73232b960c91b6044820152606401610443565b600080808061049f8b8d018d611f4b565b9350935093509350836001600160a01b0316836001600160a01b031614156104ca57600097506104cf565b600197505b8761050a576103e56104e2836003612679565b6104ec9190612659565b6104f7906001612641565b99506105038a83612641565b9850610645565b6040516370a0823160e01b81526001600160a01b038681166004830152600091908616906370a082319060240160206040518083038186803b15801561054f57600080fd5b505afa158015610563573d6000803e3d6000fd5b505050506040513d601f19601f8201168201806040525081019061058791906123cb565b6040516370a0823160e01b81526001600160a01b0388811660048301529192506000918616906370a082319060240160206040518083038186803b1580156105ce57600080fd5b505afa1580156105e2573d6000803e3d6000fd5b505050506040513d601f19601f8201168201806040525081019061060691906123cb565b9050610614826103e5612679565b84610621836103e8612679565b61062b9190612679565b6106359190612659565b610640906001612641565b9a5050505b61064f8882611c4a565b6040805181815260068183015265185b5bdd5b9d60d21b606082015260208101849052905160008051602061275b8339815191529181900360800190a160408051818152600791810191909152660616d6f756e74360cc1b6060820152602081018f905260008051602061275b8339815191529060800160405180910390a16040805181815260078183015266616d6f756e743160c81b6060820152602081018f9052905160008051602061275b8339815191529181900360800190a1604080518181526003818301526266656560e81b6060820152602081018c9052905160008051602061275b8339815191529181900360800190a160408051818152600f818301526e616d6f756e7420746f20726570617960881b6060820152602081018b9052905160008051602061275b8339815191529181900360800190a160405163a9059cbb60e01b81526001600160a01b038681166004830152602482018b905284169063a9059cbb90604401602060405180830381600087803b1580156107d657600080fd5b505af11580156107ea573d6000803e3d6000fd5b505050506040513d601f19601f8201168201806040525081019061080e9190612353565b50505050505050505050505050505050565b6004546001600160a01b031633146108705760405162461bcd60e51b81526020600482015260136024820152722ab730baba3437b934bd32b21020b1ba34b7b760691b6044820152606401610443565b600380546002546001600160a01b038481166001600160a01b0319841681179094556040805163c45a015560e01b8152905193821694929091169263c45a015591600480820192602092909190829003018186803b1580156108d157600080fd5b505afa1580156108e5573d6000803e3d6000fd5b505050506040513d601f19601f820116820180604052508101906109099190611e53565b600280546001600160a01b0319166001600160a01b039283161790556003546040805163c45a015560e01b815290517fb9f5018683d304b9f17dd1337dcffecd3c7e92b7e4a2be99976db4a1fbc2708793869386938993919092169163c45a0155916004808301926020929190829003018186803b15801561098a57600080fd5b505afa15801561099e573d6000803e3d6000fd5b505050506040513d601f19601f820116820180604052508101906109c29190611e53565b604080516001600160a01b039586168152938516602085015291841683830152909216606082015290519081900360800190a1505050565b6001546000906060906001600160a01b0386811691161480610a2957506001546001600160a01b038581169116145b15610ad75760408051600280825260608201835290916020830190803683370190505090508481600081518110610a7057634e487b7160e01b600052603260045260246000fd5b60200260200101906001600160a01b031690816001600160a01b0316815250508381600181518110610ab257634e487b7160e01b600052603260045260246000fd5b60200260200101906001600160a01b031690816001600160a01b031681525050610bbb565b6040805160038082526080820190925290602082016060803683370190505090508481600081518110610b1a57634e487b7160e01b600052603260045260246000fd5b6001600160a01b0392831660209182029290920101526001805483519216918391908110610b5857634e487b7160e01b600052603260045260246000fd5b60200260200101906001600160a01b031690816001600160a01b0316815250508381600281518110610b9a57634e487b7160e01b600052603260045260246000fd5b60200260200101906001600160a01b031690816001600160a01b0316815250505b60405163d06ca61f60e01b815286906000906001600160a01b0383169063d06ca61f90610bee9088908790600401612520565b60006040518083038186803b158015610c0657600080fd5b505afa158015610c1a573d6000803e3d6000fd5b505050506040513d6000823e601f3d908101601f19168201604052610c4291908101906122c0565b90508060018451610c539190612698565b81518110610c7157634e487b7160e01b600052603260045260246000fd5b60200260200101519350505050949350505050565b600080856001600160a01b0316630dfe16816040518163ffffffff1660e01b815260040160206040518083038186803b158015610cc257600080fd5b505afa158015610cd6573d6000803e3d6000fd5b505050506040513d601f19601f82011682018060405250810190610cfa9190611e53565b90506000866001600160a01b031663d21220a76040518163ffffffff1660e01b815260040160206040518083038186803b158015610d3757600080fd5b505afa158015610d4b573d6000803e3d6000fd5b505050506040513d601f19601f82011682018060405250810190610d6f9190611e53565b90506000826001600160a01b0316896001600160a01b031614610d925782610d94565b815b60025460405163e6a4390560e01b81526001600160a01b038c8116600483015280841660248301529293506000929091169063e6a439059060440160206040518083038186803b158015610de757600080fd5b505afa158015610dfb573d6000803e3d6000fd5b505050506040513d601f19601f82011682018060405250810190610e1f9190611e53565b90506001600160a01b038116610e6d5760405162461bcd60e51b815260206004820152601360248201527214185a5c88191bd95cc81b9bdd08195e1a5cdd606a1b6044820152606401610443565b6000846001600160a01b03168b6001600160a01b031614610e8f576000610e91565b885b90506000846001600160a01b03168c6001600160a01b031614610eb5576000610eb7565b895b60405163022c0d9f60e01b81529091506001600160a01b0384169063022c0d9f90610eee908590859030908f908f90600401612539565b600060405180830381600087803b158015610f0857600080fd5b505af1925050508015610f19575060015b610f755760008051602061273b833981519152604051610f68906020808252818101527f556e7375636365737366756c2049556e69737761705632506169722073776170604082015260600190565b60405180910390a1610fcf565b6001965060008051602061273b833981519152604051610fc6906020808252601e908201527f5375636365737366756c2049556e697377617056325061697220737761700000604082015260600190565b60405180910390a15b50505050505095945050505050565b600080600080600080600087806020019051810190610ffd9190611e6f565b604051630cda85bd60e41b81526001600160a01b0380871660048301528086166024830152808516604483015283166064820152608481018290523060a48201819052959a5093985091965094509250600091829163cda85bd09060c4016040805180830381600087803b15801561107457600080fd5b505af1158015611088573d6000803e3d6000fd5b505050506040513d601f19601f820116820180604052508101906110ac919061236d565b909b909a5098505050505050505050565b6040516323b872dd60e01b815233600482015230602482015260448101849052600090819088906001600160a01b038916906323b872dd90606401602060405180830381600087803b15801561111257600080fd5b505af1158015611126573d6000803e3d6000fd5b505050506040513d601f19601f8201168201806040525081019061114a9190612353565b5060405163095ea7b360e01b81526001600160a01b038a811660048301526024820188905289169063095ea7b390604401602060405180830381600087803b15801561119557600080fd5b505af11580156111a9573d6000803e3d6000fd5b505050506040513d601f19601f820116820180604052508101906111cd9190612353565b506001546060906001600160a01b038a8116911614806111fa57506001546001600160a01b038981169116145b156112a8576040805160028082526060820183529091602083019080368337019050509050888160008151811061124157634e487b7160e01b600052603260045260246000fd5b60200260200101906001600160a01b031690816001600160a01b031681525050878160018151811061128357634e487b7160e01b600052603260045260246000fd5b60200260200101906001600160a01b031690816001600160a01b03168152505061138c565b60408051600380825260808201909252906020820160608036833701905050905088816000815181106112eb57634e487b7160e01b600052603260045260246000fd5b6001600160a01b039283166020918202929092010152600180548351921691839190811061132957634e487b7160e01b600052603260045260246000fd5b60200260200101906001600160a01b031690816001600160a01b031681525050878160028151811061136b57634e487b7160e01b600052603260045260246000fd5b60200260200101906001600160a01b031690816001600160a01b0316815250505b6001600160a01b0382166338ed1739888884896113aa42600a612641565b6040518663ffffffff1660e01b81526004016113ca959493929190612588565b600060405180830381600087803b1580156113e457600080fd5b505af192505050801561141957506040513d6000823e601f3d908101601f1916820160405261141691908101906122c0565b60015b6114735760008051602061273b83398151915260405161145e906020808252601190820152700556e7375636365737366756c207377617607c1b604082015260600190565b60405180910390a160009350600092506114f7565b60008051602061273b8339815191526040516114b2906020808252600f908201526e05375636365737366756c207377617608c1b604082015260600190565b60405180910390a16001945080600182516114cd9190612698565b815181106114eb57634e487b7160e01b600052603260045260246000fd5b60200260200101519350505b5050965096945050505050565b606060008280602001905181019061151c919061220f565b80519091506000908067ffffffffffffffff81111561154b57634e487b7160e01b600052604160045260246000fd5b604051908082528060200260200182016040528015611574578160200160208202803683370190505b50935060008051602061273b8339815191526040516115c49060208082526018908201527f5374617274696e673a206d756c7469466c617368537761700000000000000000604082015260600190565b60405180910390a1600091505b8082101561178b5760008051602061273b8339815191526040516116269060208082526018908201527f5374617274696e673a207374617274466c617368537761700000000000000000604082015260600190565b60405180910390a160008060008086868151811061165457634e487b7160e01b600052603260045260246000fd5b602002602001015180602001905181019061166f9190611fb5565b6040516307fa862760e01b81529397509195509350915030906307fa8627906116a290879087908790879060040161248a565b602060405180830381600087803b1580156116bc57600080fd5b505af11580156116d0573d6000803e3d6000fd5b505050506040513d601f19601f820116820180604052508101906116f49190612353565b88878151811061171457634e487b7160e01b600052603260045260246000fd5b60200260200101901515908115158152505060008051602061273b83398151915260405161176c906020808252601690820152750456e64696e673a207374617274466c617368537761760541b604082015260600190565b60405180910390a1505050508180611783906126db565b9250506115d1565b60008051602061273b8339815191526040516117d1906020808252601690820152750456e64696e673a206d756c7469466c617368537761760541b604082015260600190565b60405180910390a1505050919050565b60008060008051602061273b8339815191526040516118319060208082526017908201527f6d6574686f643a2073696d706c65417262697472616765000000000000000000604082015260600190565b60405180910390a1600080600080600080888060200190518101906118569190611ed9565b955095509550955095509550600080306001600160a01b0316637c6c84af8888888888306040518763ffffffff1660e01b815260040161189b96959493929190612452565b6040805180830381600087803b1580156118b457600080fd5b505af11580156118c8573d6000803e3d6000fd5b505050506040513d601f19601f820116820180604052508101906118ec919061236d565b909c909b509950505050505050505050565b6000806000806000306001600160a01b0316637c6c84af8c8b8b8b6000306040518763ffffffff1660e01b815260040161193d96959493929190612452565b6040805180830381600087803b15801561195657600080fd5b505af115801561196a573d6000803e3d6000fd5b505050506040513d601f19601f8201168201806040525081019061198e919061236d565b509050806119a55760008094509450505050611c3f565b6040516370a0823160e01b81523060048201819052906343cf6f24908c908b908d906001600160a01b038316906370a082319060240160206040518083038186803b1580156119f357600080fd5b505afa158015611a07573d6000803e3d6000fd5b505050506040513d601f19601f82011682018060405250810190611a2b91906123cb565b6040516001600160e01b031960e087901b1681526001600160a01b039485166004820152928416602484015292166044820152606481019190915260840160206040518083038186803b158015611a8157600080fd5b505afa158015611a95573d6000803e3d6000fd5b505050506040513d601f19601f82011682018060405250810190611ab991906123cb565b6040516370a0823160e01b8152306004820181905291935060009250637c6c84af908c908b908d906001600160a01b038316906370a082319060240160206040518083038186803b158015611b0d57600080fd5b505afa158015611b21573d6000803e3d6000fd5b505050506040513d601f19601f82011682018060405250810190611b4591906123cb565b60008c6040518763ffffffff1660e01b8152600401611b6996959493929190612452565b6040805180830381600087803b158015611b8257600080fd5b505af1158015611b96573d6000803e3d6000fd5b505050506040513d601f19601f82011682018060405250810190611bba919061236d565b506040516370a0823160e01b81523060048201529093508391506001600160a01b038a16906370a082319060240160206040518083038186803b158015611c0057600080fd5b505afa158015611c14573d6000803e3d6000fd5b505050506040513d601f19601f82011682018060405250810190611c3891906123cb565b9350935050505b965096945050505050565b60008051602061273b833981519152604051611c89906020808252600f908201526e6d6574686f643a206578656375746560881b604082015260600190565b60405180910390a181611d105760405163cb4a163760e01b8152309063cb4a163790611cb990849060040161250d565b6040805180830381600087803b158015611cd257600080fd5b505af1158015611ce6573d6000803e3d6000fd5b505050506040513d601f19601f82011682018060405250810190611d0a919061236d565b50505050565b8160011415611d3c576040516319c5674b60e21b815230906367159d2c90611cb990849060040161250d565b5050565b80518015158114611d5057600080fd5b919050565b60008083601f840112611d66578182fd5b50813567ffffffffffffffff811115611d7d578182fd5b602083019150836020828501011115611d9557600080fd5b9250929050565b600082601f830112611dac578081fd5b8135611dbf611dba82612619565b6125c4565b818152846020838601011115611dd3578283fd5b816020850160208301379081016020019190915292915050565b600082601f830112611dfd578081fd5b8151611e0b611dba82612619565b818152846020838601011115611e1f578283fd5b6102868260208301602087016126af565b600060208284031215611e41578081fd5b8135611e4c81612722565b9392505050565b600060208284031215611e64578081fd5b8151611e4c81612722565b600080600080600060a08688031215611e86578081fd5b8551611e9181612722565b6020870151909550611ea281612722565b6040870151909450611eb381612722565b6060870151909350611ec481612722565b80925050608086015190509295509295909350565b60008060008060008060c08789031215611ef1578081fd5b8651611efc81612722565b6020880151909650611f0d81612722565b6040880151909550611f1e81612722565b6060880151909450611f2f81612722565b809350506080870151915060a087015190509295509295509295565b60008060008060808587031215611f60578384fd5b8435611f6b81612722565b93506020850135611f7b81612722565b925060408501359150606085013567ffffffffffffffff811115611f9d578182fd5b611fa987828801611d9c565b91505092959194509250565b60008060008060808587031215611fca578384fd5b8451611fd581612722565b6020860151909450611fe681612722565b60408601516060870151919450925067ffffffffffffffff811115612009578182fd5b611fa987828801611ded565b60008060008060008060c0878903121561202d578384fd5b863561203881612722565b9550602087013561204881612722565b9450604087013561205881612722565b9350606087013561206881612722565b92506080870135915060a087013561207f81612722565b809150509295509295509295565b600080600080608085870312156120a2578182fd5b84356120ad81612722565b935060208501356120bd81612722565b925060408501356120cd81612722565b9396929550929360600135925050565b60008060008060008060c087890312156120f5578384fd5b863561210081612722565b9550602087013561211081612722565b9450604087013561212081612722565b9350606087013592506080870135915060a087013561207f81612722565b600080600080600060808688031215612155578283fd5b853561216081612722565b9450602086013561217081612722565b935060408601359250606086013567ffffffffffffffff811115612192578182fd5b61219e88828901611d55565b969995985093965092949392505050565b60008060008060808587031215611f60578182fd5b6000806000806000608086880312156121db578283fd5b85356121e681612722565b94506020860135935060408601359250606086013567ffffffffffffffff811115612192578182fd5b60006020808385031215612221578182fd5b825167ffffffffffffffff80821115612238578384fd5b818501915085601f83011261224b578384fd5b8151612259611dba826125f5565b80828252858201915085850189878560051b8801011115612278578788fd5b875b848110156122b15781518681111561229057898afd5b61229e8c8a838b0101611ded565b855250928701929087019060010161227a565b50909998505050505050505050565b600060208083850312156122d2578182fd5b825167ffffffffffffffff8111156122e8578283fd5b8301601f810185136122f8578283fd5b8051612306611dba826125f5565b80828252848201915084840188868560051b8701011115612325578687fd5b8694505b83851015612347578051835260019490940193918501918501612329565b50979650505050505050565b600060208284031215612364578081fd5b611e4c82611d40565b6000806040838503121561237f578182fd5b61238883611d40565b9150602083015190509250929050565b6000602082840312156123a9578081fd5b813567ffffffffffffffff8111156123bf578182fd5b61028684828501611d9c565b6000602082840312156123dc578081fd5b5051919050565b6000815180845260208085019450808401835b8381101561241b5781516001600160a01b0316875295820195908201906001016123f6565b509495945050505050565b6000815180845261243e8160208601602086016126af565b601f01601f19169290920160200192915050565b6001600160a01b039687168152948616602086015292851660408501526060840191909152608083015290911660a082015260c00190565b6001600160a01b03858116825284166020820152604081018390526080606082018190526000906124bd90830184612426565b9695505050505050565b6020808252825182820181905260009190848201906040850190845b818110156125015783511515835292840192918401916001016124e3565b50909695505050505050565b602081526000611e4c6020830184612426565b82815260406020820152600061028660408301846123e3565b858152602081018590526001600160a01b03841660408201526080606082018190528101829052818360a0830137600081830160a090810191909152601f909201601f19160101949350505050565b85815284602082015260a0604082015260006125a760a08301866123e3565b6001600160a01b0394909416606083015250608001529392505050565b604051601f8201601f1916810167ffffffffffffffff811182821017156125ed576125ed61270c565b604052919050565b600067ffffffffffffffff82111561260f5761260f61270c565b5060051b60200190565b600067ffffffffffffffff8211156126335761263361270c565b50601f01601f191660200190565b60008219821115612654576126546126f6565b500190565b60008261267457634e487b7160e01b81526012600452602481fd5b500490565b6000816000190483118215151615612693576126936126f6565b500290565b6000828210156126aa576126aa6126f6565b500390565b60005b838110156126ca5781810151838201526020016126b2565b83811115611d0a5750506000910152565b60006000198214156126ef576126ef6126f6565b5060010190565b634e487b7160e01b600052601160045260246000fd5b634e487b7160e01b600052604160045260246000fd5b6001600160a01b038116811461273757600080fd5b5056fecf34ef537ac33ee1ac626ca1587a0a7e8e51561e5514f8cb36afa1c5102b3babdd970dd9b5bfe707922155b058a407655cb18288b807e2216442bca8ad83d6b5a264697066735822122076fb9c99b0dc0f0ed4f735227788ff1d24fbb8d5f2b76084be7f7ec355118ba764736f6c63430008040033",
  "linkReferences": {},
  "deployedLinkReferences": {}
}