{
  "_format": "hh-sol-artifact-1",
  "contractName": "PriceHelper",
  "sourceName": "contracts/PriceHelper.sol",
  "abi": [
    {
      "inputs": [
        {
          "internalType": "address payable",
          "name": "_uniHelper",
          "type": "address"
        },
        {
          "internalType": "address",
          "name": "_dataStore",
          "type": "address"
        },
        {
          "internalType": "address",
          "name": "_weth",
          "type": "address"
        }
      ],
      "stateMutability": "nonpayable",
      "type": "constructor"
    },
    {
      "inputs": [
        {
          "internalType": "address",
          "name": "_token0",
          "type": "address"
        },
        {
          "internalType": "address",
          "name": "_token1",
          "type": "address"
        }
      ],
      "name": "getAllPairPrices",
      "outputs": [
        {
          "internalType": "bool",
          "name": "success",
          "type": "bool"
        },
        {
          "components": [
            {
              "internalType": "address",
              "name": "factory",
              "type": "address"
            },
            {
              "internalType": "address",
              "name": "pairAddress",
              "type": "address"
            },
            {
              "internalType": "address",
              "name": "token0",
              "type": "address"
            },
            {
              "internalType": "address",
              "name": "token1",
              "type": "address"
            },
            {
              "internalType": "uint256",
              "name": "reserve0",
              "type": "uint256"
            },
            {
              "internalType": "uint256",
              "name": "reserve1",
              "type": "uint256"
            },
            {
              "internalType": "uint256",
              "name": "timestamp",
              "type": "uint256"
            },
            {
              "internalType": "uint256",
              "name": "price0CumulativeLast",
              "type": "uint256"
            },
            {
              "internalType": "uint256",
              "name": "price1CumulativeLast",
              "type": "uint256"
            },
            {
              "internalType": "uint256",
              "name": "totalSupply",
              "type": "uint256"
            }
          ],
          "internalType": "struct UniHelper.PairInfo[]",
          "name": "matches",
          "type": "tuple[]"
        }
      ],
      "stateMutability": "view",
      "type": "function"
    }
  ],
  "bytecode": "0x608060405234801561001057600080fd5b50604051610b91380380610b9183398101604081905261002f91610071565b600080546001600160a01b039485166001600160a01b0319918216179091556001805493851693821693909317909255600280549190931691161790556100d5565b600080600060608486031215610085578283fd5b8351610090816100bd565b60208501519093506100a1816100bd565b60408501519092506100b2816100bd565b809150509250925092565b6001600160a01b03811681146100d257600080fd5b50565b610aad806100e46000396000f3fe608060405234801561001057600080fd5b506004361061002b5760003560e01c80636e26ebbb14610030575b600080fd5b61004361003e36600461059d565b61005a565b6040516100519291906108c3565b60405180910390f35b60015460405163bdb2f12d60e01b81526000600482018190529160609182916001600160a01b03169063bdb2f12d9060240160006040518083038186803b1580156100a457600080fd5b505afa1580156100b8573d6000803e3d6000fd5b505050506040513d6000823e601f3d908101601f191682016040526100e091908101906105d5565b90506000805b825182101561024e57600083838151811061011157634e487b7160e01b600052603260045260246000fd5b60200260200101516020015190506000816001600160a01b031663c45a01556040518163ffffffff1660e01b815260040160206040518083038186803b15801561015a57600080fd5b505afa15801561016e573d6000803e3d6000fd5b505050506040513d601f19601f82011682018060405250810190610192919061057a565b60405163e6a4390560e01b81526001600160a01b038b811660048301528a8116602483015291925060009183169063e6a439059060440160206040518083038186803b1580156101e157600080fd5b505afa1580156101f5573d6000803e3d6000fd5b505050506040513d601f19601f82011682018060405250810190610219919061057a565b90506001600160a01b03811615610238578361023481610a22565b9450505b505050818061024690610a22565b9250506100e6565b8067ffffffffffffffff81111561027557634e487b7160e01b600052604160045260246000fd5b60405190808252806020026020018201604052801561032057816020015b61030d60405180610140016040528060006001600160a01b0316815260200160006001600160a01b0316815260200160006001600160a01b0316815260200160006001600160a01b031681526020016000815260200160008152602001600081526020016000815260200160008152602001600081525090565b8152602001906001900390816102935790505b509350606060008093505b84518410156104cc57600085858151811061035657634e487b7160e01b600052603260045260246000fd5b60200260200101516020015190506000816001600160a01b031663c45a01556040518163ffffffff1660e01b815260040160206040518083038186803b15801561039f57600080fd5b505afa1580156103b3573d6000803e3d6000fd5b505050506040513d601f19601f820116820180604052508101906103d7919061057a565b60405163e6a4390560e01b81526001600160a01b038d811660048301528c8116602483015291925060009183169063e6a439059060440160206040518083038186803b15801561042657600080fd5b505afa15801561043a573d6000803e3d6000fd5b505050506040513d601f19601f8201168201806040525081019061045e919061057a565b90506001600160a01b038116156104b6578085858151811061049057634e487b7160e01b600052603260045260246000fd5b6001600160a01b0390921660209283029190910190910152836104b281610a22565b9450505b50505083806104c490610a22565b94505061032b565b81511561055e576000546040516342713bd160e01b8152600198506001600160a01b03909116906342713bd190610507908590600401610876565b60006040518083038186803b15801561051f57600080fd5b505afa158015610533573d6000803e3d6000fd5b505050506040513d6000823e601f3d908101601f1916820160405261055b9190810190610751565b95505b50505050509250929050565b805161057581610a5f565b919050565b60006020828403121561058b578081fd5b815161059681610a5f565b9392505050565b600080604083850312156105af578081fd5b82356105ba81610a5f565b915060208301356105ca81610a5f565b809150509250929050565b600060208083850312156105e7578182fd5b825167ffffffffffffffff808211156105fe578384fd5b818501915085601f830112610611578384fd5b815161062461061f826109fe565b6109cd565b80828252858201915085850189878560051b8801011115610643578788fd5b875b848110156107425781518681111561065b57898afd5b8701601f196080828e0382011215610671578a8bfd5b610679610980565b8a83015189811115610689578c8dfd5b8301603f81018f13610699578c8dfd5b8b8101518a8111156106ad576106ad610a49565b6106bd8d85601f840116016109cd565b93508084528f60408284010111156106d3578d8efd5b8d5b818110156106f157828101604001518582018f01528d016106d5565b81811115610701578e8e83870101525b5050508181526107136040840161056a565b818c01526060838101516040830152608090930151928101929092525084529287019290870190600101610645565b50909998505050505050505050565b60006020808385031215610763578182fd5b825167ffffffffffffffff811115610779578283fd5b8301601f81018513610789578283fd5b805161079761061f826109fe565b81815283810190838501610140808502860187018a10156107b6578788fd5b8795505b848610156108685780828b0312156107d0578788fd5b6107d86109a9565b6107e18361056a565b81526107ee88840161056a565b8882015260406107ff81850161056a565b90820152606061081084820161056a565b908201526080838101519082015260a0808401519082015260c0808401519082015260e080840151908201526101008084015190820152610120808401519082015284526001959095019492860192908101906107ba565b509098975050505050505050565b6020808252825182820181905260009190848201906040850190845b818110156108b75783516001600160a01b031683529284019291840191600101610892565b50909695505050505050565b60006040808301851515845260208281860152818651808452606093508387019150828801865b8281101561097157815180516001600160a01b03908116865286820151811687870152888201518116898701528782015116878601526080808201519086015260a0808201519086015260c0808201519086015260e080820151908601526101008082015190860152610120908101519085015261014090930192908401906001016108ea565b50919998505050505050505050565b6040516080810167ffffffffffffffff811182821017156109a3576109a3610a49565b60405290565b604051610140810167ffffffffffffffff811182821017156109a3576109a3610a49565b604051601f8201601f1916810167ffffffffffffffff811182821017156109f6576109f6610a49565b604052919050565b600067ffffffffffffffff821115610a1857610a18610a49565b5060051b60200190565b6000600019821415610a4257634e487b7160e01b81526011600452602481fd5b5060010190565b634e487b7160e01b600052604160045260246000fd5b6001600160a01b0381168114610a7457600080fd5b5056fea26469706673582212202a29132d5196164984f4577d3a2555ff3cf233f2b2719e68639b02342c0a6ef164736f6c63430008040033",
  "linkReferences": {},
  "deployedLinkReferences": {}
}