{
  "_format": "hh-sol-artifact-1",
  "contractName": "UniHelper",
  "sourceName": "contracts/UniHelper.sol",
  "abi": [
    {
      "inputs": [
        {
          "internalType": "address",
          "name": "_wmatic",
          "type": "address"
        }
      ],
      "stateMutability": "nonpayable",
      "type": "constructor"
    },
    {
      "stateMutability": "payable",
      "type": "fallback"
    },
    {
      "inputs": [],
      "name": "ETH_ADDRESS",
      "outputs": [
        {
          "internalType": "address",
          "name": "",
          "type": "address"
        }
      ],
      "stateMutability": "view",
      "type": "function"
    },
    {
      "inputs": [],
      "name": "WETH",
      "outputs": [
        {
          "internalType": "contract IWETH",
          "name": "",
          "type": "address"
        }
      ],
      "stateMutability": "view",
      "type": "function"
    },
    {
      "inputs": [],
      "name": "ZERO_ADDRESS",
      "outputs": [
        {
          "internalType": "address",
          "name": "",
          "type": "address"
        }
      ],
      "stateMutability": "view",
      "type": "function"
    },
    {
      "inputs": [
        {
          "internalType": "contract IUniswapV2Pair",
          "name": "pair",
          "type": "address"
        }
      ],
      "name": "_getPairInfo",
      "outputs": [
        {
          "components": [
            {
              "internalType": "address",
              "name": "factory",
              "type": "address"
            },
            {
              "internalType": "address",
              "name": "pairAddress",
              "type": "address"
            },
            {
              "internalType": "address",
              "name": "token0",
              "type": "address"
            },
            {
              "internalType": "address",
              "name": "token1",
              "type": "address"
            },
            {
              "internalType": "uint256",
              "name": "reserve0",
              "type": "uint256"
            },
            {
              "internalType": "uint256",
              "name": "reserve1",
              "type": "uint256"
            },
            {
              "internalType": "uint256",
              "name": "timestamp",
              "type": "uint256"
            },
            {
              "internalType": "uint256",
              "name": "price0CumulativeLast",
              "type": "uint256"
            },
            {
              "internalType": "uint256",
              "name": "price1CumulativeLast",
              "type": "uint256"
            },
            {
              "internalType": "uint256",
              "name": "totalSupply",
              "type": "uint256"
            }
          ],
          "internalType": "struct UniHelper.PairInfo",
          "name": "info",
          "type": "tuple"
        }
      ],
      "stateMutability": "view",
      "type": "function"
    },
    {
      "inputs": [],
      "name": "_wethAddress",
      "outputs": [
        {
          "internalType": "address",
          "name": "",
          "type": "address"
        }
      ],
      "stateMutability": "view",
      "type": "function"
    },
    {
      "inputs": [
        {
          "internalType": "contract IUniswapV2Router02",
          "name": "_router0",
          "type": "address"
        },
        {
          "internalType": "contract IUniswapV2Router02",
          "name": "_router1",
          "type": "address"
        },
        {
          "internalType": "address",
          "name": "_buyToken",
          "type": "address"
        },
        {
          "internalType": "address",
          "name": "_sellToken",
          "type": "address"
        },
        {
          "internalType": "address payable",
          "name": "_to",
          "type": "address"
        },
        {
          "internalType": "uint256",
          "name": "_buyAmountIn",
          "type": "uint256"
        }
      ],
      "name": "arbitrageSwap",
      "outputs": [
        {
          "internalType": "bool",
          "name": "",
          "type": "bool"
        },
        {
          "internalType": "uint256[]",
          "name": "",
          "type": "uint256[]"
        }
      ],
      "stateMutability": "payable",
      "type": "function"
    },
    {
      "inputs": [
        {
          "internalType": "contract UniswapV2Factory",
          "name": "factory",
          "type": "address"
        }
      ],
      "name": "getAllPairsLength",
      "outputs": [
        {
          "internalType": "uint256",
          "name": "",
          "type": "uint256"
        }
      ],
      "stateMutability": "view",
      "type": "function"
    },
    {
      "inputs": [
        {
          "internalType": "address",
          "name": "_router",
          "type": "address"
        },
        {
          "internalType": "uint256",
          "name": "amountOut",
          "type": "uint256"
        },
        {
          "internalType": "address[]",
          "name": "path",
          "type": "address[]"
        }
      ],
      "name": "getAmountsIn",
      "outputs": [
        {
          "internalType": "uint256[]",
          "name": "amounts",
          "type": "uint256[]"
        }
      ],
      "stateMutability": "view",
      "type": "function"
    },
    {
      "inputs": [
        {
          "internalType": "contract IUniswapV2Router02",
          "name": "router",
          "type": "address"
        },
        {
          "internalType": "uint256",
          "name": "amountIn",
          "type": "uint256"
        },
        {
          "internalType": "address[]",
          "name": "path",
          "type": "address[]"
        }
      ],
      "name": "getAmountsOut",
      "outputs": [
        {
          "internalType": "uint256[]",
          "name": "amounts",
          "type": "uint256[]"
        }
      ],
      "stateMutability": "view",
      "type": "function"
    },
    {
      "inputs": [
        {
          "internalType": "contract IUniswapV2Router02",
          "name": "router",
          "type": "address"
        }
      ],
      "name": "getFactoryAddress",
      "outputs": [
        {
          "internalType": "address",
          "name": "",
          "type": "address"
        }
      ],
      "stateMutability": "pure",
      "type": "function"
    },
    {
      "inputs": [
        {
          "internalType": "contract IUniswapV2Pair[]",
          "name": "pairs",
          "type": "address[]"
        }
      ],
      "name": "getMultiPairsInfo",
      "outputs": [
        {
          "components": [
            {
              "internalType": "address",
              "name": "factory",
              "type": "address"
            },
            {
              "internalType": "address",
              "name": "pairAddress",
              "type": "address"
            },
            {
              "internalType": "address",
              "name": "token0",
              "type": "address"
            },
            {
              "internalType": "address",
              "name": "token1",
              "type": "address"
            },
            {
              "internalType": "uint256",
              "name": "reserve0",
              "type": "uint256"
            },
            {
              "internalType": "uint256",
              "name": "reserve1",
              "type": "uint256"
            },
            {
              "internalType": "uint256",
              "name": "timestamp",
              "type": "uint256"
            },
            {
              "internalType": "uint256",
              "name": "price0CumulativeLast",
              "type": "uint256"
            },
            {
              "internalType": "uint256",
              "name": "price1CumulativeLast",
              "type": "uint256"
            },
            {
              "internalType": "uint256",
              "name": "totalSupply",
              "type": "uint256"
            }
          ],
          "internalType": "struct UniHelper.PairInfo[]",
          "name": "info",
          "type": "tuple[]"
        }
      ],
      "stateMutability": "view",
      "type": "function"
    },
    {
      "inputs": [
        {
          "internalType": "contract UniswapV2Factory",
          "name": "factory",
          "type": "address"
        },
        {
          "internalType": "address",
          "name": "token0",
          "type": "address"
        },
        {
          "internalType": "address",
          "name": "token1",
          "type": "address"
        }
      ],
      "name": "getPairAddress",
      "outputs": [
        {
          "internalType": "address",
          "name": "",
          "type": "address"
        }
      ],
      "stateMutability": "view",
      "type": "function"
    },
    {
      "inputs": [
        {
          "internalType": "contract UniswapV2Factory",
          "name": "factory",
          "type": "address"
        },
        {
          "internalType": "address",
          "name": "token0",
          "type": "address"
        },
        {
          "internalType": "address",
          "name": "token1",
          "type": "address"
        }
      ],
      "name": "getPairInfo",
      "outputs": [
        {
          "components": [
            {
              "internalType": "address",
              "name": "factory",
              "type": "address"
            },
            {
              "internalType": "address",
              "name": "pairAddress",
              "type": "address"
            },
            {
              "internalType": "address",
              "name": "token0",
              "type": "address"
            },
            {
              "internalType": "address",
              "name": "token1",
              "type": "address"
            },
            {
              "internalType": "uint256",
              "name": "reserve0",
              "type": "uint256"
            },
            {
              "internalType": "uint256",
              "name": "reserve1",
              "type": "uint256"
            },
            {
              "internalType": "uint256",
              "name": "timestamp",
              "type": "uint256"
            },
            {
              "internalType": "uint256",
              "name": "price0CumulativeLast",
              "type": "uint256"
            },
            {
              "internalType": "uint256",
              "name": "price1CumulativeLast",
              "type": "uint256"
            },
            {
              "internalType": "uint256",
              "name": "totalSupply",
              "type": "uint256"
            }
          ],
          "internalType": "struct UniHelper.PairInfo",
          "name": "info",
          "type": "tuple"
        }
      ],
      "stateMutability": "view",
      "type": "function"
    },
    {
      "inputs": [
        {
          "internalType": "contract UniswapV2Factory",
          "name": "_uniswapFactory",
          "type": "address"
        },
        {
          "internalType": "uint256",
          "name": "_start",
          "type": "uint256"
        },
        {
          "internalType": "uint256",
          "name": "_stop",
          "type": "uint256"
        }
      ],
      "name": "getPairsByIndexRange",
      "outputs": [
        {
          "internalType": "address[3][]",
          "name": "",
          "type": "address[3][]"
        }
      ],
      "stateMutability": "view",
      "type": "function"
    },
    {
      "inputs": [
        {
          "internalType": "contract IUniswapV2Router02",
          "name": "router",
          "type": "address"
        },
        {
          "internalType": "address",
          "name": "token0",
          "type": "address"
        },
        {
          "internalType": "address",
          "name": "token1",
          "type": "address"
        }
      ],
      "name": "getReserves",
      "outputs": [
        {
          "internalType": "uint112",
          "name": "",
          "type": "uint112"
        },
        {
          "internalType": "uint112",
          "name": "",
          "type": "uint112"
        },
        {
          "internalType": "uint32",
          "name": "",
          "type": "uint32"
        }
      ],
      "stateMutability": "view",
      "type": "function"
    },
    {
      "inputs": [
        {
          "internalType": "contract IUniswapV2Pair[]",
          "name": "_pairs",
          "type": "address[]"
        }
      ],
      "name": "getReservesByPairs",
      "outputs": [
        {
          "components": [
            {
              "internalType": "address",
              "name": "factory",
              "type": "address"
            },
            {
              "internalType": "address",
              "name": "pairAddress",
              "type": "address"
            },
            {
              "internalType": "uint256",
              "name": "reserve0",
              "type": "uint256"
            },
            {
              "internalType": "uint256",
              "name": "reserve1",
              "type": "uint256"
            },
            {
              "internalType": "uint256",
              "name": "timestamp",
              "type": "uint256"
            },
            {
              "internalType": "address",
              "name": "token0",
              "type": "address"
            },
            {
              "internalType": "address",
              "name": "token1",
              "type": "address"
            }
          ],
          "internalType": "struct UniHelper.ResevresWithTokens[]",
          "name": "result",
          "type": "tuple[]"
        }
      ],
      "stateMutability": "view",
      "type": "function"
    },
    {
      "inputs": [
        {
          "internalType": "contract IUniswapV2Router02",
          "name": "router",
          "type": "address"
        },
        {
          "internalType": "address",
          "name": "token0",
          "type": "address"
        },
        {
          "internalType": "address",
          "name": "token1",
          "type": "address"
        }
      ],
      "name": "getReservesWithTokens",
      "outputs": [
        {
          "internalType": "address",
          "name": "",
          "type": "address"
        },
        {
          "internalType": "address",
          "name": "",
          "type": "address"
        },
        {
          "internalType": "uint112",
          "name": "",
          "type": "uint112"
        },
        {
          "internalType": "uint112",
          "name": "",
          "type": "uint112"
        },
        {
          "internalType": "uint32",
          "name": "",
          "type": "uint32"
        }
      ],
      "stateMutability": "view",
      "type": "function"
    },
    {
      "inputs": [
        {
          "internalType": "contract ERC20[]",
          "name": "_tokens",
          "type": "address[]"
        }
      ],
      "name": "getTokenInfo",
      "outputs": [
        {
          "components": [
            {
              "internalType": "string",
              "name": "name",
              "type": "string"
            },
            {
              "internalType": "string",
              "name": "symbol",
              "type": "string"
            },
            {
              "internalType": "address",
              "name": "_address",
              "type": "address"
            },
            {
              "internalType": "uint256",
              "name": "decimals",
              "type": "uint256"
            },
            {
              "internalType": "uint256",
              "name": "totalSupply",
              "type": "uint256"
            }
          ],
          "internalType": "struct UniHelper.TokenInfo[]",
          "name": "tokens",
          "type": "tuple[]"
        }
      ],
      "stateMutability": "view",
      "type": "function"
    },
    {
      "inputs": [
        {
          "internalType": "address",
          "name": "to",
          "type": "address"
        }
      ],
      "name": "sendAndWrapETH",
      "outputs": [
        {
          "internalType": "bool",
          "name": "",
          "type": "bool"
        }
      ],
      "stateMutability": "payable",
      "type": "function"
    },
    {
      "inputs": [
        {
          "internalType": "contract IUniswapV2Router02",
          "name": "router",
          "type": "address"
        },
        {
          "internalType": "address",
          "name": "_tokenIn",
          "type": "address"
        },
        {
          "internalType": "address",
          "name": "_tokenOut",
          "type": "address"
        },
        {
          "internalType": "uint256",
          "name": "_amountIn",
          "type": "uint256"
        },
        {
          "internalType": "uint256",
          "name": "_amountOutMin",
          "type": "uint256"
        },
        {
          "internalType": "address payable",
          "name": "_to",
          "type": "address"
        }
      ],
      "name": "swap",
      "outputs": [
        {
          "internalType": "uint256[]",
          "name": "amounts",
          "type": "uint256[]"
        }
      ],
      "stateMutability": "payable",
      "type": "function"
    },
    {
      "inputs": [
        {
          "internalType": "address",
          "name": "_user",
          "type": "address"
        },
        {
          "internalType": "address",
          "name": "token",
          "type": "address"
        }
      ],
      "name": "tokenBalance",
      "outputs": [
        {
          "internalType": "uint256",
          "name": "balance",
          "type": "uint256"
        }
      ],
      "stateMutability": "view",
      "type": "function"
    },
    {
      "inputs": [
        {
          "internalType": "uint256",
          "name": "amount",
          "type": "uint256"
        }
      ],
      "name": "unwrapIt",
      "outputs": [
        {
          "internalType": "bool",
          "name": "sent",
          "type": "bool"
        }
      ],
      "stateMutability": "nonpayable",
      "type": "function"
    },
    {
      "inputs": [
        {
          "internalType": "address",
          "name": "_wmatic",
          "type": "address"
        }
      ],
      "name": "updateWethAddress",
      "outputs": [],
      "stateMutability": "nonpayable",
      "type": "function"
    },
    {
      "inputs": [
        {
          "internalType": "address",
          "name": "_user",
          "type": "address"
        }
      ],
      "name": "walletBalance",
      "outputs": [
        {
          "internalType": "uint256",
          "name": "balance",
          "type": "uint256"
        }
      ],
      "stateMutability": "view",
      "type": "function"
    },
    {
      "inputs": [],
      "name": "weth",
      "outputs": [
        {
          "internalType": "address",
          "name": "wethAddress",
          "type": "address"
        }
      ],
      "stateMutability": "view",
      "type": "function"
    },
    {
      "inputs": [],
      "name": "wrapIt",
      "outputs": [
        {
          "internalType": "bool",
          "name": "",
          "type": "bool"
        }
      ],
      "stateMutability": "payable",
      "type": "function"
    },
    {
      "stateMutability": "payable",
      "type": "receive"
    }
  ],
  "bytecode": "0x6080604052600180546001600160a01b031990811673eeeeeeeeeeeeeeeeeeeeeeeeeeeeeeeeeeeeeeee179091556002805490911690553480156200004357600080fd5b506040516200496e3803806200496e833981016040819052620000669162000098565b600380546001600160a01b0383166001600160a01b0319918216811790925560008054909116909117905550620000c8565b600060208284031215620000aa578081fd5b81516001600160a01b0381168114620000c1578182fd5b9392505050565b61489680620000d86000396000f3fe6080604052600436106101735760003560e01c8063812e2d70116100c8578063ad5c464811610084578063cf9cd8f811610061578063cf9cd8f814610533578063d53df30d14610553578063f065aa9c1461055b578063f54069701461057c57005b8063ad5c4648146104d3578063bb7b9c76146104f3578063c529447f1461051357005b8063812e2d7014610403578063843639ba1461042657806390aafc0114610446578063a734f06e14610466578063a7bce75514610486578063ab2217e4146104a657005b806342713bd11161012f5780634dbf0f391161010c5780634dbf0f3914610383578063524d01f8146103b0578063538ba4f9146103d05780637c6c84af146103f057005b806342713bd1146102fc5780634a69ac50146103295780634d295b491461035657005b80630a6dc7ba1461017c5780631049334f146101b957806314d75181146101ec578063192128b214610251578063327494611461027e5780633fc8cef3146102ca57005b3661017a57005b005b34801561018857600080fd5b5061017a610197366004613bd5565b600080546001600160a01b0319166001600160a01b0392909216919091179055565b3480156101c557600080fd5b506101d96101d4366004613c0d565b61059c565b6040519081526020015b60405180910390f35b3480156101f857600080fd5b5061020c610207366004613ef8565b6105af565b604080516001600160a01b0396871681529590941660208601526001600160701b039283169385019390935216606083015263ffffffff16608082015260a0016101e3565b34801561025d57600080fd5b5061027161026c366004613c45565b6107ae565b6040516101e391906144b2565b34801561028a57600080fd5b5061029e610299366004613ef8565b61083e565b604080516001600160701b03948516815293909216602084015263ffffffff16908201526060016101e3565b3480156102d657600080fd5b506003546001600160a01b03165b6040516001600160a01b0390911681526020016101e3565b34801561030857600080fd5b5061031c610317366004613daf565b610948565b6040516101e39190614330565b34801561033557600080fd5b50610349610344366004613c9b565b610a33565b6040516101e39190614405565b34801561036257600080fd5b50610376610371366004613bd5565b610d44565b6040516101e391906145e9565b34801561038f57600080fd5b506103a361039e366004613d40565b6111e4565b6040516101e39190614373565b3480156103bc57600080fd5b506102e46103cb366004613ef8565b61173b565b3480156103dc57600080fd5b506002546102e4906001600160a01b031681565b6102716103fe366004613f42565b6117c8565b610416610411366004613bd5565b612144565b60405190151581526020016101e3565b34801561043257600080fd5b50610416610441366004614133565b612280565b34801561045257600080fd5b506003546102e4906001600160a01b031681565b34801561047257600080fd5b506001546102e4906001600160a01b031681565b34801561049257600080fd5b506102e46104a1366004613bd5565b612300565b3480156104b257600080fd5b506104c66104c1366004614029565b612373565b6040516101e391906142bf565b3480156104df57600080fd5b506000546102e4906001600160a01b031681565b3480156104ff57600080fd5b5061027161050e366004613c45565b612774565b34801561051f57600080fd5b506101d961052e366004613bd5565b6127f9565b34801561053f57600080fd5b506101d961054e366004613bd5565b61286c565b61041661287e565b61056e610569366004613fb1565b612a66565b6040516101e39291906144c5565b34801561058857600080fd5b50610376610597366004613ef8565b6137bd565b60006105a88383613855565b9392505050565b600080600080600080610633896001600160a01b031663c45a01556040518163ffffffff1660e01b815260040160206040518083038186803b1580156105f457600080fd5b505afa158015610608573d6000803e3d6000fd5b505050506040513d601f19601f8201168201806040525081019061062c9190613bf1565b898961173b565b905060008190506000806000836001600160a01b0316630902f1ac6040518163ffffffff1660e01b815260040160606040518083038186803b15801561067857600080fd5b505afa15801561068c573d6000803e3d6000fd5b505050506040513d601f19601f820116820180604052508101906106b091906140f0565b925092509250836001600160a01b0316630dfe16816040518163ffffffff1660e01b815260040160206040518083038186803b1580156106ef57600080fd5b505afa158015610703573d6000803e3d6000fd5b505050506040513d601f19601f820116820180604052508101906107279190613bf1565b846001600160a01b031663d21220a76040518163ffffffff1660e01b815260040160206040518083038186803b15801561076057600080fd5b505afa158015610774573d6000803e3d6000fd5b505050506040513d601f19601f820116820180604052508101906107989190613bf1565b909e909d50929b50909950975095505050505050565b6040516307c0329d60e21b815260609084906001600160a01b03821690631f00ca74906107e190879087906004016145f8565b60006040518083038186803b1580156107f957600080fd5b505afa15801561080d573d6000803e3d6000fd5b505050506040513d6000823e601f3d908101601f191682016040526108359190810190613e48565b95945050505050565b6000806000806108bf876001600160a01b031663c45a01556040518163ffffffff1660e01b815260040160206040518083038186803b15801561088057600080fd5b505afa158015610894573d6000803e3d6000fd5b505050506040513d601f19601f820116820180604052508101906108b89190613bf1565b878761173b565b90506000819050806001600160a01b0316630902f1ac6040518163ffffffff1660e01b815260040160606040518083038186803b1580156108ff57600080fd5b505afa158015610913573d6000803e3d6000fd5b505050506040513d601f19601f8201168201806040525081019061093791906140f0565b945094509450505093509350939050565b80516060906000816001600160401b0381111561097557634e487b7160e01b600052604160045260246000fd5b6040519080825280602002602001820160405280156109ae57816020015b61099b613aa7565b8152602001906001900390816109935790505b509250600090505b81811015610a2c576109ee8482815181106109e157634e487b7160e01b600052603260045260246000fd5b6020026020010151610d44565b838281518110610a0e57634e487b7160e01b600052603260045260246000fd5b60200260200101819052508080610a2490614717565b9150506109b6565b5050919050565b8051606090806001600160401b03811115610a5e57634e487b7160e01b600052604160045260246000fd5b604051908082528060200260200182016040528015610aca57816020015b610ab76040518060a00160405280606081526020016060815260200160006001600160a01b0316815260200160008152602001600081525090565b815260200190600190039081610a7c5790505b5091506000805b82811015610d3c57848181518110610af957634e487b7160e01b600052603260045260246000fd5b602002602001015191506040518060a00160405280836001600160a01b03166306fdde036040518163ffffffff1660e01b815260040160006040518083038186803b158015610b4757600080fd5b505afa158015610b5b573d6000803e3d6000fd5b505050506040513d6000823e601f3d908101601f19168201604052610b83919081019061405d565b8152602001836001600160a01b03166395d89b416040518163ffffffff1660e01b815260040160006040518083038186803b158015610bc157600080fd5b505afa158015610bd5573d6000803e3d6000fd5b505050506040513d6000823e601f3d908101601f19168201604052610bfd919081019061405d565b8152602001836001600160a01b03168152602001836001600160a01b031663313ce5676040518163ffffffff1660e01b815260040160206040518083038186803b158015610c4a57600080fd5b505afa158015610c5e573d6000803e3d6000fd5b505050506040513d601f19601f82011682018060405250810190610c829190614163565b60ff168152602001836001600160a01b03166318160ddd6040518163ffffffff1660e01b815260040160206040518083038186803b158015610cc357600080fd5b505afa158015610cd7573d6000803e3d6000fd5b505050506040513d601f19601f82011682018060405250810190610cfb919061414b565b815250848281518110610d1e57634e487b7160e01b600052603260045260246000fd5b60200260200101819052508080610d3490614717565b915050610ad1565b505050919050565b610d4c613aa7565b6000806000846001600160a01b0316630902f1ac6040518163ffffffff1660e01b815260040160606040518083038186803b158015610d8a57600080fd5b505afa158015610d9e573d6000803e3d6000fd5b505050506040513d601f19601f82011682018060405250810190610dc291906140f0565b63ffffffff1692506001600160701b031692506001600160701b031692506000856001600160a01b0316635909c0d56040518163ffffffff1660e01b815260040160206040518083038186803b158015610e1b57600080fd5b505afa158015610e2f573d6000803e3d6000fd5b505050506040513d601f19601f82011682018060405250810190610e53919061414b565b90506000866001600160a01b0316635a3d54936040518163ffffffff1660e01b815260040160206040518083038186803b158015610e9057600080fd5b505afa158015610ea4573d6000803e3d6000fd5b505050506040513d601f19601f82011682018060405250810190610ec8919061414b565b90506000439050604051806101400160405280896001600160a01b031663c45a01556040518163ffffffff1660e01b815260040160206040518083038186803b158015610f1457600080fd5b505afa158015610f28573d6000803e3d6000fd5b505050506040513d601f19601f82011682018060405250810190610f4c9190613bf1565b6001600160a01b03168152602001896001600160a01b03168152602001896001600160a01b0316630dfe16816040518163ffffffff1660e01b815260040160206040518083038186803b158015610fa257600080fd5b505afa158015610fb6573d6000803e3d6000fd5b505050506040513d601f19601f82011682018060405250810190610fda9190613bf1565b6001600160a01b03168152602001896001600160a01b031663d21220a76040518163ffffffff1660e01b815260040160206040518083038186803b15801561102157600080fd5b505afa158015611035573d6000803e3d6000fd5b505050506040513d601f19601f820116820180604052508101906110599190613bf1565b6001600160a01b03168152602001878152602001868152602001828152602001896001600160a01b0316635909c0d56040518163ffffffff1660e01b815260040160206040518083038186803b1580156110b257600080fd5b505afa1580156110c6573d6000803e3d6000fd5b505050506040513d601f19601f820116820180604052508101906110ea919061414b565b8152602001896001600160a01b0316635a3d54936040518163ffffffff1660e01b815260040160206040518083038186803b15801561112857600080fd5b505afa15801561113c573d6000803e3d6000fd5b505050506040513d601f19601f82011682018060405250810190611160919061414b565b8152602001896001600160a01b03166318160ddd6040518163ffffffff1660e01b815260040160206040518083038186803b15801561119e57600080fd5b505afa1580156111b2573d6000803e3d6000fd5b505050506040513d601f19601f820116820180604052508101906111d6919061414b565b905298975050505050505050565b6060816001600160401b0381111561120c57634e487b7160e01b600052604160045260246000fd5b60405190808252806020026020018201604052801561127357816020015b6040805160e08101825260008082526020808301829052928201819052606082018190526080820181905260a0820181905260c0820152825260001990920191018161122a5790505b50905060005b828110156117335760008060008686858181106112a657634e487b7160e01b600052603260045260246000fd5b90506020020160208101906112bb9190613bd5565b6001600160a01b0316630902f1ac6040518163ffffffff1660e01b815260040160606040518083038186803b1580156112f357600080fd5b505afa158015611307573d6000803e3d6000fd5b505050506040513d601f19601f8201168201806040525081019061132b91906140f0565b63ffffffff1692506001600160701b031692506001600160701b031692506040518060e0016040528088888781811061137457634e487b7160e01b600052603260045260246000fd5b90506020020160208101906113899190613bd5565b6001600160a01b031663c45a01556040518163ffffffff1660e01b815260040160206040518083038186803b1580156113c157600080fd5b505afa1580156113d5573d6000803e3d6000fd5b505050506040513d601f19601f820116820180604052508101906113f99190613bf1565b6001600160a01b0316815260200188888781811061142757634e487b7160e01b600052603260045260246000fd5b905060200201602081019061143c9190613bd5565b6001600160a01b0316815260200184815260200183815260200182815260200188888781811061147c57634e487b7160e01b600052603260045260246000fd5b90506020020160208101906114919190613bd5565b6001600160a01b0316630dfe16816040518163ffffffff1660e01b815260040160206040518083038186803b1580156114c957600080fd5b505afa1580156114dd573d6000803e3d6000fd5b505050506040513d601f19601f820116820180604052508101906115019190613bf1565b6001600160a01b0316815260200188888781811061152f57634e487b7160e01b600052603260045260246000fd5b90506020020160208101906115449190613bd5565b6001600160a01b031663d21220a76040518163ffffffff1660e01b815260040160206040518083038186803b15801561157c57600080fd5b505afa158015611590573d6000803e3d6000fd5b505050506040513d601f19601f820116820180604052508101906115b49190613bf1565b6001600160a01b03168152508585815181106115e057634e487b7160e01b600052603260045260246000fd5b60200260200101819052506116516040518060400160405280601081526020016f5041495220414444524553533a20257360801b81525088888781811061163757634e487b7160e01b600052603260045260246000fd5b905060200201602081019061164c9190613bd5565b6138d2565b61171d6040518060400160405280600b81526020016a464143544f52593a20257360a81b81525088888781811061169857634e487b7160e01b600052603260045260246000fd5b90506020020160208101906116ad9190613bd5565b6001600160a01b031663c45a01556040518163ffffffff1660e01b815260040160206040518083038186803b1580156116e557600080fd5b505afa1580156116f9573d6000803e3d6000fd5b505050506040513d601f19601f8201168201806040525081019061164c9190613bf1565b505050808061172b90614717565b915050611279565b505b92915050565b60405163e6a4390560e01b81526001600160a01b03838116600483015282811660248301526000919085169063e6a439059060440160206040518083038186803b15801561178857600080fd5b505afa15801561179c573d6000803e3d6000fd5b505050506040513d601f19601f820116820180604052508101906117c09190613bf1565b949350505050565b60005460609081906001600160a01b03888116911614806117f657506000546001600160a01b038781169116145b156118a4576040805160028082526060820183529091602083019080368337019050509050868160008151811061183d57634e487b7160e01b600052603260045260246000fd5b60200260200101906001600160a01b031690816001600160a01b031681525050858160018151811061187f57634e487b7160e01b600052603260045260246000fd5b60200260200101906001600160a01b031690816001600160a01b031681525050611989565b60408051600380825260808201909252906020820160608036833701905050905086816000815181106118e757634e487b7160e01b600052603260045260246000fd5b6001600160a01b03928316602091820292909201015260005482519116908290600190811061192657634e487b7160e01b600052603260045260246000fd5b60200260200101906001600160a01b031690816001600160a01b031681525050858160028151811061196857634e487b7160e01b600052603260045260246000fd5b60200260200101906001600160a01b031690816001600160a01b0316815250505b86863487118015906119a257506001600160a01b038916155b80156119ae5750333014155b15611a1f5760008054906101000a90046001600160a01b03166001600160a01b031663d0e30db0346040518263ffffffff1660e01b81526004016000604051808303818588803b158015611a0157600080fd5b505af1158015611a15573d6000803e3d6000fd5b5050505050611bcd565b60408051808201909152601a81527f434f4e5452414354204d415449432042414c414e43453a2025730000000000006020820152611a6390303161391b565b61391b565b60408051808201909152601b81527f434f4e545241435420574d415449432042414c414e43453a20257300000000006020820152600054611ab39190611a5e9030906001600160a01b0316613855565b611af66040518060400160405280601d81526020017f434f4e545241435420544f4b454e20494e2042414c414e43453a202573000000815250611a5e308c613855565b6040516323b872dd60e01b8152336004820152306024820152604481018890526001600160a01b038316906323b872dd90606401602060405180830381600087803b158015611b4457600080fd5b505af1158015611b58573d6000803e3d6000fd5b505050506040513d601f19601f82011682018060405250810190611b7c9190613ed8565b611bcd5760405162461bcd60e51b815260206004820152601e60248201527f4572726f72205472616e7366657272696e67205b4c494e453a203234365d000060448201526064015b60405180910390fd5b60405163095ea7b360e01b81526001600160a01b038b811660048301526024820189905283169063095ea7b390604401602060405180830381600087803b158015611c1757600080fd5b505af1158015611c2b573d6000803e3d6000fd5b505050506040513d601f19601f82011682018060405250810190611c4f9190613ed8565b5060006001600160a01b038b166338ed173989898730611c70426078614670565b6040518663ffffffff1660e01b8152600401611c90959493929190614611565b600060405180830381600087803b158015611caa57600080fd5b505af1925050508015611cdf57506040513d6000823e601f3d908101601f19168201604052611cdc9190810190613e48565b60015b611d7257611ceb61475e565b806308c379a01415611d395750611d00614776565b80611d0b5750611d3b565b611d336040518060400160405280600681526020016522a92927a91d60d11b81525082613960565b50611da4565b505b611d6d604051806040016040528060118152602001700554e5355434345535346554c205357415607c1b8152506139a5565b611da4565b611da26040518060400160405280600f81526020016e05355434345535346554c205357415608c1b8152506139a5565b505b4715611e5057604051600090339047908381818185875af1925050503d8060008114611dec576040519150601f19603f3d011682016040523d82523d6000602084013e611df1565b606091505b5050905080611e4e5760405162461bcd60e51b8152602060048201526024808201527f4641494c454420746f207472616e736665722045544820746f206d73672e7365604482015263373232b960e11b6064820152608401611bc4565b505b6040516370a0823160e01b81523060048201526000906001600160a01b038416906370a082319060240160206040518083038186803b158015611e9257600080fd5b505afa158015611ea6573d6000803e3d6000fd5b505050506040513d601f19601f82011682018060405250810190611eca919061414b565b6040516370a0823160e01b81523060048201529091506000906001600160a01b038516906370a082319060240160206040518083038186803b158015611f0f57600080fd5b505afa158015611f23573d6000803e3d6000fd5b505050506040513d601f19601f82011682018060405250810190611f47919061414b565b118015611f5d5750306001600160a01b03881614155b1561211457611f9960405180604001604052806015815260200174544f4b454e204f55542042414c414e43453a20257360581b8152508261391b565b60405163095ea7b360e01b8152306004820152602481018290526001600160a01b0384169063095ea7b390604401602060405180830381600087803b158015611fe157600080fd5b505af1158015611ff5573d6000803e3d6000fd5b505050506040513d601f19601f820116820180604052508101906120199190613ed8565b506040516323b872dd60e01b81523060048201526001600160a01b038881166024830152604482018390528416906323b872dd90606401602060405180830381600087803b15801561206a57600080fd5b505af115801561207e573d6000803e3d6000fd5b505050506040513d601f19601f820116820180604052508101906120a29190613ed8565b6121145760405162461bcd60e51b815260206004820152603960248201527f556e6948656c7065722e737761703a2050726f626c656d207472616e7366657260448201527f72696e6720746f6b656e2e2e2e205b4c494e453a203239345d000000000000006064820152608401611bc4565b61213560405180606001604052806026815260200161483b602691396139a5565b50505050509695505050505050565b600080341161218a5760405162461bcd60e51b815260206004820152601260248201527143616e27742077726170206e6f7468696e6760701b6044820152606401611bc4565b60008054906101000a90046001600160a01b03166001600160a01b031663d0e30db0346040518263ffffffff1660e01b81526004016000604051808303818588803b1580156121d857600080fd5b505af11580156121ec573d6000803e3d6000fd5b505060005460405163a9059cbb60e01b81526001600160a01b038781166004830152346024830152909116935063a9059cbb92506044019050602060405180830381600087803b15801561223f57600080fd5b505af1158015612253573d6000803e3d6000fd5b505050506040513d601f19601f820116820180604052508101906122779190613ed8565b50600192915050565b60008054604051632e1a7d4d60e01b8152600481018490526001600160a01b0390911690632e1a7d4d90602401600060405180830381600087803b1580156122c757600080fd5b505af11580156122db573d6000803e3d6000fd5b505060405133925084156108fc02915084906000818181858888f19695505050505050565b6000816001600160a01b031663c45a01556040518163ffffffff1660e01b815260040160206040518083038186803b15801561233b57600080fd5b505afa15801561234f573d6000803e3d6000fd5b505050506040513d601f19601f820116820180604052508101906117359190613bf1565b60606000846001600160a01b031663574f2ba36040518163ffffffff1660e01b815260040160206040518083038186803b1580156123b057600080fd5b505afa1580156123c4573d6000803e3d6000fd5b505050506040513d601f19601f820116820180604052508101906123e8919061414b565b9050808311156123f6578092505b838310156124465760405162461bcd60e51b815260206004820181905260248201527f73746172742063616e6e6f7420626520686967686572207468616e2073746f706044820152606401611bc4565b600061245285856146a8565b90506000816001600160401b0381111561247c57634e487b7160e01b600052604160045260246000fd5b6040519080825280602002602001820160405280156124b557816020015b6124a2613b1e565b81526020019060019003908161249a5790505b50905060005b828110156127695760006001600160a01b038916631e3dd18b6124de848b614670565b6040518263ffffffff1660e01b81526004016124fc91815260200190565b60206040518083038186803b15801561251457600080fd5b505afa158015612528573d6000803e3d6000fd5b505050506040513d601f19601f8201168201806040525081019061254c9190613bf1565b9050806001600160a01b0316630dfe16816040518163ffffffff1660e01b815260040160206040518083038186803b15801561258757600080fd5b505afa15801561259b573d6000803e3d6000fd5b505050506040513d601f19601f820116820180604052508101906125bf9190613bf1565b8383815181106125df57634e487b7160e01b600052603260045260246000fd5b602002602001015160006003811061260757634e487b7160e01b600052603260045260246000fd5b60200201906001600160a01b031690816001600160a01b031681525050806001600160a01b031663d21220a76040518163ffffffff1660e01b815260040160206040518083038186803b15801561265d57600080fd5b505afa158015612671573d6000803e3d6000fd5b505050506040513d601f19601f820116820180604052508101906126959190613bf1565b8383815181106126b557634e487b7160e01b600052603260045260246000fd5b60200260200101516001600381106126dd57634e487b7160e01b600052603260045260246000fd5b60200201906001600160a01b031690816001600160a01b0316815250508083838151811061271b57634e487b7160e01b600052603260045260246000fd5b602002602001015160026003811061274357634e487b7160e01b600052603260045260246000fd5b6001600160a01b039092166020929092020152508061276181614717565b9150506124bb565b509695505050505050565b60405163d06ca61f60e01b81526060906001600160a01b0385169063d06ca61f906127a590869086906004016145f8565b60006040518083038186803b1580156127bd57600080fd5b505afa1580156127d1573d6000803e3d6000fd5b505050506040513d6000823e601f3d908101601f191682016040526117c09190810190613e48565b6000816001600160a01b031663574f2ba36040518163ffffffff1660e01b815260040160206040518083038186803b15801561283457600080fd5b505afa158015612848573d6000803e3d6000fd5b505050506040513d601f19601f82011682018060405250810190611735919061414b565b60006001600160a01b03821631611735565b60008034116128c45760405162461bcd60e51b815260206004820152601260248201527143616e27742077726170206e6f7468696e6760701b6044820152606401611bc4565b6128ed6040518060400160405280600781526020016629a2a72222a91d60c91b815250336138d2565b60008054906101000a90046001600160a01b03166001600160a01b031663d0e30db0346040518263ffffffff1660e01b81526004016000604051808303818588803b15801561293b57600080fd5b505af115801561294f573d6000803e3d6000fd5b5050600054604051631049334f60e01b815230600482018190526001600160a01b0390921660248201819052945063a9059cbb9350339250631049334f9060440160206040518083038186803b1580156129a857600080fd5b505afa1580156129bc573d6000803e3d6000fd5b505050506040513d601f19601f820116820180604052508101906129e0919061414b565b6040516001600160e01b031960e085901b1681526001600160a01b0390921660048301526024820152604401602060405180830381600087803b158015612a2657600080fd5b505af1158015612a3a573d6000803e3d6000fd5b505050506040513d601f19601f82011682018060405250810190612a5e9190613ed8565b506001905090565b60006060612aa86040518060400160405280601981526020017f506572666f726d696e67204172626974726167652053776170000000000000008152506139a5565b60405163095ea7b360e01b81526001600160a01b0389811660048301526001600160ff1b03602483015287169063095ea7b390604401602060405180830381600087803b158015612af857600080fd5b505af1158015612b0c573d6000803e3d6000fd5b505050506040513d601f19601f82011682018060405250810190612b309190613ed8565b5060405163095ea7b360e01b81526001600160a01b0388811660048301526001600160ff1b03602483015286169063095ea7b390604401602060405180830381600087803b158015612b8157600080fd5b505af1158015612b95573d6000803e3d6000fd5b505050506040513d601f19601f82011682018060405250810190612bb99190613ed8565b506040805160028082526060820183526000926020830190803683370190505090508681600081518110612bfd57634e487b7160e01b600052603260045260246000fd5b60200260200101906001600160a01b031690816001600160a01b0316815250508581600181518110612c3f57634e487b7160e01b600052603260045260246000fd5b60200260200101906001600160a01b031690816001600160a01b031681525050612cf9604051806060016040528060268152602001614815602691396040516370a0823160e01b81523060048201526001600160a01b038a16906370a082319060240160206040518083038186803b158015612cba57600080fd5b505afa158015612cce573d6000803e3d6000fd5b505050506040513d601f19601f82011682018060405250810190612cf2919061414b565b89896139eb565b604080518082018252601f81527f434f4e54524143542042414c414e4345205f73656c6c546f6b656e3a20257300602082015290516370a0823160e01b8152306004820152612da891906001600160a01b038916906370a08231906024015b60206040518083038186803b158015612d7057600080fd5b505afa158015612d84573d6000803e3d6000fd5b505050506040513d601f19601f82011682018060405250810190611a5e919061414b565b604080518082018252601c81527f53454e4445522042414c414e4345205f627579546f6b656e3a20257300000000602082015290516370a0823160e01b8152336004820152612e0b91906001600160a01b038a16906370a0823190602401612d58565b604080518082018252601d81527f53454e4445522042414c414e4345205f73656c6c546f6b656e3a202573000000602082015290516370a0823160e01b8152336004820152612e6e91906001600160a01b038916906370a0823190602401612d58565b6040516323b872dd60e01b8152336004820152306024820152604481018590526001600160a01b038816906323b872dd90606401602060405180830381600087803b158015612ebc57600080fd5b505af1158015612ed0573d6000803e3d6000fd5b505050506040513d601f19601f82011682018060405250810190612ef49190613ed8565b612f405760405162461bcd60e51b815260206004820152601e60248201527f4552524f52205452414e5346455252494e47205b4c494e453a203331395d00006044820152606401611bc4565b604051635dbdce3b60e11b8152600090309063bb7b9c7690612f6a908d90899087906004016144e0565b60006040518083038186803b158015612f8257600080fd5b505afa158015612f96573d6000803e3d6000fd5b505050506040513d6000823e601f3d908101601f19168201604052612fbe9190810190613e48565b9050600060c882600181518110612fe557634e487b7160e01b600052603260045260246000fd5b6020026020010151612ff79190614688565b8260018151811061301857634e487b7160e01b600052603260045260246000fd5b602002602001015161302a91906146a8565b905060006001600160a01b038c166338ed17398884873061304c426078614670565b6040518663ffffffff1660e01b815260040161306c959493929190614611565b600060405180830381600087803b15801561308657600080fd5b505af115801561309a573d6000803e3d6000fd5b505050506040513d6000823e601f3d908101601f191682016040526130c29190810190613e48565b9050613122604051806040016040528060148152602001730a5377617070656420616d6f756e74733a20257360601b8152508260018151811061311557634e487b7160e01b600052603260045260246000fd5b602002602001015161391b565b604080518082018252601e81527f434f4e54524143542042414c414e4345205f627579546f6b656e3a2025730000602082015290516370a0823160e01b815230600482015261318591906001600160a01b038d16906370a0823190602401612d58565b604080518082018252601f81527f434f4e54524143542042414c414e4345205f73656c6c546f6b656e3a20257300602082015290516370a0823160e01b81523060048201526131e891906001600160a01b038c16906370a0823190602401612d58565b6132196040518060400160405280600f81526020016e29a2a626102a27a5a2a71d1012b98560891b8152508a6138d2565b6132a96040518060400160405280601781526020017f5377617070656420416d6f756e74733a2025732025730a0000000000000000008152508260008151811061327357634e487b7160e01b600052603260045260246000fd5b60200260200101518360018151811061329c57634e487b7160e01b600052603260045260246000fd5b6020026020010151613a3a565b89846001815181106132cb57634e487b7160e01b600052603260045260246000fd5b60200260200101906001600160a01b031690816001600160a01b031681525050888460008151811061330d57634e487b7160e01b600052603260045260246000fd5b60200260200101906001600160a01b031690816001600160a01b0316815250506133626040518060400160405280601481526020017305374617274696e67205365636f6e6420737761760641b8152506139a5565b6133956040518060400160405280601281526020017120a8282927ab20a610169f1029aba0a8101960711b8152506139a5565b6040516370a0823160e01b81523060048201526001600160a01b038a169063095ea7b3908d9083906370a082319060240160206040518083038186803b1580156133de57600080fd5b505afa1580156133f2573d6000803e3d6000fd5b505050506040513d601f19601f82011682018060405250810190613416919061414b565b6040516001600160e01b031960e085901b1681526001600160a01b0390921660048301526024820152604401602060405180830381600087803b15801561345c57600080fd5b505af1158015613470573d6000803e3d6000fd5b505050506040513d601f19601f820116820180604052508101906134949190613ed8565b506134be604051806040016040528060088152602001671054141493d5915160c21b8152506139a5565b6040516370a0823160e01b81523060048201526000906001600160a01b03808e16916338ed1739918d16906370a082319060240160206040518083038186803b15801561350a57600080fd5b505afa15801561351e573d6000803e3d6000fd5b505050506040513d601f19601f82011682018060405250810190613542919061414b565b60008833613551426078614670565b6040518663ffffffff1660e01b8152600401613571959493929190614611565b600060405180830381600087803b15801561358b57600080fd5b505af115801561359f573d6000803e3d6000fd5b505050506040513d6000823e601f3d908101601f191682016040526135c79190810190613e48565b90506136236040518060400160405280601981526020017f4172626974726167656420416d6f756e74733a202573202573000000000000008152508260008151811061327357634e487b7160e01b600052603260045260246000fd5b61367d6040518060400160405280601781526020017f0a4172626974726167656420616d6f756e74733a2025730000000000000000008152508360018151811061311557634e487b7160e01b600052603260045260246000fd5b604080518082018252601e81527f434f4e54524143542042414c414e4345205f627579546f6b656e3a2025730000602082015290516370a0823160e01b81523060048201526136e091906001600160a01b038e16906370a0823190602401612d58565b604080518082018252601f81527f434f4e54524143542042414c414e4345205f73656c6c546f6b656e3a20257300602082015290516370a0823160e01b815230600482015261374391906001600160a01b038d16906370a0823190602401612d58565b6137746040518060400160405280600f81526020016e29a2a626102a27a5a2a71d1012b98560891b8152508b6138d2565b6137a9604051806040016040528060148152602001735375636365737366756c2041726269747261676560601b8152506139a5565b60019d909c509a5050505050505050505050565b6137c5613aa7565b60405163e6a4390560e01b81526001600160a01b03848116600483015283811660248301526000919086169063e6a439059060440160206040518083038186803b15801561381257600080fd5b505afa158015613826573d6000803e3d6000fd5b505050506040513d601f19601f8201168201806040525081019061384a9190613bf1565b905061083581610d44565b6040516370a0823160e01b81526001600160a01b038381166004830152600091908316906370a082319060240160206040518083038186803b15801561389a57600080fd5b505afa1580156138ae573d6000803e3d6000fd5b505050506040513d601f19601f820116820180604052508101906105a8919061414b565b61391782826040516024016138e892919061451a565b60408051601f198184030181529190526020810180516001600160e01b031663319af33360e01b179052613a86565b5050565b6139178282604051602401613931929190614569565b60408051601f198184030181529190526020810180516001600160e01b03166309710a9d60e41b179052613a86565b6139178282604051602401613976929190614544565b60408051601f198184030181529190526020810180516001600160e01b0316634b5c427760e01b179052613a86565b6139e8816040516024016139b99190614507565b60408051601f198184030181529190526020810180516001600160e01b031663104c13eb60e21b179052613a86565b50565b613a3484848484604051602401613a05949392919061458b565b60408051601f198184030181529190526020810180516001600160e01b031663eac8928160e01b179052613a86565b50505050565b613a81838383604051602401613a52939291906145c4565b60408051601f198184030181529190526020810180516001600160e01b031663969cdd0360e01b179052613a86565b505050565b80516a636f6e736f6c652e6c6f67602083016000808483855afa5050505050565b60405180610140016040528060006001600160a01b0316815260200160006001600160a01b0316815260200160006001600160a01b0316815260200160006001600160a01b031681526020016000815260200160008152602001600081526020016000815260200160008152602001600081525090565b60405180606001604052806003906020820280368337509192915050565b600082601f830112613b4c578081fd5b81356020613b598261464d565b604051613b6682826146eb565b8381528281019150858301600585901b87018401881015613b85578586fd5b855b85811015613bac578135613b9a816147ff565b84529284019290840190600101613b87565b5090979650505050505050565b80516001600160701b0381168114613bd057600080fd5b919050565b600060208284031215613be6578081fd5b81356105a8816147ff565b600060208284031215613c02578081fd5b81516105a8816147ff565b60008060408385031215613c1f578081fd5b8235613c2a816147ff565b91506020830135613c3a816147ff565b809150509250929050565b600080600060608486031215613c59578081fd5b8335613c64816147ff565b92506020840135915060408401356001600160401b03811115613c85578182fd5b613c9186828701613b3c565b9150509250925092565b60006020808385031215613cad578182fd5b82356001600160401b03811115613cc2578283fd5b8301601f81018513613cd2578283fd5b8035613cdd8161464d565b604051613cea82826146eb565b8281528481019150838501600584901b85018601891015613d09578687fd5b8694505b83851015613d34578035613d20816147ff565b835260019490940193918501918501613d0d565b50979650505050505050565b60008060208385031215613d52578182fd5b82356001600160401b0380821115613d68578384fd5b818501915085601f830112613d7b578384fd5b813581811115613d89578485fd5b8660208260051b8501011115613d9d578485fd5b60209290920196919550909350505050565b60006020808385031215613dc1578182fd5b82356001600160401b03811115613dd6578283fd5b8301601f81018513613de6578283fd5b8035613df18161464d565b604051613dfe82826146eb565b8281528481019150838501600584901b85018601891015613e1d578687fd5b8694505b83851015613d34578035613e34816147ff565b835260019490940193918501918501613e21565b60006020808385031215613e5a578182fd5b82516001600160401b03811115613e6f578283fd5b8301601f81018513613e7f578283fd5b8051613e8a8161464d565b604051613e9782826146eb565b8281528481019150838501600584901b85018601891015613eb6578687fd5b8694505b83851015613d34578051835260019490940193918501918501613eba565b600060208284031215613ee9578081fd5b815180151581146105a8578182fd5b600080600060608486031215613f0c578081fd5b8335613f17816147ff565b92506020840135613f27816147ff565b91506040840135613f37816147ff565b809150509250925092565b60008060008060008060c08789031215613f5a578384fd5b8635613f65816147ff565b95506020870135613f75816147ff565b94506040870135613f85816147ff565b9350606087013592506080870135915060a0870135613fa3816147ff565b809150509295509295509295565b60008060008060008060c08789031215613fc9578384fd5b8635613fd4816147ff565b95506020870135613fe4816147ff565b94506040870135613ff4816147ff565b93506060870135614004816147ff565b92506080870135614014816147ff565b8092505060a087013590509295509295509295565b60008060006060848603121561403d578081fd5b8335614048816147ff565b95602085013595506040909401359392505050565b60006020828403121561406e578081fd5b81516001600160401b0380821115614084578283fd5b818401915084601f830112614097578283fd5b8151818111156140a9576140a9614748565b60405191506140c2601f8201601f1916602001836146eb565b8082528560208285010111156140d6578384fd5b6140e78160208401602086016146bf565b50949350505050565b600080600060608486031215614104578081fd5b61410d84613bb9565b925061411b60208501613bb9565b9150604084015163ffffffff81168114613f37578182fd5b600060208284031215614144578081fd5b5035919050565b60006020828403121561415c578081fd5b5051919050565b600060208284031215614174578081fd5b815160ff811681146105a8578182fd5b6000815180845260208085019450808401835b838110156141bc5781516001600160a01b031687529582019590820190600101614197565b509495945050505050565b6000815180845260208085019450808401835b838110156141bc578151875295820195908201906001016141da565b6000815180845261420e8160208601602086016146bf565b601f01601f19169290920160200192915050565b80516001600160a01b03168252602081015161424960208401826001600160a01b03169052565b50604081015161426460408401826001600160a01b03169052565b50606081015161427f60608401826001600160a01b03169052565b506080818101519083015260a0808201519083015260c0808201519083015260e08082015190830152610100808201519083015261012090810151910152565b6020808252825182820181905260009190848201906040850190845b8181101561432457835183875b600381101561430e5782516001600160a01b0316825291870191908701906001016142e8565b50505092840192606092909201916001016142db565b50909695505050505050565b6020808252825182820181905260009190848201906040850190845b818110156143245761435f838551614222565b92840192610140929092019160010161434c565b602080825282518282018190526000919060409081850190868401855b828110156143f857815180516001600160a01b039081168652878201518116888701528682015187870152606080830151908701526080808301519087015260a08083015182169087015260c091820151169085015260e09093019290850190600101614390565b5091979650505050505050565b60006020808301818452808551808352604092508286019150828160051b870101848801865b838110156144a457603f19898403018552815160a08151818652614451828701826141f6565b915050888201518582038a87015261446982826141f6565b838a01516001600160a01b0316878b01526060808501519088015260809384015193909601929092525050938601939086019060010161442b565b509098975050505050505050565b6020815260006105a860208301846141c7565b82151581526040602082015260006117c060408301846141c7565b60018060a01b03841681528260208201526060604082015260006108356060830184614184565b6020815260006105a860208301846141f6565b60408152600061452d60408301856141f6565b905060018060a01b03831660208301529392505050565b60408152600061455760408301856141f6565b828103602084015261083581856141f6565b60408152600061457c60408301856141f6565b90508260208301529392505050565b60808152600061459e60808301876141f6565b6020830195909552506001600160a01b0392831660408201529116606090910152919050565b6060815260006145d760608301866141f6565b60208301949094525060400152919050565b61014081016117358284614222565b8281526040602082015260006117c06040830184614184565b85815284602082015260a06040820152600061463060a0830186614184565b6001600160a01b0394909416606083015250608001529392505050565b60006001600160401b0382111561466657614666614748565b5060051b60200190565b6000821982111561468357614683614732565b500190565b6000826146a357634e487b7160e01b81526012600452602481fd5b500490565b6000828210156146ba576146ba614732565b500390565b60005b838110156146da5781810151838201526020016146c2565b83811115613a345750506000910152565b601f8201601f191681016001600160401b038111828210171561471057614710614748565b6040525050565b600060001982141561472b5761472b614732565b5060010190565b634e487b7160e01b600052601160045260246000fd5b634e487b7160e01b600052604160045260246000fd5b600060033d111561477357600481823e5160e01c5b90565b600060443d10156147845790565b6040516003193d81016004833e81513d6001600160401b0381602484011181841117156147b357505050505090565b82850191508151818111156147cb5750505050505090565b843d87010160208285010111156147e55750505050505090565b6147f4602082860101876146eb565b509095945050505050565b6001600160a01b03811681146139e857600080fdfe434f4e54524143542042414c414e4345205f627579546f6b656e3a20257320282573292025732b2b2b2b2b2b2b2b2b2b2b2b2b2b2b2b2b2b2b2b2b2b2b2b2b2b2b2b2b2b2b2b2b2b2b2b2b2ba264697066735822122022247ca6a47fb0c61bd849f89b40764691bcd6e8101888fa192aaf5c6b3e752864736f6c63430008040033",
  "linkReferences": {},
  "deployedLinkReferences": {}
}