{
  "_format": "hh-sol-artifact-1",
  "contractName": "UniswapProtocolHelper",
  "sourceName": "contracts/UniswapProtocolHelper.sol",
  "abi": [
    {
      "inputs": [
        {
          "internalType": "address",
          "name": "_wmatic",
          "type": "address"
        }
      ],
      "stateMutability": "nonpayable",
      "type": "constructor"
    },
    {
      "stateMutability": "payable",
      "type": "fallback"
    },
    {
      "inputs": [],
      "name": "ETH_ADDRESS",
      "outputs": [
        {
          "internalType": "address",
          "name": "",
          "type": "address"
        }
      ],
      "stateMutability": "view",
      "type": "function"
    },
    {
      "inputs": [],
      "name": "WETH",
      "outputs": [
        {
          "internalType": "contract IWETH",
          "name": "",
          "type": "address"
        }
      ],
      "stateMutability": "view",
      "type": "function"
    },
    {
      "inputs": [],
      "name": "ZERO_ADDRESS",
      "outputs": [
        {
          "internalType": "address",
          "name": "",
          "type": "address"
        }
      ],
      "stateMutability": "view",
      "type": "function"
    },
    {
      "inputs": [
        {
          "internalType": "contract IUniswapV2Pair",
          "name": "pair",
          "type": "address"
        }
      ],
      "name": "_getPairInfo",
      "outputs": [
        {
          "components": [
            {
              "internalType": "address",
              "name": "factory",
              "type": "address"
            },
            {
              "internalType": "address",
              "name": "pairAddress",
              "type": "address"
            },
            {
              "internalType": "address",
              "name": "token0",
              "type": "address"
            },
            {
              "internalType": "address",
              "name": "token1",
              "type": "address"
            },
            {
              "internalType": "uint256",
              "name": "reserve0",
              "type": "uint256"
            },
            {
              "internalType": "uint256",
              "name": "reserve1",
              "type": "uint256"
            },
            {
              "internalType": "uint256",
              "name": "block",
              "type": "uint256"
            },
            {
              "internalType": "uint256",
              "name": "timestamp",
              "type": "uint256"
            },
            {
              "internalType": "uint256",
              "name": "price0CumulativeLast",
              "type": "uint256"
            },
            {
              "internalType": "uint256",
              "name": "price1CumulativeLast",
              "type": "uint256"
            },
            {
              "internalType": "uint256",
              "name": "totalSupply",
              "type": "uint256"
            }
          ],
          "internalType": "struct UniswapProtocolHelper.PairInfo",
          "name": "info",
          "type": "tuple"
        }
      ],
      "stateMutability": "view",
      "type": "function"
    },
    {
      "inputs": [
        {
          "internalType": "address",
          "name": "_baseToken",
          "type": "address"
        },
        {
          "internalType": "address[]",
          "name": "routers",
          "type": "address[]"
        },
        {
          "internalType": "address[]",
          "name": "_receiveTokens",
          "type": "address[]"
        },
        {
          "internalType": "address",
          "name": "_to",
          "type": "address"
        },
        {
          "internalType": "uint256",
          "name": "_amtBaseToken",
          "type": "uint256"
        },
        {
          "internalType": "uint256",
          "name": "slippageBips",
          "type": "uint256"
        }
      ],
      "name": "fromTokenToTokens",
      "outputs": [
        {
          "internalType": "bool",
          "name": "success",
          "type": "bool"
        }
      ],
      "stateMutability": "nonpayable",
      "type": "function"
    },
    {
      "inputs": [
        {
          "internalType": "contract IUniswapV2Factory",
          "name": "factory",
          "type": "address"
        }
      ],
      "name": "getAllPairsLength",
      "outputs": [
        {
          "internalType": "uint256",
          "name": "",
          "type": "uint256"
        }
      ],
      "stateMutability": "view",
      "type": "function"
    },
    {
      "inputs": [
        {
          "internalType": "contract IUniswapV2Router02",
          "name": "_router",
          "type": "address"
        },
        {
          "internalType": "uint256",
          "name": "amountOut",
          "type": "uint256"
        },
        {
          "internalType": "address[]",
          "name": "path",
          "type": "address[]"
        }
      ],
      "name": "getAmountsIn",
      "outputs": [
        {
          "internalType": "uint256[]",
          "name": "amounts",
          "type": "uint256[]"
        }
      ],
      "stateMutability": "view",
      "type": "function"
    },
    {
      "inputs": [
        {
          "internalType": "contract IUniswapV2Router02",
          "name": "router",
          "type": "address"
        },
        {
          "internalType": "uint256",
          "name": "amountIn",
          "type": "uint256"
        },
        {
          "internalType": "address[]",
          "name": "path",
          "type": "address[]"
        }
      ],
      "name": "getAmountsOut",
      "outputs": [
        {
          "internalType": "uint256[]",
          "name": "amounts",
          "type": "uint256[]"
        }
      ],
      "stateMutability": "view",
      "type": "function"
    },
    {
      "inputs": [
        {
          "internalType": "contract IUniswapV2Router02",
          "name": "router",
          "type": "address"
        }
      ],
      "name": "getFactoryAddress",
      "outputs": [
        {
          "internalType": "address",
          "name": "",
          "type": "address"
        }
      ],
      "stateMutability": "pure",
      "type": "function"
    },
    {
      "inputs": [
        {
          "internalType": "contract IUniswapV2Pair[]",
          "name": "pairs",
          "type": "address[]"
        }
      ],
      "name": "getMultiPairsInfo",
      "outputs": [
        {
          "components": [
            {
              "internalType": "address",
              "name": "factory",
              "type": "address"
            },
            {
              "internalType": "address",
              "name": "pairAddress",
              "type": "address"
            },
            {
              "internalType": "address",
              "name": "token0",
              "type": "address"
            },
            {
              "internalType": "address",
              "name": "token1",
              "type": "address"
            },
            {
              "internalType": "uint256",
              "name": "reserve0",
              "type": "uint256"
            },
            {
              "internalType": "uint256",
              "name": "reserve1",
              "type": "uint256"
            },
            {
              "internalType": "uint256",
              "name": "block",
              "type": "uint256"
            },
            {
              "internalType": "uint256",
              "name": "timestamp",
              "type": "uint256"
            },
            {
              "internalType": "uint256",
              "name": "price0CumulativeLast",
              "type": "uint256"
            },
            {
              "internalType": "uint256",
              "name": "price1CumulativeLast",
              "type": "uint256"
            },
            {
              "internalType": "uint256",
              "name": "totalSupply",
              "type": "uint256"
            }
          ],
          "internalType": "struct UniswapProtocolHelper.PairInfo[]",
          "name": "info",
          "type": "tuple[]"
        }
      ],
      "stateMutability": "view",
      "type": "function"
    },
    {
      "inputs": [
        {
          "internalType": "contract IUniswapV2Factory",
          "name": "factory",
          "type": "address"
        },
        {
          "internalType": "address",
          "name": "token0",
          "type": "address"
        },
        {
          "internalType": "address",
          "name": "token1",
          "type": "address"
        }
      ],
      "name": "getPairAddress",
      "outputs": [
        {
          "internalType": "address",
          "name": "",
          "type": "address"
        }
      ],
      "stateMutability": "view",
      "type": "function"
    },
    {
      "inputs": [
        {
          "internalType": "contract IUniswapV2Factory",
          "name": "factory",
          "type": "address"
        },
        {
          "internalType": "address",
          "name": "token0",
          "type": "address"
        },
        {
          "internalType": "address",
          "name": "token1",
          "type": "address"
        }
      ],
      "name": "getPairInfo",
      "outputs": [
        {
          "components": [
            {
              "internalType": "address",
              "name": "factory",
              "type": "address"
            },
            {
              "internalType": "address",
              "name": "pairAddress",
              "type": "address"
            },
            {
              "internalType": "address",
              "name": "token0",
              "type": "address"
            },
            {
              "internalType": "address",
              "name": "token1",
              "type": "address"
            },
            {
              "internalType": "uint256",
              "name": "reserve0",
              "type": "uint256"
            },
            {
              "internalType": "uint256",
              "name": "reserve1",
              "type": "uint256"
            },
            {
              "internalType": "uint256",
              "name": "block",
              "type": "uint256"
            },
            {
              "internalType": "uint256",
              "name": "timestamp",
              "type": "uint256"
            },
            {
              "internalType": "uint256",
              "name": "price0CumulativeLast",
              "type": "uint256"
            },
            {
              "internalType": "uint256",
              "name": "price1CumulativeLast",
              "type": "uint256"
            },
            {
              "internalType": "uint256",
              "name": "totalSupply",
              "type": "uint256"
            }
          ],
          "internalType": "struct UniswapProtocolHelper.PairInfo",
          "name": "info",
          "type": "tuple"
        }
      ],
      "stateMutability": "view",
      "type": "function"
    },
    {
      "inputs": [
        {
          "internalType": "contract IUniswapV2Factory",
          "name": "_uniswapFactory",
          "type": "address"
        },
        {
          "internalType": "uint256",
          "name": "_start",
          "type": "uint256"
        },
        {
          "internalType": "uint256",
          "name": "_stop",
          "type": "uint256"
        }
      ],
      "name": "getPairsByIndexRange",
      "outputs": [
        {
          "internalType": "address[3][]",
          "name": "",
          "type": "address[3][]"
        }
      ],
      "stateMutability": "view",
      "type": "function"
    },
    {
      "inputs": [
        {
          "internalType": "contract IUniswapV2Router02",
          "name": "router",
          "type": "address"
        },
        {
          "internalType": "address",
          "name": "token0",
          "type": "address"
        },
        {
          "internalType": "address",
          "name": "token1",
          "type": "address"
        }
      ],
      "name": "getReserves",
      "outputs": [
        {
          "internalType": "uint112",
          "name": "",
          "type": "uint112"
        },
        {
          "internalType": "uint112",
          "name": "",
          "type": "uint112"
        },
        {
          "internalType": "uint32",
          "name": "",
          "type": "uint32"
        }
      ],
      "stateMutability": "view",
      "type": "function"
    },
    {
      "inputs": [
        {
          "internalType": "contract IUniswapV2Pair[]",
          "name": "_pairs",
          "type": "address[]"
        }
      ],
      "name": "getReservesByPairs",
      "outputs": [
        {
          "components": [
            {
              "internalType": "address",
              "name": "factory",
              "type": "address"
            },
            {
              "internalType": "address",
              "name": "pairAddress",
              "type": "address"
            },
            {
              "internalType": "uint256",
              "name": "reserve0",
              "type": "uint256"
            },
            {
              "internalType": "uint256",
              "name": "reserve1",
              "type": "uint256"
            },
            {
              "internalType": "uint256",
              "name": "timestamp",
              "type": "uint256"
            },
            {
              "internalType": "address",
              "name": "token0",
              "type": "address"
            },
            {
              "internalType": "address",
              "name": "token1",
              "type": "address"
            }
          ],
          "internalType": "struct UniswapProtocolHelper.ResevresWithTokens[]",
          "name": "result",
          "type": "tuple[]"
        }
      ],
      "stateMutability": "view",
      "type": "function"
    },
    {
      "inputs": [
        {
          "internalType": "contract IUniswapV2Router02",
          "name": "router",
          "type": "address"
        },
        {
          "internalType": "address",
          "name": "token0",
          "type": "address"
        },
        {
          "internalType": "address",
          "name": "token1",
          "type": "address"
        }
      ],
      "name": "getReservesWithTokens",
      "outputs": [
        {
          "internalType": "address",
          "name": "",
          "type": "address"
        },
        {
          "internalType": "address",
          "name": "",
          "type": "address"
        },
        {
          "internalType": "uint112",
          "name": "",
          "type": "uint112"
        },
        {
          "internalType": "uint112",
          "name": "",
          "type": "uint112"
        },
        {
          "internalType": "uint32",
          "name": "",
          "type": "uint32"
        }
      ],
      "stateMutability": "view",
      "type": "function"
    },
    {
      "inputs": [
        {
          "internalType": "contract IUniswapV2Router02",
          "name": "router",
          "type": "address"
        },
        {
          "internalType": "address",
          "name": "_tokenIn",
          "type": "address"
        },
        {
          "internalType": "address",
          "name": "_tokenOut",
          "type": "address"
        },
        {
          "internalType": "uint256",
          "name": "_amountIn",
          "type": "uint256"
        },
        {
          "internalType": "uint256",
          "name": "_amountOutMin",
          "type": "uint256"
        },
        {
          "internalType": "address payable",
          "name": "_to",
          "type": "address"
        }
      ],
      "name": "swap",
      "outputs": [
        {
          "internalType": "uint256[]",
          "name": "amounts",
          "type": "uint256[]"
        }
      ],
      "stateMutability": "payable",
      "type": "function"
    },
    {
      "inputs": [
        {
          "internalType": "address",
          "name": "_user",
          "type": "address"
        },
        {
          "internalType": "address",
          "name": "token",
          "type": "address"
        }
      ],
      "name": "tokenBalance",
      "outputs": [
        {
          "internalType": "uint256",
          "name": "balance",
          "type": "uint256"
        }
      ],
      "stateMutability": "view",
      "type": "function"
    },
    {
      "inputs": [
        {
          "internalType": "address",
          "name": "_wmatic",
          "type": "address"
        }
      ],
      "name": "updateWethAddress",
      "outputs": [],
      "stateMutability": "nonpayable",
      "type": "function"
    },
    {
      "inputs": [
        {
          "internalType": "address",
          "name": "_user",
          "type": "address"
        }
      ],
      "name": "walletBalance",
      "outputs": [
        {
          "internalType": "uint256",
          "name": "balance",
          "type": "uint256"
        }
      ],
      "stateMutability": "view",
      "type": "function"
    },
    {
      "inputs": [],
      "name": "weth",
      "outputs": [
        {
          "internalType": "address",
          "name": "",
          "type": "address"
        }
      ],
      "stateMutability": "view",
      "type": "function"
    },
    {
      "stateMutability": "payable",
      "type": "receive"
    }
  ],
  "bytecode": "0x6080604052600180546001600160a01b031990811673eeeeeeeeeeeeeeeeeeeeeeeeeeeeeeeeeeeeeeee179091556002805490911690553480156200004357600080fd5b506040516200326538038062003265833981016040819052620000669162000088565b600080546001600160a01b0319166001600160a01b03831617905550620000b8565b6000602082840312156200009a578081fd5b81516001600160a01b0381168114620000b1578182fd5b9392505050565b61319d80620000c86000396000f3fe6080604052600436106101225760003560e01c8063538ba4f9116100a5578063ad5c46481161006c578063ad5c4648146103f2578063bb7b9c7614610412578063bbbecfbe14610432578063c529447f14610462578063cf9cd8f814610482578063f5406970146104a257005b8063538ba4f9146103525780637c6c84af14610372578063a734f06e14610385578063a7bce755146103a5578063ab2217e4146103c557005b80633fc8cef3116100e95780633fc8cef31461027957806342713bd1146102ab5780634d295b49146102d85780634dbf0f3914610305578063524d01f81461033257005b80630a6dc7ba1461012b5780631049334f1461016857806314d751811461019b578063192128b214610200578063327494611461022d57005b3661012957005b005b34801561013757600080fd5b5061012961014636600461277a565b600080546001600160a01b0319166001600160a01b0392909216919091179055565b34801561017457600080fd5b506101886101833660046127b2565b6104c2565b6040519081526020015b60405180910390f35b3480156101a757600080fd5b506101bb6101b6366004612a49565b6104d5565b604080516001600160a01b0396871681529590941660208601526001600160701b039283169385019390935216606083015263ffffffff16608082015260a001610192565b34801561020c57600080fd5b5061022061021b366004612b36565b6106d4565b6040516101929190612e64565b34801561023957600080fd5b5061024d610248366004612a49565b610761565b604080516001600160701b03948516815293909216602084015263ffffffff1690820152606001610192565b34801561028557600080fd5b506000546001600160a01b03165b6040516001600160a01b039091168152602001610192565b3480156102b757600080fd5b506102cb6102c63660046128f2565b61086b565b6040516101929190612d8f565b3480156102e457600080fd5b506102f86102f336600461277a565b610957565b6040516101929190612f20565b34801561031157600080fd5b50610325610320366004612882565b610d0b565b6040516101929190612dd2565b34801561033e57600080fd5b5061029361034d366004612a49565b611263565b34801561035e57600080fd5b50600254610293906001600160a01b031681565b610220610380366004612ac7565b6112e8565b34801561039157600080fd5b50600154610293906001600160a01b031681565b3480156103b157600080fd5b506102936103c036600461277a565b611b8d565b3480156103d157600080fd5b506103e56103e0366004612a93565b611c00565b6040516101929190612d1e565b3480156103fe57600080fd5b50600054610293906001600160a01b031681565b34801561041e57600080fd5b5061022061042d366004612b36565b612002565b34801561043e57600080fd5b5061045261044d3660046127ea565b612033565b6040519015158152602001610192565b34801561046e57600080fd5b5061018861047d36600461277a565b612322565b34801561048e57600080fd5b5061018861049d36600461277a565b612395565b3480156104ae57600080fd5b506102f86104bd366004612a49565b6123a7565b60006104ce8383612448565b9392505050565b600080600080600080610559896001600160a01b031663c45a01556040518163ffffffff1660e01b815260040160206040518083038186803b15801561051a57600080fd5b505afa15801561052e573d6000803e3d6000fd5b505050506040513d601f19601f820116820180604052508101906105529190612796565b8989611263565b905060008190506000806000836001600160a01b0316630902f1ac6040518163ffffffff1660e01b815260040160606040518083038186803b15801561059e57600080fd5b505afa1580156105b2573d6000803e3d6000fd5b505050506040513d601f19601f820116820180604052508101906105d69190612b8d565b925092509250836001600160a01b0316630dfe16816040518163ffffffff1660e01b815260040160206040518083038186803b15801561061557600080fd5b505afa158015610629573d6000803e3d6000fd5b505050506040513d601f19601f8201168201806040525081019061064d9190612796565b846001600160a01b031663d21220a76040518163ffffffff1660e01b815260040160206040518083038186803b15801561068657600080fd5b505afa15801561069a573d6000803e3d6000fd5b505050506040513d601f19601f820116820180604052508101906106be9190612796565b909e909d50929b50909950975095505050505050565b6040516307c0329d60e21b81526060906001600160a01b03851690631f00ca74906107059086908690600401612f2f565b60006040518083038186803b15801561071d57600080fd5b505afa158015610731573d6000803e3d6000fd5b505050506040513d6000823e601f3d908101601f191682016040526107599190810190612998565b949350505050565b6000806000806107e2876001600160a01b031663c45a01556040518163ffffffff1660e01b815260040160206040518083038186803b1580156107a357600080fd5b505afa1580156107b7573d6000803e3d6000fd5b505050506040513d601f19601f820116820180604052508101906107db9190612796565b8787611263565b90506000819050806001600160a01b0316630902f1ac6040518163ffffffff1660e01b815260040160606040518083038186803b15801561082257600080fd5b505afa158015610836573d6000803e3d6000fd5b505050506040513d601f19601f8201168201806040525081019061085a9190612b8d565b945094509450505093509350939050565b805160609060008167ffffffffffffffff81111561089957634e487b7160e01b600052604160045260246000fd5b6040519080825280602002602001820160405280156108d257816020015b6108bf612645565b8152602001906001900390816108b75790505b509250600090505b818110156109505761091284828151811061090557634e487b7160e01b600052603260045260246000fd5b6020026020010151610957565b83828151811061093257634e487b7160e01b600052603260045260246000fd5b6020026020010181905250808061094890613043565b9150506108da565b5050919050565b61095f612645565b6000806000846001600160a01b0316630902f1ac6040518163ffffffff1660e01b815260040160606040518083038186803b15801561099d57600080fd5b505afa1580156109b1573d6000803e3d6000fd5b505050506040513d601f19601f820116820180604052508101906109d59190612b8d565b63ffffffff1692506001600160701b031692506001600160701b03169250604051806101600160405280866001600160a01b031663c45a01556040518163ffffffff1660e01b815260040160206040518083038186803b158015610a3857600080fd5b505afa158015610a4c573d6000803e3d6000fd5b505050506040513d601f19601f82011682018060405250810190610a709190612796565b6001600160a01b03168152602001866001600160a01b03168152602001866001600160a01b0316630dfe16816040518163ffffffff1660e01b815260040160206040518083038186803b158015610ac657600080fd5b505afa158015610ada573d6000803e3d6000fd5b505050506040513d601f19601f82011682018060405250810190610afe9190612796565b6001600160a01b03168152602001866001600160a01b031663d21220a76040518163ffffffff1660e01b815260040160206040518083038186803b158015610b4557600080fd5b505afa158015610b59573d6000803e3d6000fd5b505050506040513d601f19601f82011682018060405250810190610b7d9190612796565b6001600160a01b03168152602001848152602001838152602001438152602001828152602001866001600160a01b0316635909c0d56040518163ffffffff1660e01b815260040160206040518083038186803b158015610bdc57600080fd5b505afa158015610bf0573d6000803e3d6000fd5b505050506040513d601f19601f82011682018060405250810190610c149190612bd0565b8152602001866001600160a01b0316635a3d54936040518163ffffffff1660e01b815260040160206040518083038186803b158015610c5257600080fd5b505afa158015610c66573d6000803e3d6000fd5b505050506040513d601f19601f82011682018060405250810190610c8a9190612bd0565b8152602001866001600160a01b03166318160ddd6040518163ffffffff1660e01b815260040160206040518083038186803b158015610cc857600080fd5b505afa158015610cdc573d6000803e3d6000fd5b505050506040513d601f19601f82011682018060405250810190610d009190612bd0565b905295945050505050565b60608167ffffffffffffffff811115610d3457634e487b7160e01b600052604160045260246000fd5b604051908082528060200260200182016040528015610d9b57816020015b6040805160e08101825260008082526020808301829052928201819052606082018190526080820181905260a0820181905260c08201528252600019909201910181610d525790505b50905060005b8281101561125b576000806000868685818110610dce57634e487b7160e01b600052603260045260246000fd5b9050602002016020810190610de3919061277a565b6001600160a01b0316630902f1ac6040518163ffffffff1660e01b815260040160606040518083038186803b158015610e1b57600080fd5b505afa158015610e2f573d6000803e3d6000fd5b505050506040513d601f19601f82011682018060405250810190610e539190612b8d565b63ffffffff1692506001600160701b031692506001600160701b031692506040518060e00160405280888887818110610e9c57634e487b7160e01b600052603260045260246000fd5b9050602002016020810190610eb1919061277a565b6001600160a01b031663c45a01556040518163ffffffff1660e01b815260040160206040518083038186803b158015610ee957600080fd5b505afa158015610efd573d6000803e3d6000fd5b505050506040513d601f19601f82011682018060405250810190610f219190612796565b6001600160a01b03168152602001888887818110610f4f57634e487b7160e01b600052603260045260246000fd5b9050602002016020810190610f64919061277a565b6001600160a01b03168152602001848152602001838152602001828152602001888887818110610fa457634e487b7160e01b600052603260045260246000fd5b9050602002016020810190610fb9919061277a565b6001600160a01b0316630dfe16816040518163ffffffff1660e01b815260040160206040518083038186803b158015610ff157600080fd5b505afa158015611005573d6000803e3d6000fd5b505050506040513d601f19601f820116820180604052508101906110299190612796565b6001600160a01b0316815260200188888781811061105757634e487b7160e01b600052603260045260246000fd5b905060200201602081019061106c919061277a565b6001600160a01b031663d21220a76040518163ffffffff1660e01b815260040160206040518083038186803b1580156110a457600080fd5b505afa1580156110b8573d6000803e3d6000fd5b505050506040513d601f19601f820116820180604052508101906110dc9190612796565b6001600160a01b031681525085858151811061110857634e487b7160e01b600052603260045260246000fd5b60200260200101819052506111796040518060400160405280601081526020016f5041495220414444524553533a20257360801b81525088888781811061115f57634e487b7160e01b600052603260045260246000fd5b9050602002016020810190611174919061277a565b6124c5565b6112456040518060400160405280600b81526020016a464143544f52593a20257360a81b8152508888878181106111c057634e487b7160e01b600052603260045260246000fd5b90506020020160208101906111d5919061277a565b6001600160a01b031663c45a01556040518163ffffffff1660e01b815260040160206040518083038186803b15801561120d57600080fd5b505afa158015611221573d6000803e3d6000fd5b505050506040513d601f19601f820116820180604052508101906111749190612796565b505050808061125390613043565b915050610da1565b505b92915050565b60405163e6a4390560e01b81526001600160a01b03838116600483015282811660248301526000919085169063e6a439059060440160206040518083038186803b1580156112b057600080fd5b505afa1580156112c4573d6000803e3d6000fd5b505050506040513d601f19601f820116820180604052508101906107599190612796565b60005460609081906001600160a01b038881169116148061131657506000546001600160a01b038781169116145b156113c4576040805160028082526060820183529091602083019080368337019050509050868160008151811061135d57634e487b7160e01b600052603260045260246000fd5b60200260200101906001600160a01b031690816001600160a01b031681525050858160018151811061139f57634e487b7160e01b600052603260045260246000fd5b60200260200101906001600160a01b031690816001600160a01b0316815250506114a9565b604080516003808252608082019092529060208201606080368337019050509050868160008151811061140757634e487b7160e01b600052603260045260246000fd5b6001600160a01b03928316602091820292909201015260005482519116908290600190811061144657634e487b7160e01b600052603260045260246000fd5b60200260200101906001600160a01b031690816001600160a01b031681525050858160028151811061148857634e487b7160e01b600052603260045260246000fd5b60200260200101906001600160a01b031690816001600160a01b0316815250505b86863487118015906114c257506001600160a01b038916155b80156114ce5750333014155b1561153f5760008054906101000a90046001600160a01b03166001600160a01b031663d0e30db0346040518263ffffffff1660e01b81526004016000604051808303818588803b15801561152157600080fd5b505af1158015611535573d6000803e3d6000fd5b5050505050611616565b6040516323b872dd60e01b8152336004820152306024820152604481018890526001600160a01b038316906323b872dd90606401602060405180830381600087803b15801561158d57600080fd5b505af11580156115a1573d6000803e3d6000fd5b505050506040513d601f19601f820116820180604052508101906115c59190612a29565b6116165760405162461bcd60e51b815260206004820152601e60248201527f4572726f72205472616e7366657272696e67205b4c494e453a203234365d000060448201526064015b60405180910390fd5b60405163095ea7b360e01b81526001600160a01b038b811660048301526024820189905283169063095ea7b390604401602060405180830381600087803b15801561166057600080fd5b505af1158015611674573d6000803e3d6000fd5b505050506040513d601f19601f820116820180604052508101906116989190612a29565b5060006001600160a01b038b166338ed1739898987306116b9426078612fa8565b6040518663ffffffff1660e01b81526004016116d9959493929190612f48565b600060405180830381600087803b1580156116f357600080fd5b505af192505050801561172857506040513d6000823e601f3d908101601f191682016040526117259190810190612998565b60015b6117bb5761173461308a565b806308c379a0141561178257506117496130a2565b806117545750611784565b61177c6040518060400160405280600681526020016522a92927a91d60d11b8152508261250e565b506117ed565b505b6117b6604051806040016040528060118152602001700554e5355434345535346554c205357415607c1b815250612553565b6117ed565b6117eb6040518060400160405280600f81526020016e05355434345535346554c205357415608c1b815250612553565b505b471561189957604051600090339047908381818185875af1925050503d8060008114611835576040519150601f19603f3d011682016040523d82523d6000602084013e61183a565b606091505b50509050806118975760405162461bcd60e51b8152602060048201526024808201527f4641494c454420746f207472616e736665722045544820746f206d73672e7365604482015263373232b960e11b606482015260840161160d565b505b6040516370a0823160e01b81523060048201526000906001600160a01b038416906370a082319060240160206040518083038186803b1580156118db57600080fd5b505afa1580156118ef573d6000803e3d6000fd5b505050506040513d601f19601f820116820180604052508101906119139190612bd0565b6040516370a0823160e01b81523060048201529091506000906001600160a01b038516906370a082319060240160206040518083038186803b15801561195857600080fd5b505afa15801561196c573d6000803e3d6000fd5b505050506040513d601f19601f820116820180604052508101906119909190612bd0565b1180156119a65750306001600160a01b03881614155b15611b5d576119e260405180604001604052806015815260200174544f4b454e204f55542042414c414e43453a20257360581b81525082612599565b60405163095ea7b360e01b8152306004820152602481018290526001600160a01b0384169063095ea7b390604401602060405180830381600087803b158015611a2a57600080fd5b505af1158015611a3e573d6000803e3d6000fd5b505050506040513d601f19601f82011682018060405250810190611a629190612a29565b506040516323b872dd60e01b81523060048201526001600160a01b038881166024830152604482018390528416906323b872dd90606401602060405180830381600087803b158015611ab357600080fd5b505af1158015611ac7573d6000803e3d6000fd5b505050506040513d601f19601f82011682018060405250810190611aeb9190612a29565b611b5d5760405162461bcd60e51b815260206004820152603960248201527f556e6948656c7065722e737761703a2050726f626c656d207472616e7366657260448201527f72696e6720746f6b656e2e2e2e205b4c494e453a203239345d00000000000000606482015260840161160d565b611b7e60405180606001604052806026815260200161314260269139612553565b50505050509695505050505050565b6000816001600160a01b031663c45a01556040518163ffffffff1660e01b815260040160206040518083038186803b158015611bc857600080fd5b505afa158015611bdc573d6000803e3d6000fd5b505050506040513d601f19601f8201168201806040525081019061125d9190612796565b60606000846001600160a01b031663574f2ba36040518163ffffffff1660e01b815260040160206040518083038186803b158015611c3d57600080fd5b505afa158015611c51573d6000803e3d6000fd5b505050506040513d601f19601f82011682018060405250810190611c759190612bd0565b905080831115611c83578092505b83831015611cd35760405162461bcd60e51b815260206004820181905260248201527f73746172742063616e6e6f7420626520686967686572207468616e2073746f70604482015260640161160d565b6000611cdf8585612fff565b905060008167ffffffffffffffff811115611d0a57634e487b7160e01b600052604160045260246000fd5b604051908082528060200260200182016040528015611d4357816020015b611d306126c3565b815260200190600190039081611d285790505b50905060005b82811015611ff75760006001600160a01b038916631e3dd18b611d6c848b612fa8565b6040518263ffffffff1660e01b8152600401611d8a91815260200190565b60206040518083038186803b158015611da257600080fd5b505afa158015611db6573d6000803e3d6000fd5b505050506040513d601f19601f82011682018060405250810190611dda9190612796565b9050806001600160a01b0316630dfe16816040518163ffffffff1660e01b815260040160206040518083038186803b158015611e1557600080fd5b505afa158015611e29573d6000803e3d6000fd5b505050506040513d601f19601f82011682018060405250810190611e4d9190612796565b838381518110611e6d57634e487b7160e01b600052603260045260246000fd5b6020026020010151600060038110611e9557634e487b7160e01b600052603260045260246000fd5b60200201906001600160a01b031690816001600160a01b031681525050806001600160a01b031663d21220a76040518163ffffffff1660e01b815260040160206040518083038186803b158015611eeb57600080fd5b505afa158015611eff573d6000803e3d6000fd5b505050506040513d601f19601f82011682018060405250810190611f239190612796565b838381518110611f4357634e487b7160e01b600052603260045260246000fd5b6020026020010151600160038110611f6b57634e487b7160e01b600052603260045260246000fd5b60200201906001600160a01b031690816001600160a01b03168152505080838381518110611fa957634e487b7160e01b600052603260045260246000fd5b6020026020010151600260038110611fd157634e487b7160e01b600052603260045260246000fd5b6001600160a01b0390921660209290920201525080611fef81613043565b915050611d49565b509695505050505050565b60405163d06ca61f60e01b81526060906001600160a01b0385169063d06ca61f906107059086908690600401612f2f565b600080612055865161204f6001876125de90919063ffffffff16565b906125ea565b604080516002808252606082018352929350600092839260208301908036833701905050905060006060600093505b8951841015611b7e578b836000815181106120af57634e487b7160e01b600052603260045260246000fd5b60200260200101906001600160a01b031690816001600160a01b0316815250508984815181106120ef57634e487b7160e01b600052603260045260246000fd5b60200260200101518360018151811061211857634e487b7160e01b600052603260045260246000fd5b60200260200101906001600160a01b031690816001600160a01b0316815250508a848151811061215857634e487b7160e01b600052603260045260246000fd5b60200260200101516001600160a01b031663d06ca61f86856040518363ffffffff1660e01b815260040161218d929190612f2f565b60006040518083038186803b1580156121a557600080fd5b505afa1580156121b9573d6000803e3d6000fd5b505050506040513d6000823e601f3d908101601f191682016040526121e19190810190612998565b90506122506122198260018151811061220a57634e487b7160e01b600052603260045260246000fd5b602002602001015160326125f6565b8260018151811061223a57634e487b7160e01b600052603260045260246000fd5b60200260200101516125de90919063ffffffff16565b91508a848151811061227257634e487b7160e01b600052603260045260246000fd5b60200260200101516001600160a01b03166338ed17398684868d4260786122999190612fa8565b6040518663ffffffff1660e01b81526004016122b9959493929190612f48565b600060405180830381600087803b1580156122d357600080fd5b505af11580156122e7573d6000803e3d6000fd5b505050506040513d6000823e601f3d908101601f1916820160405261230f9190810190612998565b508361231a81613043565b945050612084565b6000816001600160a01b031663574f2ba36040518163ffffffff1660e01b815260040160206040518083038186803b15801561235d57600080fd5b505afa158015612371573d6000803e3d6000fd5b505050506040513d601f19601f8201168201806040525081019061125d9190612bd0565b60006001600160a01b0382163161125d565b6123af612645565b60405163e6a4390560e01b81526001600160a01b03848116600483015283811660248301526000919086169063e6a439059060440160206040518083038186803b1580156123fc57600080fd5b505afa158015612410573d6000803e3d6000fd5b505050506040513d601f19601f820116820180604052508101906124349190612796565b905061243f81610957565b95945050505050565b6040516370a0823160e01b81526001600160a01b038381166004830152600091908316906370a082319060240160206040518083038186803b15801561248d57600080fd5b505afa1580156124a1573d6000803e3d6000fd5b505050506040513d601f19601f820116820180604052508101906104ce9190612bd0565b61250a82826040516024016124db929190612eaf565b60408051601f198184030181529190526020810180516001600160e01b031663319af33360e01b179052612624565b5050565b61250a8282604051602401612524929190612ed9565b60408051601f198184030181529190526020810180516001600160e01b0316634b5c427760e01b179052612624565b612596816040516024016125679190612e9c565b60408051601f198184030181529190526020810180516001600160e01b031663104c13eb60e21b179052612624565b50565b61250a82826040516024016125af929190612efe565b60408051601f198184030181529190526020810180516001600160e01b03166309710a9d60e41b179052612624565b60006104ce8284612fff565b60006104ce8284612fc0565b60008061260583612710612fff565b61260f8486612fe0565b6126199190612fc0565b610759906001612fa8565b80516a636f6e736f6c652e6c6f67602083016000808483855afa5050505050565b60405180610160016040528060006001600160a01b0316815260200160006001600160a01b0316815260200160006001600160a01b0316815260200160006001600160a01b03168152602001600081526020016000815260200160008152602001600081526020016000815260200160008152602001600081525090565b60405180606001604052806003906020820280368337509192915050565b600082601f8301126126f1578081fd5b813560206126fe82612f84565b60405161270b8282613016565b8381528281019150858301600585901b8701840188101561272a578586fd5b855b8581101561275157813561273f8161312c565b8452928401929084019060010161272c565b5090979650505050505050565b80516001600160701b038116811461277557600080fd5b919050565b60006020828403121561278b578081fd5b81356104ce8161312c565b6000602082840312156127a7578081fd5b81516104ce8161312c565b600080604083850312156127c4578081fd5b82356127cf8161312c565b915060208301356127df8161312c565b809150509250929050565b60008060008060008060c08789031215612802578182fd5b863561280d8161312c565b9550602087013567ffffffffffffffff80821115612829578384fd5b6128358a838b016126e1565b9650604089013591508082111561284a578384fd5b5061285789828a016126e1565b94505060608701356128688161312c565b9598949750929560808101359460a0909101359350915050565b60008060208385031215612894578182fd5b823567ffffffffffffffff808211156128ab578384fd5b818501915085601f8301126128be578384fd5b8135818111156128cc578485fd5b8660208260051b85010111156128e0578485fd5b60209290920196919550909350505050565b60006020808385031215612904578182fd5b823567ffffffffffffffff81111561291a578283fd5b8301601f8101851361292a578283fd5b803561293581612f84565b6040516129428282613016565b8281528481019150838501600584901b85018601891015612961578687fd5b8694505b8385101561298c5780356129788161312c565b835260019490940193918501918501612965565b50979650505050505050565b600060208083850312156129aa578182fd5b825167ffffffffffffffff8111156129c0578283fd5b8301601f810185136129d0578283fd5b80516129db81612f84565b6040516129e88282613016565b8281528481019150838501600584901b85018601891015612a07578687fd5b8694505b8385101561298c578051835260019490940193918501918501612a0b565b600060208284031215612a3a578081fd5b815180151581146104ce578182fd5b600080600060608486031215612a5d578081fd5b8335612a688161312c565b92506020840135612a788161312c565b91506040840135612a888161312c565b809150509250925092565b600080600060608486031215612aa7578081fd5b8335612ab28161312c565b95602085013595506040909401359392505050565b60008060008060008060c08789031215612adf578384fd5b8635612aea8161312c565b95506020870135612afa8161312c565b94506040870135612b0a8161312c565b9350606087013592506080870135915060a0870135612b288161312c565b809150509295509295509295565b600080600060608486031215612b4a578081fd5b8335612b558161312c565b925060208401359150604084013567ffffffffffffffff811115612b77578182fd5b612b83868287016126e1565b9150509250925092565b600080600060608486031215612ba1578081fd5b612baa8461275e565b9250612bb86020850161275e565b9150604084015163ffffffff81168114612a88578182fd5b600060208284031215612be1578081fd5b5051919050565b6000815180845260208085019450808401835b83811015612c205781516001600160a01b031687529582019590820190600101612bfb565b509495945050505050565b60008151808452815b81811015612c5057602081850181015186830182015201612c34565b81811115612c615782602083870101525b50601f01601f19169290920160200192915050565b80516001600160a01b031682526020810151612c9d60208401826001600160a01b03169052565b506040810151612cb860408401826001600160a01b03169052565b506060810151612cd360608401826001600160a01b03169052565b506080818101519083015260a0808201519083015260c0808201519083015260e080820151908301526101008082015190830152610120808201519083015261014090810151910152565b6020808252825182820181905260009190848201906040850190845b81811015612d8357835183875b6003811015612d6d5782516001600160a01b031682529187019190870190600101612d47565b5050509284019260609290920191600101612d3a565b50909695505050505050565b6020808252825182820181905260009190848201906040850190845b81811015612d8357612dbe838551612c76565b928401926101609290920191600101612dab565b602080825282518282018190526000919060409081850190868401855b82811015612e5757815180516001600160a01b039081168652878201518116888701528682015187870152606080830151908701526080808301519087015260a08083015182169087015260c091820151169085015260e09093019290850190600101612def565b5091979650505050505050565b6020808252825182820181905260009190848201906040850190845b81811015612d8357835183529284019291840191600101612e80565b6020815260006104ce6020830184612c2b565b604081526000612ec26040830185612c2b565b905060018060a01b03831660208301529392505050565b604081526000612eec6040830185612c2b565b828103602084015261243f8185612c2b565b604081526000612f116040830185612c2b565b90508260208301529392505050565b610160810161125d8284612c76565b8281526040602082015260006107596040830184612be8565b85815284602082015260a060408201526000612f6760a0830186612be8565b6001600160a01b0394909416606083015250608001529392505050565b600067ffffffffffffffff821115612f9e57612f9e613074565b5060051b60200190565b60008219821115612fbb57612fbb61305e565b500190565b600082612fdb57634e487b7160e01b81526012600452602481fd5b500490565b6000816000190483118215151615612ffa57612ffa61305e565b500290565b6000828210156130115761301161305e565b500390565b601f8201601f1916810167ffffffffffffffff8111828210171561303c5761303c613074565b6040525050565b60006000198214156130575761305761305e565b5060010190565b634e487b7160e01b600052601160045260246000fd5b634e487b7160e01b600052604160045260246000fd5b600060033d111561309f57600481823e5160e01c5b90565b600060443d10156130b05790565b6040516003193d81016004833e81513d67ffffffffffffffff81602484011181841117156130e057505050505090565b82850191508151818111156130f85750505050505090565b843d87010160208285010111156131125750505050505090565b61312160208286010187613016565b509095945050505050565b6001600160a01b038116811461259657600080fdfe2b2b2b2b2b2b2b2b2b2b2b2b2b2b2b2b2b2b2b2b2b2b2b2b2b2b2b2b2b2b2b2b2b2b2b2b2b2ba2646970667358221220b009cda47c921c2eceb4262607b1c5c75da0212ef16b59c321b2c3f0b658d7b064736f6c63430008040033",
  "linkReferences": {},
  "deployedLinkReferences": {}
}