{
  "_format": "hh-sol-artifact-1",
  "contractName": "FraktalFinancialServices",
  "sourceName": "contracts/FraktalFinancialServices.sol",
  "abi": [
    {
      "inputs": [],
      "stateMutability": "nonpayable",
      "type": "constructor"
    },
    {
      "anonymous": false,
      "inputs": [
        {
          "indexed": true,
          "internalType": "address",
          "name": "owner",
          "type": "address"
        },
        {
          "indexed": true,
          "internalType": "address",
          "name": "spender",
          "type": "address"
        },
        {
          "indexed": false,
          "internalType": "uint256",
          "name": "value",
          "type": "uint256"
        }
      ],
      "name": "Approval",
      "type": "event"
    },
    {
      "anonymous": false,
      "inputs": [
        {
          "indexed": true,
          "internalType": "address",
          "name": "delegator",
          "type": "address"
        },
        {
          "indexed": true,
          "internalType": "address",
          "name": "fromDelegate",
          "type": "address"
        },
        {
          "indexed": true,
          "internalType": "address",
          "name": "toDelegate",
          "type": "address"
        }
      ],
      "name": "DelegateChanged",
      "type": "event"
    },
    {
      "anonymous": false,
      "inputs": [
        {
          "indexed": true,
          "internalType": "address",
          "name": "delegate",
          "type": "address"
        },
        {
          "indexed": false,
          "internalType": "uint256",
          "name": "previousBalance",
          "type": "uint256"
        },
        {
          "indexed": false,
          "internalType": "uint256",
          "name": "newBalance",
          "type": "uint256"
        }
      ],
      "name": "DelegateVotesChanged",
      "type": "event"
    },
    {
      "anonymous": false,
      "inputs": [
        {
          "indexed": true,
          "internalType": "address",
          "name": "previousOwner",
          "type": "address"
        },
        {
          "indexed": true,
          "internalType": "address",
          "name": "newOwner",
          "type": "address"
        }
      ],
      "name": "OwnershipTransferred",
      "type": "event"
    },
    {
      "anonymous": false,
      "inputs": [
        {
          "indexed": true,
          "internalType": "bytes32",
          "name": "role",
          "type": "bytes32"
        },
        {
          "indexed": true,
          "internalType": "bytes32",
          "name": "previousAdminRole",
          "type": "bytes32"
        },
        {
          "indexed": true,
          "internalType": "bytes32",
          "name": "newAdminRole",
          "type": "bytes32"
        }
      ],
      "name": "RoleAdminChanged",
      "type": "event"
    },
    {
      "anonymous": false,
      "inputs": [
        {
          "indexed": true,
          "internalType": "bytes32",
          "name": "role",
          "type": "bytes32"
        },
        {
          "indexed": true,
          "internalType": "address",
          "name": "account",
          "type": "address"
        },
        {
          "indexed": true,
          "internalType": "address",
          "name": "sender",
          "type": "address"
        }
      ],
      "name": "RoleGranted",
      "type": "event"
    },
    {
      "anonymous": false,
      "inputs": [
        {
          "indexed": true,
          "internalType": "bytes32",
          "name": "role",
          "type": "bytes32"
        },
        {
          "indexed": true,
          "internalType": "address",
          "name": "account",
          "type": "address"
        },
        {
          "indexed": true,
          "internalType": "address",
          "name": "sender",
          "type": "address"
        }
      ],
      "name": "RoleRevoked",
      "type": "event"
    },
    {
      "anonymous": false,
      "inputs": [
        {
          "indexed": true,
          "internalType": "address",
          "name": "from",
          "type": "address"
        },
        {
          "indexed": true,
          "internalType": "address",
          "name": "to",
          "type": "address"
        },
        {
          "indexed": false,
          "internalType": "uint256",
          "name": "value",
          "type": "uint256"
        }
      ],
      "name": "Transfer",
      "type": "event"
    },
    {
      "inputs": [],
      "name": "DEFAULT_ADMIN_ROLE",
      "outputs": [
        {
          "internalType": "bytes32",
          "name": "",
          "type": "bytes32"
        }
      ],
      "stateMutability": "view",
      "type": "function"
    },
    {
      "inputs": [],
      "name": "DOMAIN_SEPARATOR",
      "outputs": [
        {
          "internalType": "bytes32",
          "name": "",
          "type": "bytes32"
        }
      ],
      "stateMutability": "view",
      "type": "function"
    },
    {
      "inputs": [
        {
          "internalType": "address",
          "name": "owner",
          "type": "address"
        },
        {
          "internalType": "address",
          "name": "spender",
          "type": "address"
        }
      ],
      "name": "allowance",
      "outputs": [
        {
          "internalType": "uint256",
          "name": "",
          "type": "uint256"
        }
      ],
      "stateMutability": "view",
      "type": "function"
    },
    {
      "inputs": [
        {
          "internalType": "address",
          "name": "spender",
          "type": "address"
        },
        {
          "internalType": "uint256",
          "name": "amount",
          "type": "uint256"
        }
      ],
      "name": "approve",
      "outputs": [
        {
          "internalType": "bool",
          "name": "",
          "type": "bool"
        }
      ],
      "stateMutability": "nonpayable",
      "type": "function"
    },
    {
      "inputs": [
        {
          "internalType": "address",
          "name": "account",
          "type": "address"
        }
      ],
      "name": "balanceOf",
      "outputs": [
        {
          "internalType": "uint256",
          "name": "",
          "type": "uint256"
        }
      ],
      "stateMutability": "view",
      "type": "function"
    },
    {
      "inputs": [
        {
          "internalType": "address",
          "name": "account",
          "type": "address"
        },
        {
          "internalType": "uint32",
          "name": "pos",
          "type": "uint32"
        }
      ],
      "name": "checkpoints",
      "outputs": [
        {
          "components": [
            {
              "internalType": "uint32",
              "name": "fromBlock",
              "type": "uint32"
            },
            {
              "internalType": "uint224",
              "name": "votes",
              "type": "uint224"
            }
          ],
          "internalType": "struct ERC20Votes.Checkpoint",
          "name": "",
          "type": "tuple"
        }
      ],
      "stateMutability": "view",
      "type": "function"
    },
    {
      "inputs": [],
      "name": "decimals",
      "outputs": [
        {
          "internalType": "uint8",
          "name": "",
          "type": "uint8"
        }
      ],
      "stateMutability": "view",
      "type": "function"
    },
    {
      "inputs": [
        {
          "internalType": "address",
          "name": "spender",
          "type": "address"
        },
        {
          "internalType": "uint256",
          "name": "subtractedValue",
          "type": "uint256"
        }
      ],
      "name": "decreaseAllowance",
      "outputs": [
        {
          "internalType": "bool",
          "name": "",
          "type": "bool"
        }
      ],
      "stateMutability": "nonpayable",
      "type": "function"
    },
    {
      "inputs": [
        {
          "internalType": "address",
          "name": "delegatee",
          "type": "address"
        }
      ],
      "name": "delegate",
      "outputs": [],
      "stateMutability": "nonpayable",
      "type": "function"
    },
    {
      "inputs": [
        {
          "internalType": "address",
          "name": "delegatee",
          "type": "address"
        },
        {
          "internalType": "uint256",
          "name": "nonce",
          "type": "uint256"
        },
        {
          "internalType": "uint256",
          "name": "expiry",
          "type": "uint256"
        },
        {
          "internalType": "uint8",
          "name": "v",
          "type": "uint8"
        },
        {
          "internalType": "bytes32",
          "name": "r",
          "type": "bytes32"
        },
        {
          "internalType": "bytes32",
          "name": "s",
          "type": "bytes32"
        }
      ],
      "name": "delegateBySig",
      "outputs": [],
      "stateMutability": "nonpayable",
      "type": "function"
    },
    {
      "inputs": [
        {
          "internalType": "address",
          "name": "account",
          "type": "address"
        }
      ],
      "name": "delegates",
      "outputs": [
        {
          "internalType": "address",
          "name": "",
          "type": "address"
        }
      ],
      "stateMutability": "view",
      "type": "function"
    },
    {
      "inputs": [
        {
          "internalType": "uint256",
          "name": "blockNumber",
          "type": "uint256"
        }
      ],
      "name": "getPastTotalSupply",
      "outputs": [
        {
          "internalType": "uint256",
          "name": "",
          "type": "uint256"
        }
      ],
      "stateMutability": "view",
      "type": "function"
    },
    {
      "inputs": [
        {
          "internalType": "address",
          "name": "account",
          "type": "address"
        },
        {
          "internalType": "uint256",
          "name": "blockNumber",
          "type": "uint256"
        }
      ],
      "name": "getPastVotes",
      "outputs": [
        {
          "internalType": "uint256",
          "name": "",
          "type": "uint256"
        }
      ],
      "stateMutability": "view",
      "type": "function"
    },
    {
      "inputs": [
        {
          "internalType": "bytes32",
          "name": "role",
          "type": "bytes32"
        }
      ],
      "name": "getRoleAdmin",
      "outputs": [
        {
          "internalType": "bytes32",
          "name": "",
          "type": "bytes32"
        }
      ],
      "stateMutability": "view",
      "type": "function"
    },
    {
      "inputs": [
        {
          "internalType": "address",
          "name": "account",
          "type": "address"
        }
      ],
      "name": "getVotes",
      "outputs": [
        {
          "internalType": "uint256",
          "name": "",
          "type": "uint256"
        }
      ],
      "stateMutability": "view",
      "type": "function"
    },
    {
      "inputs": [
        {
          "internalType": "bytes32",
          "name": "role",
          "type": "bytes32"
        },
        {
          "internalType": "address",
          "name": "account",
          "type": "address"
        }
      ],
      "name": "grantRole",
      "outputs": [],
      "stateMutability": "nonpayable",
      "type": "function"
    },
    {
      "inputs": [
        {
          "internalType": "bytes32",
          "name": "role",
          "type": "bytes32"
        },
        {
          "internalType": "address",
          "name": "account",
          "type": "address"
        }
      ],
      "name": "hasRole",
      "outputs": [
        {
          "internalType": "bool",
          "name": "",
          "type": "bool"
        }
      ],
      "stateMutability": "view",
      "type": "function"
    },
    {
      "inputs": [
        {
          "internalType": "address",
          "name": "spender",
          "type": "address"
        },
        {
          "internalType": "uint256",
          "name": "addedValue",
          "type": "uint256"
        }
      ],
      "name": "increaseAllowance",
      "outputs": [
        {
          "internalType": "bool",
          "name": "",
          "type": "bool"
        }
      ],
      "stateMutability": "nonpayable",
      "type": "function"
    },
    {
      "inputs": [],
      "name": "name",
      "outputs": [
        {
          "internalType": "string",
          "name": "",
          "type": "string"
        }
      ],
      "stateMutability": "view",
      "type": "function"
    },
    {
      "inputs": [
        {
          "internalType": "address",
          "name": "owner",
          "type": "address"
        }
      ],
      "name": "nonces",
      "outputs": [
        {
          "internalType": "uint256",
          "name": "",
          "type": "uint256"
        }
      ],
      "stateMutability": "view",
      "type": "function"
    },
    {
      "inputs": [
        {
          "internalType": "address",
          "name": "account",
          "type": "address"
        }
      ],
      "name": "numCheckpoints",
      "outputs": [
        {
          "internalType": "uint32",
          "name": "",
          "type": "uint32"
        }
      ],
      "stateMutability": "view",
      "type": "function"
    },
    {
      "inputs": [],
      "name": "owner",
      "outputs": [
        {
          "internalType": "address",
          "name": "",
          "type": "address"
        }
      ],
      "stateMutability": "view",
      "type": "function"
    },
    {
      "inputs": [
        {
          "internalType": "address",
          "name": "owner",
          "type": "address"
        },
        {
          "internalType": "address",
          "name": "spender",
          "type": "address"
        },
        {
          "internalType": "uint256",
          "name": "value",
          "type": "uint256"
        },
        {
          "internalType": "uint256",
          "name": "deadline",
          "type": "uint256"
        },
        {
          "internalType": "uint8",
          "name": "v",
          "type": "uint8"
        },
        {
          "internalType": "bytes32",
          "name": "r",
          "type": "bytes32"
        },
        {
          "internalType": "bytes32",
          "name": "s",
          "type": "bytes32"
        }
      ],
      "name": "permit",
      "outputs": [],
      "stateMutability": "nonpayable",
      "type": "function"
    },
    {
      "inputs": [],
      "name": "renounceOwnership",
      "outputs": [],
      "stateMutability": "nonpayable",
      "type": "function"
    },
    {
      "inputs": [
        {
          "internalType": "bytes32",
          "name": "role",
          "type": "bytes32"
        },
        {
          "internalType": "address",
          "name": "account",
          "type": "address"
        }
      ],
      "name": "renounceRole",
      "outputs": [],
      "stateMutability": "nonpayable",
      "type": "function"
    },
    {
      "inputs": [
        {
          "internalType": "bytes32",
          "name": "role",
          "type": "bytes32"
        },
        {
          "internalType": "address",
          "name": "account",
          "type": "address"
        }
      ],
      "name": "revokeRole",
      "outputs": [],
      "stateMutability": "nonpayable",
      "type": "function"
    },
    {
      "inputs": [
        {
          "internalType": "bytes4",
          "name": "interfaceId",
          "type": "bytes4"
        }
      ],
      "name": "supportsInterface",
      "outputs": [
        {
          "internalType": "bool",
          "name": "",
          "type": "bool"
        }
      ],
      "stateMutability": "view",
      "type": "function"
    },
    {
      "inputs": [],
      "name": "symbol",
      "outputs": [
        {
          "internalType": "string",
          "name": "",
          "type": "string"
        }
      ],
      "stateMutability": "view",
      "type": "function"
    },
    {
      "inputs": [],
      "name": "totalSupply",
      "outputs": [
        {
          "internalType": "uint256",
          "name": "",
          "type": "uint256"
        }
      ],
      "stateMutability": "view",
      "type": "function"
    },
    {
      "inputs": [
        {
          "internalType": "address",
          "name": "recipient",
          "type": "address"
        },
        {
          "internalType": "uint256",
          "name": "amount",
          "type": "uint256"
        }
      ],
      "name": "transfer",
      "outputs": [
        {
          "internalType": "bool",
          "name": "",
          "type": "bool"
        }
      ],
      "stateMutability": "nonpayable",
      "type": "function"
    },
    {
      "inputs": [
        {
          "internalType": "address",
          "name": "sender",
          "type": "address"
        },
        {
          "internalType": "address",
          "name": "recipient",
          "type": "address"
        },
        {
          "internalType": "uint256",
          "name": "amount",
          "type": "uint256"
        }
      ],
      "name": "transferFrom",
      "outputs": [
        {
          "internalType": "bool",
          "name": "",
          "type": "bool"
        }
      ],
      "stateMutability": "nonpayable",
      "type": "function"
    },
    {
      "inputs": [
        {
          "internalType": "address",
          "name": "newOwner",
          "type": "address"
        }
      ],
      "name": "transferOwnership",
      "outputs": [],
      "stateMutability": "nonpayable",
      "type": "function"
    }
  ],
  "bytecode": "0x6101406040527f6e71edae12b1b97f4d1f60370fef10105fa2faae0126114a169c64845d6126c9610120523480156200003757600080fd5b506040518060400160405280601a81526020017f4672616b74616c2046696e616e6369616c20536572766963657300000000000081525080604051806040016040528060018152602001603160f81b8152506040518060400160405280601a81526020017f4672616b74616c2046696e616e6369616c2053657276696365730000000000008152506040518060400160405280600381526020016246465360e81b815250620000f5620000ef620001b460201b60201c565b620001b8565b81516200010a90600590602085019062000208565b5080516200012090600690602084019062000208565b5050825160209384012082519284019290922060c083815260e08290524660a0818152604080517f8b73c3c69bb8fe3d512ecc4cf759cc79239f7b179b0ffacaa9a75d522b39400f818a018190528183019890985260608101959095526080808601939093523085830152805180860390920182529390920190925280519401939093209092526101005250620002eb9050565b3390565b600080546001600160a01b038381166001600160a01b0319831681178455604051919092169283917f8be0079c531659141344cd1fd0a4f28419497f9722a3daafe3b4186f6b6457e09190a35050565b8280546200021690620002ae565b90600052602060002090601f0160209004810192826200023a576000855562000285565b82601f106200025557805160ff191683800117855562000285565b8280016001018555821562000285579182015b828111156200028557825182559160200191906001019062000268565b506200029392915062000297565b5090565b5b8082111562000293576000815560010162000298565b600181811c90821680620002c357607f821691505b60208210811415620002e557634e487b7160e01b600052602260045260246000fd5b50919050565b60805160a05160c05160e05161010051610120516123056200033b6000396000610c03015260006112b701526000611306015260006112e1015260006112650152600061128e01526123056000f3fe608060405234801561001057600080fd5b50600436106101f05760003560e01c8063715018a61161010f578063a457c2d7116100a2578063d547741f11610071578063d547741f1461045c578063dd62ed3e1461046f578063f1127ed8146104a8578063f2fde38b146104e557600080fd5b8063a457c2d714610410578063a9059cbb14610423578063c3cda52014610436578063d505accf1461044957600080fd5b806391d14854116100de57806391d14854146103da57806395d89b41146103ed5780639ab24eb0146103f5578063a217fddf1461040857600080fd5b8063715018a61461039b5780637ecebe00146103a35780638da5cb5b146103b65780638e539e8c146103c757600080fd5b80633644e51511610187578063587cde1e11610156578063587cde1e146102f35780635c19a95c146103375780636fcfff451461034a57806370a082311461037257600080fd5b80633644e515146102b257806336568abe146102ba57806339509351146102cd5780633a46b1a8146102e057600080fd5b806323b872dd116101c357806323b872dd14610257578063248a9ca31461026a5780632f2ff15d1461028e578063313ce567146102a357600080fd5b806301ffc9a7146101f557806306fdde031461021d578063095ea7b31461023257806318160ddd14610245575b600080fd5b610208610203366004612103565b6104f8565b60405190151581526020015b60405180910390f35b61022561052f565b60405161021491906121a0565b61020861024036600461200b565b6105c1565b6004545b604051908152602001610214565b610208610265366004611f67565b6105d7565b6102496102783660046120c9565b6000908152600160208190526040909120015490565b6102a161029c3660046120e1565b610686565b005b60405160128152602001610214565b6102496106b2565b6102a16102c83660046120e1565b6106c1565b6102086102db36600461200b565b61073f565b6102496102ee36600461200b565b61077b565b61031f610301366004611f1b565b6001600160a01b039081166000908152600860205260409020541690565b6040516001600160a01b039091168152602001610214565b6102a1610345366004611f1b565b6107f5565b61035d610358366004611f1b565b610802565b60405163ffffffff9091168152602001610214565b610249610380366004611f1b565b6001600160a01b031660009081526002602052604090205490565b6102a1610824565b6102496103b1366004611f1b565b61088a565b6000546001600160a01b031661031f565b6102496103d53660046120c9565b6108a8565b6102086103e83660046120e1565b610904565b61022561092f565b610249610403366004611f1b565b61093e565b610249600081565b61020861041e36600461200b565b6109d3565b61020861043136600461200b565b610a6c565b6102a1610444366004612034565b610a79565b6102a1610457366004611fa2565b610baf565b6102a161046a3660046120e1565b610d13565b61024961047d366004611f35565b6001600160a01b03918216600090815260036020908152604080832093909416825291909152205490565b6104bb6104b636600461208b565b610d3a565b60408051825163ffffffff1681526020928301516001600160e01b03169281019290925201610214565b6102a16104f3366004611f1b565b610dcc565b60006001600160e01b03198216637965db0b60e01b148061052957506301ffc9a760e01b6001600160e01b03198316145b92915050565b60606005805461053e90612284565b80601f016020809104026020016040519081016040528092919081815260200182805461056a90612284565b80156105b75780601f1061058c576101008083540402835291602001916105b7565b820191906000526020600020905b81548152906001019060200180831161059a57829003601f168201915b5050505050905090565b60006105ce338484610e94565b50600192915050565b60006105e4848484610fb8565b6001600160a01b03841660009081526003602090815260408083203384529091529020548281101561066e5760405162461bcd60e51b815260206004820152602860248201527f45524332303a207472616e7366657220616d6f756e74206578636565647320616044820152676c6c6f77616e636560c01b60648201526084015b60405180910390fd5b61067b8533858403610e94565b506001949350505050565b600082815260016020819052604090912001546106a38133611192565b6106ad83836111f6565b505050565b60006106bc611261565b905090565b6001600160a01b03811633146107315760405162461bcd60e51b815260206004820152602f60248201527f416363657373436f6e74726f6c3a2063616e206f6e6c792072656e6f756e636560448201526e103937b632b9903337b91039b2b63360891b6064820152608401610665565b61073b8282611354565b5050565b3360008181526003602090815260408083206001600160a01b038716845290915281205490916105ce9185906107769086906121d3565b610e94565b60004382106107cc5760405162461bcd60e51b815260206004820152601f60248201527f4552433230566f7465733a20626c6f636b206e6f7420796574206d696e6564006044820152606401610665565b6001600160a01b03831660009081526009602052604090206107ee90836113bb565b9392505050565b6107ff3382611494565b50565b6001600160a01b0381166000908152600960205260408120546105299061150e565b6000546001600160a01b0316331461087e5760405162461bcd60e51b815260206004820181905260248201527f4f776e61626c653a2063616c6c6572206973206e6f7420746865206f776e65726044820152606401610665565b6108886000611577565b565b6001600160a01b038116600090815260076020526040812054610529565b60004382106108f95760405162461bcd60e51b815260206004820152601f60248201527f4552433230566f7465733a20626c6f636b206e6f7420796574206d696e6564006044820152606401610665565b610529600a836113bb565b60009182526001602090815260408084206001600160a01b0393909316845291905290205460ff1690565b60606006805461053e90612284565b6001600160a01b03811660009081526009602052604081205480156109c0576001600160a01b038316600090815260096020526040902061098060018361222a565b8154811061099e57634e487b7160e01b600052603260045260246000fd5b60009182526020909120015464010000000090046001600160e01b03166109c3565b60005b6001600160e01b03169392505050565b3360009081526003602090815260408083206001600160a01b038616845290915281205482811015610a555760405162461bcd60e51b815260206004820152602560248201527f45524332303a2064656372656173656420616c6c6f77616e63652062656c6f77604482015264207a65726f60d81b6064820152608401610665565b610a623385858403610e94565b5060019392505050565b60006105ce338484610fb8565b83421115610ac95760405162461bcd60e51b815260206004820152601d60248201527f4552433230566f7465733a207369676e617475726520657870697265640000006044820152606401610665565b604080517fe48329057bfd03d55e49b547132e39cffd9c1820ad7b9d4c5307691425d15adf60208201526001600160a01b038816918101919091526060810186905260808101859052600090610b4390610b3b9060a001604051602081830303815290604052805190602001206115c7565b858585611615565b9050610b4e8161163d565b8614610b9c5760405162461bcd60e51b815260206004820152601960248201527f4552433230566f7465733a20696e76616c6964206e6f6e6365000000000000006044820152606401610665565b610ba68188611494565b50505050505050565b83421115610bff5760405162461bcd60e51b815260206004820152601d60248201527f45524332305065726d69743a206578706972656420646561646c696e650000006044820152606401610665565b60007f0000000000000000000000000000000000000000000000000000000000000000888888610c2e8c61163d565b6040805160208101969096526001600160a01b0394851690860152929091166060840152608083015260a082015260c0810186905260e0016040516020818303038152906040528051906020012090506000610c89826115c7565b90506000610c9982878787611615565b9050896001600160a01b0316816001600160a01b031614610cfc5760405162461bcd60e51b815260206004820152601e60248201527f45524332305065726d69743a20696e76616c6964207369676e617475726500006044820152606401610665565b610d078a8a8a610e94565b50505050505050505050565b60008281526001602081905260409091200154610d308133611192565b6106ad8383611354565b60408051808201909152600080825260208201526001600160a01b0383166000908152600960205260409020805463ffffffff8416908110610d8c57634e487b7160e01b600052603260045260246000fd5b60009182526020918290206040805180820190915291015463ffffffff8116825264010000000090046001600160e01b0316918101919091529392505050565b6000546001600160a01b03163314610e265760405162461bcd60e51b815260206004820181905260248201527f4f776e61626c653a2063616c6c6572206973206e6f7420746865206f776e65726044820152606401610665565b6001600160a01b038116610e8b5760405162461bcd60e51b815260206004820152602660248201527f4f776e61626c653a206e6577206f776e657220697320746865207a65726f206160448201526564647265737360d01b6064820152608401610665565b6107ff81611577565b6001600160a01b038316610ef65760405162461bcd60e51b8152602060048201526024808201527f45524332303a20617070726f76652066726f6d20746865207a65726f206164646044820152637265737360e01b6064820152608401610665565b6001600160a01b038216610f575760405162461bcd60e51b815260206004820152602260248201527f45524332303a20617070726f766520746f20746865207a65726f206164647265604482015261737360f01b6064820152608401610665565b6001600160a01b0383811660008181526003602090815260408083209487168084529482529182902085905590518481527f8c5be1e5ebec7d5bd14f71427d1e84f3dd0314c0f7b2291e5b200ac8c7c3b925910160405180910390a3505050565b6001600160a01b03831661101c5760405162461bcd60e51b815260206004820152602560248201527f45524332303a207472616e736665722066726f6d20746865207a65726f206164604482015264647265737360d81b6064820152608401610665565b6001600160a01b03821661107e5760405162461bcd60e51b815260206004820152602360248201527f45524332303a207472616e7366657220746f20746865207a65726f206164647260448201526265737360e81b6064820152608401610665565b6001600160a01b038316600090815260026020526040902054818110156110f65760405162461bcd60e51b815260206004820152602660248201527f45524332303a207472616e7366657220616d6f756e7420657863656564732062604482015265616c616e636560d01b6064820152608401610665565b6001600160a01b0380851660009081526002602052604080822085850390559185168152908120805484929061112d9084906121d3565b92505081905550826001600160a01b0316846001600160a01b03167fddf252ad1be2c89b69c2b068fc378daa952ba7f163c4a11628f55a4df523b3ef8460405161117991815260200190565b60405180910390a361118c848484611665565b50505050565b61119c8282610904565b61073b576111b4816001600160a01b03166014611670565b6111bf836020611670565b6040516020016111d092919061212b565b60408051601f198184030181529082905262461bcd60e51b8252610665916004016121a0565b6112008282610904565b61073b5760008281526001602081815260408084206001600160a01b0386168086529252808420805460ff19169093179092559051339285917f2f8788117e7eff1d82e926ec794901d17c78024a50270940304540a733656f0d9190a45050565b60007f00000000000000000000000000000000000000000000000000000000000000004614156112b057507f000000000000000000000000000000000000000000000000000000000000000090565b50604080517f00000000000000000000000000000000000000000000000000000000000000006020808301919091527f0000000000000000000000000000000000000000000000000000000000000000828401527f000000000000000000000000000000000000000000000000000000000000000060608301524660808301523060a0808401919091528351808403909101815260c0909201909252805191012090565b61135e8282610904565b1561073b5760008281526001602090815260408083206001600160a01b0385168085529252808320805460ff1916905551339285917ff6391f5c32d9c69d2a47ea670b442974b53935d1edc7fd64eb21e047a839171b9190a45050565b8154600090815b8181101561142d5760006113d68284611852565b9050848682815481106113f957634e487b7160e01b600052603260045260246000fd5b60009182526020909120015463ffffffff16111561141957809250611427565b6114248160016121d3565b91505b506113c2565b811561147f578461143f60018461222a565b8154811061145d57634e487b7160e01b600052603260045260246000fd5b60009182526020909120015464010000000090046001600160e01b0316611482565b60005b6001600160e01b031695945050505050565b6001600160a01b03828116600081815260086020818152604080842080546002845282862054949093528787166001600160a01b03198416811790915590519190951694919391928592917f3134e8a2e6d97e929a7e54011ea5485d7d196dd5f0ba4d4ef95803e8e3fc257f9190a461118c82848361186d565b600063ffffffff8211156115735760405162461bcd60e51b815260206004820152602660248201527f53616665436173743a2076616c756520646f65736e27742066697420696e203360448201526532206269747360d01b6064820152608401610665565b5090565b600080546001600160a01b038381166001600160a01b0319831681178455604051919092169283917f8be0079c531659141344cd1fd0a4f28419497f9722a3daafe3b4186f6b6457e09190a35050565b60006105296115d4611261565b8360405161190160f01b6020820152602281018390526042810182905260009060620160405160208183030381529060405280519060200120905092915050565b6000806000611626878787876119aa565b9150915061163381611a97565b5095945050505050565b6001600160a01b03811660009081526007602052604090208054600181018255905b50919050565b6106ad838383611c98565b6060600061167f83600261220b565b61168a9060026121d3565b67ffffffffffffffff8111156116b057634e487b7160e01b600052604160045260246000fd5b6040519080825280601f01601f1916602001820160405280156116da576020820181803683370190505b509050600360fc1b8160008151811061170357634e487b7160e01b600052603260045260246000fd5b60200101906001600160f81b031916908160001a905350600f60fb1b8160018151811061174057634e487b7160e01b600052603260045260246000fd5b60200101906001600160f81b031916908160001a905350600061176484600261220b565b61176f9060016121d3565b90505b6001811115611803576f181899199a1a9b1b9c1cb0b131b232b360811b85600f16601081106117b157634e487b7160e01b600052603260045260246000fd5b1a60f81b8282815181106117d557634e487b7160e01b600052603260045260246000fd5b60200101906001600160f81b031916908160001a90535060049490941c936117fc8161226d565b9050611772565b5083156107ee5760405162461bcd60e51b815260206004820181905260248201527f537472696e67733a20686578206c656e67746820696e73756666696369656e746044820152606401610665565b600061186160028484186121eb565b6107ee908484166121d3565b816001600160a01b0316836001600160a01b03161415801561188f5750600081115b156106ad576001600160a01b0383161561191d576001600160a01b038316600090815260096020526040812081906118ca90611cca85611cd6565b91509150846001600160a01b03167fdec2bacdd2f05b59de34da9b523dff8be42e5e38e818c82fdb0bae774387a7248383604051611912929190918252602082015260400190565b60405180910390a250505b6001600160a01b038216156106ad576001600160a01b0382166000908152600960205260408120819061195390611e7985611cd6565b91509150836001600160a01b03167fdec2bacdd2f05b59de34da9b523dff8be42e5e38e818c82fdb0bae774387a724838360405161199b929190918252602082015260400190565b60405180910390a25050505050565b6000807f7fffffffffffffffffffffffffffffff5d576e7357a4501ddfe92f46681b20a08311156119e15750600090506003611a8e565b8460ff16601b141580156119f957508460ff16601c14155b15611a0a5750600090506004611a8e565b6040805160008082526020820180845289905260ff881692820192909252606081018690526080810185905260019060a0016020604051602081039080840390855afa158015611a5e573d6000803e3d6000fd5b5050604051601f1901519150506001600160a01b038116611a8757600060019250925050611a8e565b9150600090505b94509492505050565b6000816004811115611ab957634e487b7160e01b600052602160045260246000fd5b1415611ac25750565b6001816004811115611ae457634e487b7160e01b600052602160045260246000fd5b1415611b325760405162461bcd60e51b815260206004820152601860248201527f45434453413a20696e76616c6964207369676e617475726500000000000000006044820152606401610665565b6002816004811115611b5457634e487b7160e01b600052602160045260246000fd5b1415611ba25760405162461bcd60e51b815260206004820152601f60248201527f45434453413a20696e76616c6964207369676e6174757265206c656e677468006044820152606401610665565b6003816004811115611bc457634e487b7160e01b600052602160045260246000fd5b1415611c1d5760405162461bcd60e51b815260206004820152602260248201527f45434453413a20696e76616c6964207369676e6174757265202773272076616c604482015261756560f01b6064820152608401610665565b6004816004811115611c3f57634e487b7160e01b600052602160045260246000fd5b14156107ff5760405162461bcd60e51b815260206004820152602260248201527f45434453413a20696e76616c6964207369676e6174757265202776272076616c604482015261756560f01b6064820152608401610665565b6001600160a01b038381166000908152600860205260408082205485841683529120546106ad9291821691168361186d565b60006107ee828461222a565b825460009081908015611d2f5785611cef60018361222a565b81548110611d0d57634e487b7160e01b600052603260045260246000fd5b60009182526020909120015464010000000090046001600160e01b0316611d32565b60005b6001600160e01b03169250611d4b83858763ffffffff16565b9150600081118015611d9757504386611d6560018461222a565b81548110611d8357634e487b7160e01b600052603260045260246000fd5b60009182526020909120015463ffffffff16145b15611e0557611da582611e85565b86611db160018461222a565b81548110611dcf57634e487b7160e01b600052603260045260246000fd5b9060005260206000200160000160046101000a8154816001600160e01b0302191690836001600160e01b03160217905550611e70565b856040518060400160405280611e1a4361150e565b63ffffffff168152602001611e2e85611e85565b6001600160e01b0390811690915282546001810184556000938452602093849020835194909301519091166401000000000263ffffffff909316929092179101555b50935093915050565b60006107ee82846121d3565b60006001600160e01b038211156115735760405162461bcd60e51b815260206004820152602760248201527f53616665436173743a2076616c756520646f65736e27742066697420696e20326044820152663234206269747360c81b6064820152608401610665565b80356001600160a01b0381168114611f0557600080fd5b919050565b803560ff81168114611f0557600080fd5b600060208284031215611f2c578081fd5b6107ee82611eee565b60008060408385031215611f47578081fd5b611f5083611eee565b9150611f5e60208401611eee565b90509250929050565b600080600060608486031215611f7b578081fd5b611f8484611eee565b9250611f9260208501611eee565b9150604084013590509250925092565b600080600080600080600060e0888a031215611fbc578283fd5b611fc588611eee565b9650611fd360208901611eee565b95506040880135945060608801359350611fef60808901611f0a565b925060a0880135915060c0880135905092959891949750929550565b6000806040838503121561201d578182fd5b61202683611eee565b946020939093013593505050565b60008060008060008060c0878903121561204c578182fd5b61205587611eee565b9550602087013594506040870135935061207160608801611f0a565b92506080870135915060a087013590509295509295509295565b6000806040838503121561209d578182fd5b6120a683611eee565b9150602083013563ffffffff811681146120be578182fd5b809150509250929050565b6000602082840312156120da578081fd5b5035919050565b600080604083850312156120f3578182fd5b82359150611f5e60208401611eee565b600060208284031215612114578081fd5b81356001600160e01b0319811681146107ee578182fd5b7f416363657373436f6e74726f6c3a206163636f756e7420000000000000000000815260008351612163816017850160208801612241565b7001034b99036b4b9b9b4b733903937b6329607d1b6017918401918201528351612194816028840160208801612241565b01602801949350505050565b60208152600082518060208401526121bf816040850160208701612241565b601f01601f19169190910160400192915050565b600082198211156121e6576121e66122b9565b500190565b60008261220657634e487b7160e01b81526012600452602481fd5b500490565b6000816000190483118215151615612225576122256122b9565b500290565b60008282101561223c5761223c6122b9565b500390565b60005b8381101561225c578181015183820152602001612244565b8381111561118c5750506000910152565b60008161227c5761227c6122b9565b506000190190565b600181811c9082168061229857607f821691505b6020821081141561165f57634e487b7160e01b600052602260045260246000fd5b634e487b7160e01b600052601160045260246000fdfea26469706673582212202e9e813c1dd7301cc996b759a84371cb88141685346636f4a1d03965ced0d1ab64736f6c63430008040033",
  "linkReferences": {},
  "deployedLinkReferences": {}
}