{
  "_format": "hh-sol-artifact-1",
  "contractName": "FarmData",
  "sourceName": "contracts/farmer/FarmData.sol",
  "abi": [
    {
      "anonymous": false,
      "inputs": [
        {
          "indexed": true,
          "internalType": "string",
          "name": "_name",
          "type": "string"
        },
        {
          "indexed": true,
          "internalType": "address",
          "name": "_address",
          "type": "address"
        },
        {
          "indexed": true,
          "internalType": "string",
          "name": "strat",
          "type": "string"
        }
      ],
      "name": "AddedFarmer",
      "type": "event"
    },
    {
      "anonymous": false,
      "inputs": [
        {
          "indexed": false,
          "internalType": "bytes",
          "name": "_error",
          "type": "bytes"
        }
      ],
      "name": "LogBytes",
      "type": "event"
    },
    {
      "anonymous": false,
      "inputs": [
        {
          "indexed": false,
          "internalType": "string",
          "name": "_error",
          "type": "string"
        }
      ],
      "name": "LogError",
      "type": "event"
    },
    {
      "inputs": [
        {
          "internalType": "string",
          "name": "_name",
          "type": "string"
        },
        {
          "internalType": "address",
          "name": "_address",
          "type": "address"
        },
        {
          "internalType": "string",
          "name": "strat",
          "type": "string"
        }
      ],
      "name": "addFarmer",
      "outputs": [],
      "stateMutability": "nonpayable",
      "type": "function"
    }
  ],
  "bytecode": "0x608060405234801561001057600080fd5b506104c1806100206000396000f3fe608060405234801561001057600080fd5b506004361061002b5760003560e01c8063e8b7146a14610030575b600080fd5b61004361003e366004610360565b610045565b005b61004e826101c7565b1561009f5760405162461bcd60e51b815260206004820152601760248201527f4661726d657220616c72656164792061646465642e2e2e000000000000000000604482015260640160405180910390fd5b604080516060810182528481526001600160a01b0384166020808301919091529181018390526000805460018101825590805281518051929360039092027f290decd9548b62a8d60345a988386fc84ba6bc95484008f6362f93160ef3e563019261010d9284920190610240565b506020828101516001830180546001600160a01b0319166001600160a01b039092169190911790556040830151805161014c9260028501920190610240565b5050508060405161015d91906103e0565b6040518091039020826001600160a01b03168460405161017d91906103e0565b604051908190038120907f42da5186ad2ab8685459ffffb8343ae27b45ee6c4b9025adbb8441b3e488a02e90600090a4600180549060006101bd8361044e565b9190505550505050565b6000805b60015481101561023a57826001600160a01b03166000828154811061020057634e487b7160e01b600052603260045260246000fd5b60009182526020909120600160039092020101546001600160a01b0316141561022857600191505b806102328161044e565b9150506101cb565b50919050565b82805461024c90610419565b90600052602060002090601f01602090048101928261026e57600085556102b4565b82601f1061028757805160ff19168380011785556102b4565b828001600101855582156102b4579182015b828111156102b4578251825591602001919060010190610299565b506102c09291506102c4565b5090565b5b808211156102c057600081556001016102c5565b600082601f8301126102e9578081fd5b813567ffffffffffffffff8082111561030457610304610475565b604051601f8301601f19908116603f0116810190828211818310171561032c5761032c610475565b81604052838152866020858801011115610344578485fd5b8360208701602083013792830160200193909352509392505050565b600080600060608486031215610374578283fd5b833567ffffffffffffffff8082111561038b578485fd5b610397878388016102d9565b9450602086013591506001600160a01b03821682146103b4578384fd5b909250604085013590808211156103c9578283fd5b506103d6868287016102d9565b9150509250925092565b60008251815b8181101561040057602081860181015185830152016103e6565b8181111561040e5782828501525b509190910192915050565b600181811c9082168061042d57607f821691505b6020821081141561023a57634e487b7160e01b600052602260045260246000fd5b600060001982141561046e57634e487b7160e01b81526011600452602481fd5b5060010190565b634e487b7160e01b600052604160045260246000fdfea26469706673582212207e26eb9b85d9be43cafe2f9b11615e6b8a138c74b3b6ee613d2747445b87d87164736f6c63430008040033",
  "linkReferences": {},
  "deployedLinkReferences": {}
}