{
  "_format": "hh-sol-artifact-1",
  "contractName": "Bank",
  "sourceName": "contracts/Bank.sol",
  "abi": [
    {
      "inputs": [
        {
          "internalType": "address",
          "name": "_weth",
          "type": "address"
        }
      ],
      "stateMutability": "nonpayable",
      "type": "constructor"
    },
    {
      "anonymous": false,
      "inputs": [
        {
          "indexed": false,
          "internalType": "address",
          "name": "_user",
          "type": "address"
        },
        {
          "indexed": false,
          "internalType": "address",
          "name": "_token",
          "type": "address"
        },
        {
          "indexed": false,
          "internalType": "uint256",
          "name": "_amount",
          "type": "uint256"
        }
      ],
      "name": "Deposited",
      "type": "event"
    },
    {
      "anonymous": false,
      "inputs": [
        {
          "indexed": true,
          "internalType": "address",
          "name": "previousOwner",
          "type": "address"
        },
        {
          "indexed": true,
          "internalType": "address",
          "name": "newOwner",
          "type": "address"
        }
      ],
      "name": "OwnershipTransferred",
      "type": "event"
    },
    {
      "anonymous": false,
      "inputs": [
        {
          "indexed": true,
          "internalType": "bytes32",
          "name": "role",
          "type": "bytes32"
        },
        {
          "indexed": true,
          "internalType": "bytes32",
          "name": "previousAdminRole",
          "type": "bytes32"
        },
        {
          "indexed": true,
          "internalType": "bytes32",
          "name": "newAdminRole",
          "type": "bytes32"
        }
      ],
      "name": "RoleAdminChanged",
      "type": "event"
    },
    {
      "anonymous": false,
      "inputs": [
        {
          "indexed": true,
          "internalType": "bytes32",
          "name": "role",
          "type": "bytes32"
        },
        {
          "indexed": true,
          "internalType": "address",
          "name": "account",
          "type": "address"
        },
        {
          "indexed": true,
          "internalType": "address",
          "name": "sender",
          "type": "address"
        }
      ],
      "name": "RoleGranted",
      "type": "event"
    },
    {
      "anonymous": false,
      "inputs": [
        {
          "indexed": true,
          "internalType": "bytes32",
          "name": "role",
          "type": "bytes32"
        },
        {
          "indexed": true,
          "internalType": "address",
          "name": "account",
          "type": "address"
        },
        {
          "indexed": true,
          "internalType": "address",
          "name": "sender",
          "type": "address"
        }
      ],
      "name": "RoleRevoked",
      "type": "event"
    },
    {
      "anonymous": false,
      "inputs": [
        {
          "indexed": false,
          "internalType": "address",
          "name": "_user",
          "type": "address"
        },
        {
          "indexed": false,
          "internalType": "address",
          "name": "_token",
          "type": "address"
        },
        {
          "indexed": false,
          "internalType": "uint256",
          "name": "_amount",
          "type": "uint256"
        }
      ],
      "name": "Withdrew",
      "type": "event"
    },
    {
      "inputs": [],
      "name": "DEFAULT_ADMIN_ROLE",
      "outputs": [
        {
          "internalType": "bytes32",
          "name": "",
          "type": "bytes32"
        }
      ],
      "stateMutability": "view",
      "type": "function"
    },
    {
      "inputs": [],
      "name": "depositToken",
      "outputs": [],
      "stateMutability": "nonpayable",
      "type": "function"
    },
    {
      "inputs": [
        {
          "internalType": "bytes32",
          "name": "role",
          "type": "bytes32"
        }
      ],
      "name": "getRoleAdmin",
      "outputs": [
        {
          "internalType": "bytes32",
          "name": "",
          "type": "bytes32"
        }
      ],
      "stateMutability": "view",
      "type": "function"
    },
    {
      "inputs": [
        {
          "internalType": "bytes32",
          "name": "role",
          "type": "bytes32"
        },
        {
          "internalType": "address",
          "name": "account",
          "type": "address"
        }
      ],
      "name": "grantRole",
      "outputs": [],
      "stateMutability": "nonpayable",
      "type": "function"
    },
    {
      "inputs": [
        {
          "internalType": "bytes32",
          "name": "role",
          "type": "bytes32"
        },
        {
          "internalType": "address",
          "name": "account",
          "type": "address"
        }
      ],
      "name": "hasRole",
      "outputs": [
        {
          "internalType": "bool",
          "name": "",
          "type": "bool"
        }
      ],
      "stateMutability": "view",
      "type": "function"
    },
    {
      "inputs": [],
      "name": "owner",
      "outputs": [
        {
          "internalType": "address",
          "name": "",
          "type": "address"
        }
      ],
      "stateMutability": "view",
      "type": "function"
    },
    {
      "inputs": [],
      "name": "renounceOwnership",
      "outputs": [],
      "stateMutability": "nonpayable",
      "type": "function"
    },
    {
      "inputs": [
        {
          "internalType": "bytes32",
          "name": "role",
          "type": "bytes32"
        },
        {
          "internalType": "address",
          "name": "account",
          "type": "address"
        }
      ],
      "name": "renounceRole",
      "outputs": [],
      "stateMutability": "nonpayable",
      "type": "function"
    },
    {
      "inputs": [
        {
          "internalType": "bytes32",
          "name": "role",
          "type": "bytes32"
        },
        {
          "internalType": "address",
          "name": "account",
          "type": "address"
        }
      ],
      "name": "revokeRole",
      "outputs": [],
      "stateMutability": "nonpayable",
      "type": "function"
    },
    {
      "inputs": [],
      "name": "sendETH",
      "outputs": [],
      "stateMutability": "nonpayable",
      "type": "function"
    },
    {
      "inputs": [
        {
          "internalType": "address",
          "name": "_recipient",
          "type": "address"
        },
        {
          "internalType": "address",
          "name": "_token",
          "type": "address"
        },
        {
          "internalType": "uint256",
          "name": "_amount",
          "type": "uint256"
        }
      ],
      "name": "sendToken",
      "outputs": [],
      "stateMutability": "view",
      "type": "function"
    },
    {
      "inputs": [
        {
          "internalType": "bytes4",
          "name": "interfaceId",
          "type": "bytes4"
        }
      ],
      "name": "supportsInterface",
      "outputs": [
        {
          "internalType": "bool",
          "name": "",
          "type": "bool"
        }
      ],
      "stateMutability": "view",
      "type": "function"
    },
    {
      "inputs": [
        {
          "internalType": "address",
          "name": "newOwner",
          "type": "address"
        }
      ],
      "name": "transferOwnership",
      "outputs": [],
      "stateMutability": "nonpayable",
      "type": "function"
    },
    {
      "inputs": [],
      "name": "withdrawToken",
      "outputs": [],
      "stateMutability": "nonpayable",
      "type": "function"
    }
  ],
  "bytecode": "0x60a0604052600060805234801561001557600080fd5b50604051610b96380380610b96833981016040819052610034916100b2565b61003d33610062565b600380546001600160a01b0319166001600160a01b03929092169190911790556100e0565b600080546001600160a01b038381166001600160a01b0319831681178455604051919092169283917f8be0079c531659141344cd1fd0a4f28419497f9722a3daafe3b4186f6b6457e09190a35050565b6000602082840312156100c3578081fd5b81516001600160a01b03811681146100d9578182fd5b9392505050565b60805160601c610a9b6100fb60003960005050610a9b6000f3fe608060405234801561001057600080fd5b50600436106100ea5760003560e01c80638da5cb5b1161008c578063c89039c511610066578063c89039c514610117578063ca628c7814610117578063d547741f146101c2578063f2fde38b146101d557600080fd5b80638da5cb5b1461018c57806391d14854146101a7578063a217fddf146101ba57600080fd5b80632f2ff15d116100c85780632f2ff15d1461014b5780632fdcfbd21461015e57806336568abe14610171578063715018a61461018457600080fd5b806301ffc9a7146100ef5780631d16d9a014610117578063248a9ca314610119575b600080fd5b6101026100fd366004610901565b6101e8565b60405190151581526020015b60405180910390f35b005b61013d6101273660046108be565b6000908152600160208190526040909120015490565b60405190815260200161010e565b6101176101593660046108d6565b610221565b61011761016c366004610883565b61024d565b61011761017f3660046108d6565b6102df565b61011761035d565b6000546040516001600160a01b03909116815260200161010e565b6101026101b53660046108d6565b6103c1565b61013d600081565b6101176101d03660046108d6565b6103ec565b6101176101e3366004610869565b610413565b60006001600160e01b03198216637965db0b60e01b148061021957506301ffc9a760e01b6001600160e01b03198316145b92915050565b565b6000828152600160208190526040909120015461023e81336104de565b6102488383610542565b505050565b3360009081526002602090815260408083206001600160a01b03861684529091529020548111156102485760405162461bcd60e51b815260206004820152603160248201527f42616c616e636520746f6f206c6f7720746f2074686973207468617420616d6f6044820152703ab73a1037b3103a3434b9903a37b5b2b760791b60648201526084015b60405180910390fd5b6001600160a01b038116331461034f5760405162461bcd60e51b815260206004820152602f60248201527f416363657373436f6e74726f6c3a2063616e206f6e6c792072656e6f756e636560448201526e103937b632b9903337b91039b2b63360891b60648201526084016102d6565b61035982826105ad565b5050565b6000546001600160a01b031633146103b75760405162461bcd60e51b815260206004820181905260248201527f4f776e61626c653a2063616c6c6572206973206e6f7420746865206f776e657260448201526064016102d6565b61021f6000610614565b60009182526001602090815260408084206001600160a01b0393909316845291905290205460ff1690565b6000828152600160208190526040909120015461040981336104de565b61024883836105ad565b6000546001600160a01b0316331461046d5760405162461bcd60e51b815260206004820181905260248201527f4f776e61626c653a2063616c6c6572206973206e6f7420746865206f776e657260448201526064016102d6565b6001600160a01b0381166104d25760405162461bcd60e51b815260206004820152602660248201527f4f776e61626c653a206e6577206f776e657220697320746865207a65726f206160448201526564647265737360d01b60648201526084016102d6565b6104db81610614565b50565b6104e882826103c1565b61035957610500816001600160a01b03166014610664565b61050b836020610664565b60405160200161051c929190610929565b60408051601f198184030181529082905262461bcd60e51b82526102d69160040161099e565b61054c82826103c1565b6103595760008281526001602081815260408084206001600160a01b0386168086529252808420805460ff19169093179092559051339285917f2f8788117e7eff1d82e926ec794901d17c78024a50270940304540a733656f0d9190a45050565b6105b782826103c1565b156103595760008281526001602090815260408083206001600160a01b0385168085529252808320805460ff1916905551339285917ff6391f5c32d9c69d2a47ea670b442974b53935d1edc7fd64eb21e047a839171b9190a45050565b600080546001600160a01b038381166001600160a01b0319831681178455604051919092169283917f8be0079c531659141344cd1fd0a4f28419497f9722a3daafe3b4186f6b6457e09190a35050565b606060006106738360026109e9565b61067e9060026109d1565b67ffffffffffffffff8111156106a457634e487b7160e01b600052604160045260246000fd5b6040519080825280601f01601f1916602001820160405280156106ce576020820181803683370190505b509050600360fc1b816000815181106106f757634e487b7160e01b600052603260045260246000fd5b60200101906001600160f81b031916908160001a905350600f60fb1b8160018151811061073457634e487b7160e01b600052603260045260246000fd5b60200101906001600160f81b031916908160001a90535060006107588460026109e9565b6107639060016109d1565b90505b60018111156107f7576f181899199a1a9b1b9c1cb0b131b232b360811b85600f16601081106107a557634e487b7160e01b600052603260045260246000fd5b1a60f81b8282815181106107c957634e487b7160e01b600052603260045260246000fd5b60200101906001600160f81b031916908160001a90535060049490941c936107f081610a38565b9050610766565b5083156108465760405162461bcd60e51b815260206004820181905260248201527f537472696e67733a20686578206c656e67746820696e73756666696369656e7460448201526064016102d6565b9392505050565b80356001600160a01b038116811461086457600080fd5b919050565b60006020828403121561087a578081fd5b6108468261084d565b600080600060608486031215610897578182fd5b6108a08461084d565b92506108ae6020850161084d565b9150604084013590509250925092565b6000602082840312156108cf578081fd5b5035919050565b600080604083850312156108e8578182fd5b823591506108f86020840161084d565b90509250929050565b600060208284031215610912578081fd5b81356001600160e01b031981168114610846578182fd5b7f416363657373436f6e74726f6c3a206163636f756e7420000000000000000000815260008351610961816017850160208801610a08565b7001034b99036b4b9b9b4b733903937b6329607d1b6017918401918201528351610992816028840160208801610a08565b01602801949350505050565b60208152600082518060208401526109bd816040850160208701610a08565b601f01601f19169190910160400192915050565b600082198211156109e4576109e4610a4f565b500190565b6000816000190483118215151615610a0357610a03610a4f565b500290565b60005b83811015610a23578181015183820152602001610a0b565b83811115610a32576000848401525b50505050565b600081610a4757610a47610a4f565b506000190190565b634e487b7160e01b600052601160045260246000fdfea26469706673582212204bb27ceec594b52af86cbc4254bb17d151bbbcf33ef70ce417782b5b83b2001a64736f6c63430008040033",
  "linkReferences": {},
  "deployedLinkReferences": {}
}