{
  "_format": "hh-sol-artifact-1",
  "contractName": "FarmHelper",
  "sourceName": "contracts/FarmHelper.sol",
  "abi": [
    {
      "inputs": [
        {
          "internalType": "contract UniswapProtocolHelper",
          "name": "_uniHelper",
          "type": "address"
        },
        {
          "internalType": "contract DataStore",
          "name": "_dataStore",
          "type": "address"
        },
        {
          "internalType": "address",
          "name": "_weth",
          "type": "address"
        }
      ],
      "stateMutability": "nonpayable",
      "type": "constructor"
    },
    {
      "anonymous": false,
      "inputs": [
        {
          "indexed": true,
          "internalType": "string",
          "name": "_name",
          "type": "string"
        },
        {
          "indexed": true,
          "internalType": "address",
          "name": "_address",
          "type": "address"
        },
        {
          "indexed": true,
          "internalType": "string",
          "name": "strat",
          "type": "string"
        }
      ],
      "name": "AddedFarmer",
      "type": "event"
    },
    {
      "anonymous": false,
      "inputs": [
        {
          "indexed": false,
          "internalType": "bytes",
          "name": "_error",
          "type": "bytes"
        }
      ],
      "name": "LogBytes",
      "type": "event"
    },
    {
      "anonymous": false,
      "inputs": [
        {
          "indexed": false,
          "internalType": "string",
          "name": "_error",
          "type": "string"
        }
      ],
      "name": "LogError",
      "type": "event"
    },
    {
      "inputs": [
        {
          "internalType": "string",
          "name": "_name",
          "type": "string"
        },
        {
          "internalType": "address",
          "name": "_address",
          "type": "address"
        },
        {
          "internalType": "string",
          "name": "strat",
          "type": "string"
        }
      ],
      "name": "addFarmer",
      "outputs": [],
      "stateMutability": "nonpayable",
      "type": "function"
    },
    {
      "inputs": [
        {
          "internalType": "address",
          "name": "_router",
          "type": "address"
        },
        {
          "internalType": "address",
          "name": "_token0",
          "type": "address"
        },
        {
          "internalType": "address",
          "name": "_token1",
          "type": "address"
        },
        {
          "internalType": "uint256",
          "name": "_amountEth",
          "type": "uint256"
        },
        {
          "internalType": "address payable",
          "name": "_to",
          "type": "address"
        }
      ],
      "name": "addLiquidityFromEth",
      "outputs": [
        {
          "internalType": "address",
          "name": "pairAddress",
          "type": "address"
        }
      ],
      "stateMutability": "payable",
      "type": "function"
    },
    {
      "inputs": [
        {
          "internalType": "address",
          "name": "_router",
          "type": "address"
        },
        {
          "internalType": "address",
          "name": "_baseToken",
          "type": "address"
        },
        {
          "internalType": "address",
          "name": "_token0",
          "type": "address"
        },
        {
          "internalType": "address",
          "name": "_token1",
          "type": "address"
        },
        {
          "internalType": "uint256",
          "name": "_amountBaseToken",
          "type": "uint256"
        },
        {
          "internalType": "address payable",
          "name": "_to",
          "type": "address"
        }
      ],
      "name": "addLiquidityFromToken",
      "outputs": [
        {
          "internalType": "bool",
          "name": "success",
          "type": "bool"
        },
        {
          "internalType": "address",
          "name": "pairAddress",
          "type": "address"
        }
      ],
      "stateMutability": "payable",
      "type": "function"
    },
    {
      "inputs": [
        {
          "internalType": "address",
          "name": "_farmer",
          "type": "address"
        },
        {
          "internalType": "uint256",
          "name": "_farmId",
          "type": "uint256"
        },
        {
          "internalType": "uint256",
          "name": "amount",
          "type": "uint256"
        },
        {
          "internalType": "uint256",
          "name": "farmStrat",
          "type": "uint256"
        }
      ],
      "name": "farmLpToken",
      "outputs": [
        {
          "internalType": "bool",
          "name": "success",
          "type": "bool"
        }
      ],
      "stateMutability": "nonpayable",
      "type": "function"
    },
    {
      "inputs": [
        {
          "internalType": "address[]",
          "name": "_farmers",
          "type": "address[]"
        },
        {
          "internalType": "address",
          "name": "user",
          "type": "address"
        }
      ],
      "name": "getMultiUserFarms",
      "outputs": [
        {
          "components": [
            {
              "internalType": "address",
              "name": "farmer",
              "type": "address"
            },
            {
              "internalType": "uint256",
              "name": "farmId",
              "type": "uint256"
            },
            {
              "internalType": "uint256",
              "name": "pending",
              "type": "uint256"
            }
          ],
          "internalType": "struct FarmData.UserFarm[]",
          "name": "farms",
          "type": "tuple[]"
        }
      ],
      "stateMutability": "view",
      "type": "function"
    },
    {
      "inputs": [
        {
          "internalType": "address",
          "name": "_farmer",
          "type": "address"
        },
        {
          "internalType": "address",
          "name": "user",
          "type": "address"
        },
        {
          "internalType": "uint256",
          "name": "_farmId",
          "type": "uint256"
        },
        {
          "internalType": "uint256",
          "name": "_farmStrat",
          "type": "uint256"
        }
      ],
      "name": "getPendingReward",
      "outputs": [
        {
          "internalType": "uint256",
          "name": "pendingReward",
          "type": "uint256"
        }
      ],
      "stateMutability": "view",
      "type": "function"
    },
    {
      "inputs": [
        {
          "internalType": "address",
          "name": "_farmer",
          "type": "address"
        }
      ],
      "name": "getPoolLength",
      "outputs": [
        {
          "internalType": "uint256",
          "name": "len",
          "type": "uint256"
        }
      ],
      "stateMutability": "view",
      "type": "function"
    },
    {
      "inputs": [
        {
          "internalType": "address",
          "name": "_farmer",
          "type": "address"
        },
        {
          "internalType": "address",
          "name": "user",
          "type": "address"
        }
      ],
      "name": "getUserFarmCount",
      "outputs": [
        {
          "internalType": "uint256",
          "name": "count",
          "type": "uint256"
        }
      ],
      "stateMutability": "view",
      "type": "function"
    },
    {
      "inputs": [
        {
          "internalType": "address",
          "name": "_farmer",
          "type": "address"
        },
        {
          "internalType": "address",
          "name": "user",
          "type": "address"
        }
      ],
      "name": "getUserFarms",
      "outputs": [
        {
          "components": [
            {
              "internalType": "address",
              "name": "farmer",
              "type": "address"
            },
            {
              "internalType": "uint256",
              "name": "farmId",
              "type": "uint256"
            },
            {
              "internalType": "uint256",
              "name": "pending",
              "type": "uint256"
            }
          ],
          "internalType": "struct FarmData.UserFarm[]",
          "name": "farms",
          "type": "tuple[]"
        }
      ],
      "stateMutability": "view",
      "type": "function"
    },
    {
      "inputs": [
        {
          "internalType": "address",
          "name": "_baseToken",
          "type": "address"
        },
        {
          "internalType": "address",
          "name": "_farmer",
          "type": "address"
        },
        {
          "internalType": "uint256",
          "name": "_farmId",
          "type": "uint256"
        },
        {
          "internalType": "uint256",
          "name": "_baseTokenAmount",
          "type": "uint256"
        }
      ],
      "name": "tokenToFarm",
      "outputs": [
        {
          "internalType": "bool",
          "name": "success",
          "type": "bool"
        }
      ],
      "stateMutability": "nonpayable",
      "type": "function"
    }
  ],
  "bytecode": "0x60806040523480156200001157600080fd5b5060405162003a5938038062003a59833981016040819052620000349162000075565b600380546001600160a01b03199081166001600160a01b039384161790915560048054821694831694909417909355600580549093169116179055620000e1565b6000806000606084860312156200008a578283fd5b83516200009781620000c8565b6020850151909350620000aa81620000c8565b6040850151909250620000bd81620000c8565b809150509250925092565b6001600160a01b0381168114620000de57600080fd5b50565b61396880620000f16000396000f3fe6080604052600436106100915760003560e01c8063bab846ad11610059578063bab846ad14610178578063d58f9cab14610198578063dc60176d146101bd578063e8b7146a146101e8578063f8fcc2aa1461020a57600080fd5b8063107c6ce8146100965780633537b7c6146100cd578063704fddb3146100fa57806393cb726f1461012a578063a126ca3614610158575b600080fd5b6100a96100a4366004612ff8565b61022a565b6040805192151583526001600160a01b039091166020830152015b60405180910390f35b3480156100d957600080fd5b506100ed6100e8366004612fc0565b6112fb565b6040516100c491906135c6565b34801561010657600080fd5b5061011a6101153660046130d7565b611601565b60405190151581526020016100c4565b34801561013657600080fd5b5061014a6101453660046130d7565b61161a565b6040519081526020016100c4565b34801561016457600080fd5b5061014a610173366004612fc0565b6116f9565b34801561018457600080fd5b506100ed610193366004613156565b611838565b3480156101a457600080fd5b5061011a6101b336600461311c565b6000949350505050565b6101d06101cb366004613070565b611b38565b6040516001600160a01b0390911681526020016100c4565b3480156101f457600080fd5b506102086102033660046133a2565b612a84565b005b34801561021657600080fd5b5061014a610225366004612f88565b612c06565b60008034156102a157600360009054906101000a90046001600160a01b03166001600160a01b031663d0e30db0346040518263ffffffff1660e01b81526004016000604051808303818588803b15801561028357600080fd5b505af1158015610297573d6000803e3d6000fd5b5050505050610329565b6040516323b872dd60e01b8152336004820152306024820152604481018590526001600160a01b038816906323b872dd90606401602060405180830381600087803b1580156102ef57600080fd5b505af1158015610303573d6000803e3d6000fd5b505050506040513d601f19601f820116820180604052508101906103279190613382565b505b6000610341600161033b876002612c7f565b90612c92565b9050600460009054906101000a90046001600160a01b03166001600160a01b031663524d01f88a6001600160a01b031663c45a01556040518163ffffffff1660e01b815260040160206040518083038186803b1580156103a057600080fd5b505afa1580156103b4573d6000803e3d6000fd5b505050506040513d601f19601f820116820180604052508101906103d89190612fa4565b6040516001600160e01b031960e084901b1681526001600160a01b039182166004820152818b166024820152908916604482015260640160206040518083038186803b15801561042757600080fd5b505afa15801561043b573d6000803e3d6000fd5b505050506040513d601f19601f8201168201806040525081019061045f9190612fa4565b604051636eb1769f60e11b81523060048201526001600160a01b038b8116602483015291935086918a169063dd62ed3e9060440160206040518083038186803b1580156104ab57600080fd5b505afa1580156104bf573d6000803e3d6000fd5b505050506040513d601f19601f820116820180604052508101906104e39190613465565b10156105795760405163095ea7b360e01b81526001600160a01b0389169063095ea7b390610525908c906dffffffffffffffffffffffffffff90600401613564565b602060405180830381600087803b15801561053f57600080fd5b505af1158015610553573d6000803e3d6000fd5b505050506040513d601f19601f820116820180604052508101906105779190613382565b505b604080516002808252606082018352600092602083019080368337019050509050886001600160a01b0316886001600160a01b0316146108b85788816000815181106105d557634e487b7160e01b600052603260045260246000fd5b60200260200101906001600160a01b031690816001600160a01b031681525050878160018151811061061757634e487b7160e01b600052603260045260246000fd5b6001600160a01b03928316602091820292909201015260048054604051630c90945960e11b8152600093919091169163192128b29161065c918f918891889101613673565b60006040518083038186803b15801561067457600080fd5b505afa158015610688573d6000803e3d6000fd5b505050506040513d6000823e601f3d908101601f191682016040526106b091908101906132e5565b9050600061072a6106f36064846001815181106106dd57634e487b7160e01b600052603260045260246000fd5b6020026020010151612c7f90919063ffffffff16565b8360018151811061071457634e487b7160e01b600052603260045260246000fd5b6020026020010151612c9290919063ffffffff16565b90506001600160a01b038c166338ed17398583863061074a42607861372d565b6040518663ffffffff1660e01b815260040161076a9594939291906136cd565b600060405180830381600087803b15801561078457600080fd5b505af19250505080156107b957506040513d6000823e601f3d908101601f191682016040526107b691908101906132e5565b60015b6108b4576107c561387b565b806308c379a0141561085357506107da613893565b806107e55750610855565b7fc35a0ec6603ff0b5966d7ca053a5f0984a70aad58a9a0ecb1349308815a4151a6108306040518060400160405280600881526020016702fba37b5b2b718160c51b81525083612c9e565b60405161083d9190613628565b60405180910390a16000965050505050506112f0565b505b3d80801561087f576040519150601f19603f3d011682016040523d82523d6000602084013e610884565b606091505b507f532fd6ea96cfb78bb46e09279a26828b8b493de1a2b8b1ee1face527978a15a58160405161083d9190613628565b5050505b886001600160a01b0316876001600160a01b031614610b055788816000815181106108f357634e487b7160e01b600052603260045260246000fd5b60200260200101906001600160a01b031690816001600160a01b031681525050868160018151811061093557634e487b7160e01b600052603260045260246000fd5b6001600160a01b03928316602091820292909201015260048054604051630c90945960e11b8152600093919091169163192128b29161097a918f918891889101613673565b60006040518083038186803b15801561099257600080fd5b505afa1580156109a6573d6000803e3d6000fd5b505050506040513d6000823e601f3d908101601f191682016040526109ce91908101906132e5565b905060006109fb6106f36064846001815181106106dd57634e487b7160e01b600052603260045260246000fd5b90506001600160a01b038c166338ed173985838630610a1b42607861372d565b6040518663ffffffff1660e01b8152600401610a3b9594939291906136cd565b600060405180830381600087803b158015610a5557600080fd5b505af1925050508015610a8a57506040513d6000823e601f3d908101601f19168201604052610a8791908101906132e5565b60015b610b0157610a9661387b565b806308c379a014156108535750610aab613893565b80610ab65750610855565b7fc35a0ec6603ff0b5966d7ca053a5f0984a70aad58a9a0ecb1349308815a4151a6108306040518060400160405280600881526020016702fba37b5b2b718960c51b81525083612c9e565b5050505b876001600160a01b031663095ea7b38b610b1f308c612cca565b6040518363ffffffff1660e01b8152600401610b3c929190613564565b602060405180830381600087803b158015610b5657600080fd5b505af1158015610b6a573d6000803e3d6000fd5b505050506040513d601f19601f82011682018060405250810190610b8e9190613382565b50866001600160a01b031663095ea7b38b610ba9308b612cca565b6040518363ffffffff1660e01b8152600401610bc6929190613564565b602060405180830381600087803b158015610be057600080fd5b505af1158015610bf4573d6000803e3d6000fd5b505050506040513d601f19601f82011682018060405250810190610c189190613382565b508781600081518110610c3b57634e487b7160e01b600052603260045260246000fd5b60200260200101906001600160a01b031690816001600160a01b0316815250508681600181518110610c7d57634e487b7160e01b600052603260045260246000fd5b6001600160a01b0392831660209182029290920101526040516370a0823160e01b81523060048201526000918916906370a082319060240160206040518083038186803b158015610ccd57600080fd5b505afa158015610ce1573d6000803e3d6000fd5b505050506040513d601f19601f82011682018060405250810190610d059190613465565b6040516370a0823160e01b81523060048201529091506000906001600160a01b038b16906370a082319060240160206040518083038186803b158015610d4a57600080fd5b505afa158015610d5e573d6000803e3d6000fd5b505050506040513d601f19601f82011682018060405250810190610d829190613465565b90506001600160a01b038c1663e8e337008b8b84866000808e610da642607861372d565b6040518963ffffffff1660e01b8152600401610dc998979695949392919061357d565b606060405180830381600087803b158015610de357600080fd5b505af1925050508015610e13575060408051601f3d908101601f19168201909252610e109181019061347d565b60015b610e8e57610e1f61387b565b806308c379a014156108535750610e34613893565b80610e3f5750610855565b7fc35a0ec6603ff0b5966d7ca053a5f0984a70aad58a9a0ecb1349308815a4151a6108306040518060400160405280600c81526020016b6164644c697175696469747960a01b81525083612c9e565b50506040516370a0823160e01b815230600482015260019750600091506001600160a01b038c16906370a082319060240160206040518083038186803b158015610ed757600080fd5b505afa158015610eeb573d6000803e3d6000fd5b505050506040513d601f19601f82011682018060405250810190610f0f9190613465565b1115611007576040516370a0823160e01b81523060048201526001600160a01b038b169063a9059cbb90899083906370a082319060240160206040518083038186803b158015610f5e57600080fd5b505afa158015610f72573d6000803e3d6000fd5b505050506040513d601f19601f82011682018060405250810190610f969190613465565b6040518363ffffffff1660e01b8152600401610fb3929190613564565b602060405180830381600087803b158015610fcd57600080fd5b505af1158015610fe1573d6000803e3d6000fd5b505050506040513d601f19601f820116820180604052508101906110059190613382565b505b6040516370a0823160e01b81523060048201526000906001600160a01b038b16906370a082319060240160206040518083038186803b15801561104957600080fd5b505afa15801561105d573d6000803e3d6000fd5b505050506040513d601f19601f820116820180604052508101906110819190613465565b1115611179576040516370a0823160e01b81523060048201526001600160a01b038a169063a9059cbb90899083906370a082319060240160206040518083038186803b1580156110d057600080fd5b505afa1580156110e4573d6000803e3d6000fd5b505050506040513d601f19601f820116820180604052508101906111089190613465565b6040518363ffffffff1660e01b8152600401611125929190613564565b602060405180830381600087803b15801561113f57600080fd5b505af1158015611153573d6000803e3d6000fd5b505050506040513d601f19601f820116820180604052508101906111779190613382565b505b6040516370a0823160e01b81523060048201526000906001600160a01b038716906370a082319060240160206040518083038186803b1580156111bb57600080fd5b505afa1580156111cf573d6000803e3d6000fd5b505050506040513d601f19601f820116820180604052508101906111f39190613465565b11156112eb576040516370a0823160e01b81523060048201526001600160a01b0386169063a9059cbb90899083906370a082319060240160206040518083038186803b15801561124257600080fd5b505afa158015611256573d6000803e3d6000fd5b505050506040513d601f19601f8201168201806040525081019061127a9190613465565b6040518363ffffffff1660e01b8152600401611297929190613564565b602060405180830381600087803b1580156112b157600080fd5b505af11580156112c5573d6000803e3d6000fd5b505050506040513d601f19601f820116820180604052508101906112e99190613382565b505b505050505b965096945050505050565b604051635093651b60e11b81526001600160a01b03808416600483015282166024820152606090600090309063a126ca369060440160206040518083038186803b15801561134857600080fd5b505afa15801561135c573d6000803e3d6000fd5b505050506040513d601f19601f820116820180604052508101906113809190613465565b604051637c7e615560e11b81526001600160a01b03861660048201529091506000908190309063f8fcc2aa9060240160206040518083038186803b1580156113c757600080fd5b505afa1580156113db573d6000803e3d6000fd5b505050506040513d601f19601f820116820180604052508101906113ff9190613465565b90508267ffffffffffffffff81111561142857634e487b7160e01b600052604160045260246000fd5b60405190808252806020026020018201604052801561148657816020015b611473604051806060016040528060006001600160a01b0316815260200160008152602001600081525090565b8152602001906001900390816114465790505b509350600091505b808210156115f8576040516393f1a40b60e01b8152600481018390526001600160a01b038681166024830152600091908816906393f1a40b90604401604080518083038186803b1580156114e157600080fd5b505afa1580156114f5573d6000803e3d6000fd5b505050506040513d601f19601f820116820180604052508101906115199190613417565b80519091501580159061153457506001600160a01b03871615155b156115e5578685848151811061155a57634e487b7160e01b600052603260045260246000fd5b6020026020010151600001906001600160a01b031690816001600160a01b0316815250508285848151811061159f57634e487b7160e01b600052603260045260246000fd5b6020026020010151602001818152505080602001518584815181106115d457634e487b7160e01b600052603260045260246000fd5b602002602001015160400181815250505b50816115f081613834565b92505061148e565b50505092915050565b60008061160f836002612c7f565b905050949350505050565b6000816116b057604051624a8e5b60e21b81526001600160a01b03868116600483018190529086166024830152604482018590529063012a396c906064015b60206040518083038186803b15801561167157600080fd5b505afa158015611685573d6000803e3d6000fd5b505050506040513d601f19601f820116820180604052508101906116a99190613465565b90506116f1565b816116f157604051624a8e5b60e21b81526001600160a01b03868116600483018190529086166024830152604482018590529063012a396c90606401611659565b949350505050565b604051637c7e615560e11b81526001600160a01b03831660048201526000908190309063f8fcc2aa9060240160206040518083038186803b15801561173d57600080fd5b505afa158015611751573d6000803e3d6000fd5b505050506040513d601f19601f820116820180604052508101906117759190613465565b905060005b81811015611830576040516393f1a40b60e01b8152600481018290526001600160a01b038581166024830152600091908716906393f1a40b90604401604080518083038186803b1580156117cd57600080fd5b505afa1580156117e1573d6000803e3d6000fd5b505050506040513d601f19601f820116820180604052508101906118059190613417565b80519091501561181d578361181981613834565b9450505b508061182881613834565b91505061177a565b505092915050565b60606000805b8451811015611952576000306001600160a01b0316633537b7c687848151811061187857634e487b7160e01b600052603260045260246000fd5b6020026020010151876040518363ffffffff1660e01b81526004016118b39291906001600160a01b0392831681529116602082015260400190565b60006040518083038186803b1580156118cb57600080fd5b505afa1580156118df573d6000803e3d6000fd5b505050506040513d6000823e601f3d908101601f19168201604052611907919081019061320e565b80519091501561193f5760005b815181101561193d578361192781613834565b945050808061193590613834565b915050611914565b505b508061194a81613834565b91505061183e565b508067ffffffffffffffff81111561197a57634e487b7160e01b600052604160045260246000fd5b6040519080825280602002602001820160405280156119d857816020015b6119c5604051806060016040528060006001600160a01b0316815260200160008152602001600081525090565b8152602001906001900390816119985790505b50915060005b8451811015611830576000306001600160a01b0316633537b7c6878481518110611a1857634e487b7160e01b600052603260045260246000fd5b6020026020010151876040518363ffffffff1660e01b8152600401611a539291906001600160a01b0392831681529116602082015260400190565b60006040518083038186803b158015611a6b57600080fd5b505afa158015611a7f573d6000803e3d6000fd5b505050506040513d6000823e601f3d908101601f19168201604052611aa7919081019061320e565b805190915015611b255760005b8151811015611b2357818181518110611add57634e487b7160e01b600052603260045260246000fd5b6020026020010151858481518110611b0557634e487b7160e01b600052603260045260246000fd5b60200260200101819052508080611b1b90613834565b915050611ab4565b505b5080611b3081613834565b9150506119de565b6000600360009054906101000a90046001600160a01b03166001600160a01b031663d0e30db0346040518263ffffffff1660e01b81526004016000604051808303818588803b158015611b8a57600080fd5b505af1158015611b9e573d6000803e3d6000fd5b50505050506000611bb9600285612c7f90919063ffffffff16565b6040805160028082526060820183529293506000929091602083019080368337505060408051600280825260608201835293945060009390925090602083019080368337505060035484519293506001600160a01b031691849150600090611c3157634e487b7160e01b600052603260045260246000fd5b60200260200101906001600160a01b031690816001600160a01b0316815250508782600181518110611c7357634e487b7160e01b600052603260045260246000fd5b6001600160a01b03928316602091820292909201015260035482519116908290600090611cb057634e487b7160e01b600052603260045260246000fd5b60200260200101906001600160a01b031690816001600160a01b0316815250508681600181518110611cf257634e487b7160e01b600052603260045260246000fd5b60200260200101906001600160a01b031690816001600160a01b031681525050600460009054906101000a90046001600160a01b03166001600160a01b031663524d01f88a6001600160a01b031663c45a01556040518163ffffffff1660e01b815260040160206040518083038186803b158015611d6f57600080fd5b505afa158015611d83573d6000803e3d6000fd5b505050506040513d601f19601f82011682018060405250810190611da79190612fa4565b6040516001600160e01b031960e084901b1681526001600160a01b039182166004820152818c166024820152908a16604482015260640160206040518083038186803b158015611df657600080fd5b505afa158015611e0a573d6000803e3d6000fd5b505050506040513d601f19601f82011682018060405250810190611e2e9190612fa4565b6003546004805460405163095ea7b360e01b81529397506001600160a01b039283169363095ea7b393611e66939216918b9101613564565b602060405180830381600087803b158015611e8057600080fd5b505af1158015611e94573d6000803e3d6000fd5b505050506040513d601f19601f82011682018060405250810190611eb89190613382565b506003546001600160a01b0389811691161461210257611efd6040518060400160405280600e81526020016d067657474696e6720746f6b656e360941b815250612d47565b611f25604051806040016040528060068152602001650746f6b656e360d41b81525089612d8d565b60048054604051635dbdce3b60e11b81526000926001600160a01b039092169163bb7b9c7691611f5b918e918991899101613673565b60006040518083038186803b158015611f7357600080fd5b505afa158015611f87573d6000803e3d6000fd5b505050506040513d6000823e601f3d908101601f19168201604052611faf91908101906132e5565b9050600081600181518110611fd457634e487b7160e01b600052603260045260246000fd5b602002602001015190506000600460009054906101000a90046001600160a01b03166001600160a01b0316637c6c84af8d8760008151811061202657634e487b7160e01b600052603260045260246000fd5b60200260200101518860018151811061204f57634e487b7160e01b600052603260045260246000fd5b60200260200101518a87306040518763ffffffff1660e01b815260040161207b9695949392919061363b565b600060405180830381600087803b15801561209557600080fd5b505af11580156120a9573d6000803e3d6000fd5b505050506040513d6000823e601f3d908101601f191682016040526120d191908101906132e5565b90506120fe6040518060400160405280600a8152602001690676f7420746f6b656e360b41b815250612d47565b5050505b6003546001600160a01b0388811691161461234b576121466040518060400160405280600e81526020016d67657474696e6720746f6b656e3160901b815250612d47565b61216e60405180604001604052806006815260200165746f6b656e3160d01b81525088612d8d565b60048054604051635dbdce3b60e11b81526000926001600160a01b039092169163bb7b9c76916121a4918e918991889101613673565b60006040518083038186803b1580156121bc57600080fd5b505afa1580156121d0573d6000803e3d6000fd5b505050506040513d6000823e601f3d908101601f191682016040526121f891908101906132e5565b905060006122256106f36064846001815181106106dd57634e487b7160e01b600052603260045260246000fd5b90506000600460009054906101000a90046001600160a01b03166001600160a01b0316637c6c84af8d8660008151811061226f57634e487b7160e01b600052603260045260246000fd5b60200260200101518760018151811061229857634e487b7160e01b600052603260045260246000fd5b60200260200101518a87306040518763ffffffff1660e01b81526004016122c49695949392919061363b565b600060405180830381600087803b1580156122de57600080fd5b505af11580156122f2573d6000803e3d6000fd5b505050506040513d6000823e601f3d908101601f1916820160405261231a91908101906132e5565b90506123476040518060400160405280600a815260200169676f7420746f6b656e3160b01b815250612d47565b5050505b876001600160a01b031663095ea7b38a612365308c612cca565b6040518363ffffffff1660e01b8152600401612382929190613564565b602060405180830381600087803b15801561239c57600080fd5b505af11580156123b0573d6000803e3d6000fd5b505050506040513d601f19601f820116820180604052508101906123d49190613382565b50866001600160a01b031663095ea7b38a6123ef308b612cca565b6040518363ffffffff1660e01b815260040161240c929190613564565b602060405180830381600087803b15801561242657600080fd5b505af115801561243a573d6000803e3d6000fd5b505050506040513d601f19601f8201168201806040525081019061245e9190613382565b506040516370a0823160e01b81523060048201526001600160a01b03808b169163e8e33700918b918b918316906370a082319060240160206040518083038186803b1580156124ac57600080fd5b505afa1580156124c0573d6000803e3d6000fd5b505050506040513d601f19601f820116820180604052508101906124e49190613465565b6040516370a0823160e01b81523060048201526001600160a01b038d16906370a082319060240160206040518083038186803b15801561252357600080fd5b505afa158015612537573d6000803e3d6000fd5b505050506040513d601f19601f8201168201806040525081019061255b9190613465565b6000803061256b4261012c61372d565b6040518963ffffffff1660e01b815260040161258e98979695949392919061357d565b606060405180830381600087803b1580156125a857600080fd5b505af11580156125bc573d6000803e3d6000fd5b505050506040513d601f19601f820116820180604052508101906125e0919061347d565b50506040516370a0823160e01b8152306004820152600091506001600160a01b038a16906370a082319060240160206040518083038186803b15801561262557600080fd5b505afa158015612639573d6000803e3d6000fd5b505050506040513d601f19601f8201168201806040525081019061265d9190613465565b11801561267357506001600160a01b0385163314155b1561276a576040516370a0823160e01b81523060048201526001600160a01b0389169063a9059cbb90879083906370a082319060240160206040518083038186803b1580156126c157600080fd5b505afa1580156126d5573d6000803e3d6000fd5b505050506040513d601f19601f820116820180604052508101906126f99190613465565b6040518363ffffffff1660e01b8152600401612716929190613564565b602060405180830381600087803b15801561273057600080fd5b505af1158015612744573d6000803e3d6000fd5b505050506040513d601f19601f820116820180604052508101906127689190613382565b505b6040516370a0823160e01b81523060048201526000906001600160a01b038916906370a082319060240160206040518083038186803b1580156127ac57600080fd5b505afa1580156127c0573d6000803e3d6000fd5b505050506040513d601f19601f820116820180604052508101906127e49190613465565b1180156127fa57506001600160a01b0385163314155b156128f1576040516370a0823160e01b81523060048201526001600160a01b0388169063a9059cbb90879083906370a082319060240160206040518083038186803b15801561284857600080fd5b505afa15801561285c573d6000803e3d6000fd5b505050506040513d601f19601f820116820180604052508101906128809190613465565b6040518363ffffffff1660e01b815260040161289d929190613564565b602060405180830381600087803b1580156128b757600080fd5b505af11580156128cb573d6000803e3d6000fd5b505050506040513d601f19601f820116820180604052508101906128ef9190613382565b505b6040516370a0823160e01b81523060048201526000906001600160a01b038616906370a082319060240160206040518083038186803b15801561293357600080fd5b505afa158015612947573d6000803e3d6000fd5b505050506040513d601f19601f8201168201806040525081019061296b9190613465565b11801561298157506001600160a01b0385163314155b15612a78576040516370a0823160e01b81523060048201526001600160a01b0385169063a9059cbb90879083906370a082319060240160206040518083038186803b1580156129cf57600080fd5b505afa1580156129e3573d6000803e3d6000fd5b505050506040513d601f19601f82011682018060405250810190612a079190613465565b6040518363ffffffff1660e01b8152600401612a24929190613564565b602060405180830381600087803b158015612a3e57600080fd5b505af1158015612a52573d6000803e3d6000fd5b505050506040513d601f19601f82011682018060405250810190612a769190613382565b505b50505095945050505050565b612a8d82612dd6565b15612ade5760405162461bcd60e51b815260206004820152601760248201527f4661726d657220616c72656164792061646465642e2e2e000000000000000000604482015260640160405180910390fd5b604080516060810182528481526001600160a01b0384166020808301919091529181018390526000805460018101825590805281518051929360039092027f290decd9548b62a8d60345a988386fc84ba6bc95484008f6362f93160ef3e5630192612b4c9284920190612e70565b506020828101516001830180546001600160a01b0319166001600160a01b0390921691909117905560408301518051612b8b9260028501920190612e70565b50505080604051612b9c9190613519565b6040518091039020826001600160a01b031684604051612bbc9190613519565b604051908190038120907f42da5186ad2ab8685459ffffb8343ae27b45ee6c4b9025adbb8441b3e488a02e90600090a460018054906000612bfc83613834565b9190505550505050565b6000816001600160a01b031663081e3eda6040518163ffffffff1660e01b815260040160206040518083038186803b158015612c4157600080fd5b505afa158015612c55573d6000803e3d6000fd5b505050506040513d601f19601f82011682018060405250810190612c799190613465565b92915050565b6000612c8b8284613745565b9392505050565b6000612c8b8284613765565b60608282604051602001612cb3929190613535565b604051602081830303815290604052905092915050565b6040516370a0823160e01b81526001600160a01b038381166004830152600091908316906370a082319060240160206040518083038186803b158015612d0f57600080fd5b505afa158015612d23573d6000803e3d6000fd5b505050506040513d601f19601f82011682018060405250810190612c8b9190613465565b612d8a81604051602401612d5b9190613628565b60408051601f198184030181529190526020810180516001600160e01b031663104c13eb60e21b179052612e4f565b50565b612dd28282604051602401612da39291906136a3565b60408051601f198184030181529190526020810180516001600160e01b031663319af33360e01b179052612e4f565b5050565b6000805b600154811015612e4957826001600160a01b031660008281548110612e0f57634e487b7160e01b600052603260045260246000fd5b60009182526020909120600160039092020101546001600160a01b03161415612e3757600191505b80612e4181613834565b915050612dda565b50919050565b80516a636f6e736f6c652e6c6f67602083016000808483855afa5050505050565b828054612e7c906137ac565b90600052602060002090601f016020900481019282612e9e5760008555612ee4565b82601f10612eb757805160ff1916838001178555612ee4565b82800160010185558215612ee4579182015b82811115612ee4578251825591602001919060010190612ec9565b50612ef0929150612ef4565b5090565b5b80821115612ef05760008155600101612ef5565b8035612f148161391d565b919050565b600082601f830112612f29578081fd5b813567ffffffffffffffff811115612f4357612f43613865565b604051612f5a601f8301601f191660200182613807565b818152846020838601011115612f6e578283fd5b816020850160208301379081016020019190915292915050565b600060208284031215612f99578081fd5b8135612c8b8161391d565b600060208284031215612fb5578081fd5b8151612c8b8161391d565b60008060408385031215612fd2578081fd5b8235612fdd8161391d565b91506020830135612fed8161391d565b809150509250929050565b60008060008060008060c08789031215613010578182fd5b863561301b8161391d565b9550602087013561302b8161391d565b9450604087013561303b8161391d565b9350606087013561304b8161391d565b92506080870135915060a08701356130628161391d565b809150509295509295509295565b600080600080600060a08688031215613087578081fd5b85356130928161391d565b945060208601356130a28161391d565b935060408601356130b28161391d565b92506060860135915060808601356130c98161391d565b809150509295509295909350565b600080600080608085870312156130ec578182fd5b84356130f78161391d565b935060208501356131078161391d565b93969395505050506040820135916060013590565b60008060008060808587031215613131578182fd5b843561313c8161391d565b966020860135965060408601359560600135945092505050565b60008060408385031215613168578182fd5b823567ffffffffffffffff81111561317e578283fd5b8301601f8101851361318e578283fd5b8035602061319b82613709565b6040516131a88282613807565b8381528281019150848301600585901b860184018a10156131c7578788fd5b8795505b848610156131f25780356131de8161391d565b8352600195909501949183019183016131cb565b5095506132029050868201612f09565b93505050509250929050565b60006020808385031215613220578182fd5b825167ffffffffffffffff811115613236578283fd5b8301601f81018513613246578283fd5b805161325181613709565b6040805161325f8382613807565b83815285810192508486016060808602870188018b101561327e578889fd5b8896505b858710156132d65780828c031215613298578889fd5b83516132a3816137e1565b82516132ae8161391d565b8152828901518982015284830151858201528552600196909601959387019390810190613282565b50909998505050505050505050565b600060208083850312156132f7578182fd5b825167ffffffffffffffff81111561330d578283fd5b8301601f8101851361331d578283fd5b805161332881613709565b6040516133358282613807565b8281528481019150838501600584901b85018601891015613354578687fd5b8694505b83851015613376578051835260019490940193918501918501613358565b50979650505050505050565b600060208284031215613393578081fd5b81518015158114612c8b578182fd5b6000806000606084860312156133b6578081fd5b833567ffffffffffffffff808211156133cd578283fd5b6133d987838801612f19565b9450602086013591506133eb8261391d565b90925060408501359080821115613400578283fd5b5061340d86828701612f19565b9150509250925092565b600060408284031215613428578081fd5b6040516040810181811067ffffffffffffffff8211171561344b5761344b613865565b604052825181526020928301519281019290925250919050565b600060208284031215613476578081fd5b5051919050565b600080600060608486031215613491578081fd5b8351925060208401519150604084015190509250925092565b6000815180845260208085019450808401835b838110156134e25781516001600160a01b0316875295820195908201906001016134bd565b509495945050505050565b6000815180845261350581602086016020860161377c565b601f01601f19169290920160200192915050565b6000825161352b81846020870161377c565b9190910192915050565b6000835161354781846020880161377c565b83519083019061355b81836020880161377c565b01949350505050565b6001600160a01b03929092168252602082015260400190565b6001600160a01b039889168152968816602088015260408701959095526060860193909352608085019190915260a084015290921660c082015260e08101919091526101000190565b602080825282518282018190526000919060409081850190868401855b8281101561361b57815180516001600160a01b03168552868101518786015285015185850152606090930192908501906001016135e3565b5091979650505050505050565b602081526000612c8b60208301846134ed565b6001600160a01b039687168152948616602086015292851660408501526060840191909152608083015290911660a082015260c00190565b60018060a01b038416815282602082015260606040820152600061369a60608301846134aa565b95945050505050565b6040815260006136b660408301856134ed565b905060018060a01b03831660208301529392505050565b85815284602082015260a0604082015260006136ec60a08301866134aa565b6001600160a01b0394909416606083015250608001529392505050565b600067ffffffffffffffff82111561372357613723613865565b5060051b60200190565b600082198211156137405761374061384f565b500190565b60008261376057634e487b7160e01b81526012600452602481fd5b500490565b6000828210156137775761377761384f565b500390565b60005b8381101561379757818101518382015260200161377f565b838111156137a6576000848401525b50505050565b600181811c908216806137c057607f821691505b60208210811415612e4957634e487b7160e01b600052602260045260246000fd5b6060810181811067ffffffffffffffff8211171561380157613801613865565b60405250565b601f8201601f1916810167ffffffffffffffff8111828210171561382d5761382d613865565b6040525050565b60006000198214156138485761384861384f565b5060010190565b634e487b7160e01b600052601160045260246000fd5b634e487b7160e01b600052604160045260246000fd5b600060033d111561389057600481823e5160e01c5b90565b600060443d10156138a15790565b6040516003193d81016004833e81513d67ffffffffffffffff81602484011181841117156138d157505050505090565b82850191508151818111156138e95750505050505090565b843d87010160208285010111156139035750505050505090565b61391260208286010187613807565b509095945050505050565b6001600160a01b0381168114612d8a57600080fdfea264697066735822122062ec783f5c65f23435aa36d0d56c883eaf3ec8e044fd5c8c316df96a5951254264736f6c63430008040033",
  "linkReferences": {},
  "deployedLinkReferences": {}
}